:020000040800F2
:10000000A808002065150008C5150008C5150008DA
:10001000C5150008C5150008C5150008000000003A
:10002000000000000000000000000000C5150008EE
:10003000C515000800000000C5150008C51500081A
:10004000C5150008C5150008C5150008C515000828
:10005000C5150008C5150008C5150008C515000818
:10006000C5150008C5150008C5150008C515000808
:10007000C5150008C5150008C5150008C5150008F8
:10008000C5150008C5150008C5150008C5150008E8
:10009000C5150008C5150008C51500085D0F000846
:1000A000C5150008C5150008C5150008C5150008C8
:1000B000E90A0008C5150008C5150008C51500089F
:1000C000C5150008C5150008C5150008C5150008A8
:1000D000C5150008F9090008C5150008C515000870
:1000E000C5150008C5150008C5150008000000006A
:1000F0000000000000000000000000000000000000
:100100000000000000000000C5150008C51500082B
:10011000C5150008C5150008C5150008C515000857
:10012000C5150008C5150008C5150008C515000847
:10013000C5150008C5150008C5150008C515000837
:10014000C5150008C5150008C5150008C515000827
:100150005FF808F180B485B000AF786039600023A3
:10016000FB817B681B88FB817B682E4A934213D0FE
:100170007B682D4A93420FD07B68B3F1804F0BD040
:100180007B682A4A934207D07B68294A934203D06E
:100190007B68284A934208D1FB8923F07003FB81D6
:1001A0003B685A88FB891343FB817B68224A934250
:1001B0000CD07B68214A934208D0FB8923F440731A
:1001C000FB813B68DA88FB891343FB817B68FA89F2
:1001D0001A803B689A887B689A853B681A887B6896
:1001E0001A857B680F4A93420FD07B680E4A934270
:1001F0000BD07B68124A934207D07B68114A934226
:1002000003D07B68104A934204D13B681B7A9AB2B0
:100210007B681A867B6801229A8200BF1437BD462C
:1002200080BC7047002C01400034014000040040B5
:1002300000080040000C0040001000400014004086
:1002400000400140004401400048014080B483B0B8
:1002500000AF78600B46FB70FB78002B08D07B6802
:100260001B889BB243F001039AB27B681A8007E0B7
:100270007B681B889BB223F001039AB27B681A80CB
:1002800000BF0C37BD4680BC704780B483B000AF60
:1002900078600B467B8013467B707B78002B08D000
:1002A0007B689B899AB27B8813439AB27B689A8158
:1002B00009E07B689B899AB27B88DB439BB2134041
:1002C0009AB27B689A8100BF0C37BD4680BC7047EC
:1002D00080B485B000AF78600B467B800023FB7351
:1002E0000023BB8100237B817B681B8A9AB27B88B9
:1002F0001340BB817B689B899AB27B8813407B81CA
:10030000BB89002B05D07B89002B02D00123FB7316
:1003100001E00023FB73FB7B18461437BD4680BC0D
:10032000704780B483B000AF78600B467B807B88D9
:10033000DB439AB27B681A8200BF0C37BD4680BC93
:100340007047000080B500AF1A4B1B68194A43F094
:1003500001031360174B5A681649174B13404B6043
:10036000144B1B68134A23F0847323F48033136007
:10037000104B1B680F4A23F4802313600D4B5B68FE
:100380000C4A23F4FE0353600A4B1B68094A23F00E
:10039000A0531360074B4FF47F029A60054B002275
:1003A000DA6200F00DF8054B4FF000629A6000BF72
:1003B00080BD00BF001002400000FFF000ED00E033
:1003C00080B500AF00F002F800BF80BD80B483B0FC
:1003D00000AF00237B6000233B60474B1B68464A0D
:1003E00043F480331360444B1B6803F400333B60D9
:1003F0007B6801337B603B68002B03D17B68B3F5DE
:10040000A06FF0D13C4B1B6803F40033002B02D0EB
:1004100001233B6001E000233B603B68012B66D178
:10042000364B1B68354A43F010031360334B1B688F
:10043000324A23F003031360304B1B682F4A43F00A
:10044000020313602C4B2C4A5B6853602A4B2A4AE8
:100450005B685360284B5B68274A43F480635360B2
:10046000254BDA6A2449264B1340CB62224BDB6AC8
:10047000214A43F4833343F04403D3621E4B1B6889
:100480001D4A43F08063136000BF1B4B1B6803F0E1
:100490000063002BF9D0184B5B68174A23F47C13D8
:1004A0005360154B5B68144A43F4E8135360124BD6
:1004B0001B68114A43F08073136000BF0E4B1B682A
:1004C00003F00073002BF9D00B4B5B680A4A23F052
:1004D00003035360084B5B68074A43F00203536011
:1004E00000BF054B5B6803F00C03082BF9D100BF7C
:1004F0000C37BD4680BC704700100240002002400F
:1005000000F0FEFF80B489B000AF7860396000234E
:10051000FB6100233B610023BB610023FB600023E0
:100520007B610023BB603B68DB7803F00F03FB615A
:100530003B68DB7803F01003002B05D03B689B7809
:100540001A46FB691343FB613B681B88DBB2002B37
:1005500044D07B681B687B610023BB6138E00122CB
:10056000BB6902FA03F3FB603B681B881A46FB6811
:1005700013403B613A69FB689A4226D1BB699B00F4
:10058000FB600F22FB6802FA03F3BB60BB68DB432E
:100590007A6913407B61FA69FB6802FA03F37A69AE
:1005A00013437B613B68DB78282B05D10122BB69B3
:1005B0009A407B685A6108E03B68DB78482B04D19D
:1005C0000122BB699A407B681A61BB690133BB6138
:1005D000BB69072BC3D97B687A691A603B681B88A3
:1005E000FF2B46D97B685B687B610023BB613AE0E7
:1005F000BB690833012202FA03F3FB603B681B88E6
:100600001A46FB6813403B613A69FB689A4227D15E
:10061000BB699B00FB600F22FB6802FA03F3BB601F
:10062000BB68DB437A6913407B61FA69FB6802FAB5
:1006300003F37A6913437B613B68DB78282B05D190
:10064000BB69083301229A407B685A613B68DB78BA
:10065000482B05D1BB69083301229A407B681A6197
:10066000BB690133BB61BB69072BC1D97B687A6960
:100670005A6000BF2437BD4680BC704780B485B047
:1006800000AF78600B467B800023FB737B689A6821
:100690007B881340002B02D00123FB7301E0002371
:1006A000FB73FB7B18461437BD4680BC704780B493
:1006B00085B000AF78600B467B800023FB737B68BE
:1006C000DA687B881340002B02D00123FB7301E022
:1006D0000023FB73FB7B18461437BD4680BC704774
:1006E00080B483B000AF78600B467B807A887B68EB
:1006F0001A6100BF0C37BD4680BC704780B483B020
:1007000000AF78600B467B807A887B685A6100BFB7
:100710000C37BD4680BC704780B485B000AF03463F
:100720000A46FB711346BB710023FB60BB7903F0E3
:1007300003039B000F2202FA03F3FB60154ABB7907
:100740009B08DBB2023352F82320FB68DB431148DD
:10075000B9798908C9B21A408B1C40F823200D4A88
:10076000BB799B08DBB2023352F82320F979BB79BD
:1007700003F003039B0001FA03F30648B9798908E3
:10078000C9B21A438B1C40F8232000BF1437BD4662
:1007900080BC70470000014080B483B000AF0346C6
:1007A000FB71FB7903F01F03012202FA03F1054AF2
:1007B00097F907305B0942F8231000BF0C37BD469C
:1007C00080BC704700E100E080B582B000AF00F06F
:1007D00031FC4FF4803000F065FC00F091FC0346E2
:1007E000FB71FB79012B29D1022001F065F9102062
:1007F00001F07EF9002000F003FD4FF4806000F06E
:100800001BFD002000F034FD4FF4E0114FF4803068
:1008100000F09EFC012000F0B9FC00BF392000F080
:1008200067FE0346002BF9D0022000F0BFFC00BF9A
:1008300000F0D8FC0346082BFAD100E0FEE7034B9A
:10084000034A1A6000BF0837BD4680BD0000002083
:1008500000A24A0480B586B000AF012144F2040032
:1008600000F00AFE4FF48063BB820423FB7507F19E
:10087000140319461D48FFF745FE4FF40073BB8271
:100880000323BB751823FB7507F11403194617489A
:10089000FFF738FE4FF496437B6000233B81002333
:1008A0007B810023BB8100233B820C23FB813B1D0A
:1008B00019460F4800F02EFF012240F225510C4846
:1008C00001F001F825233B7000237B700023BB70EF
:1008D0000123FB703B46184601F022F90121044830
:1008E00000F0D2FF00BF1837BD4680BD00080140B0
:1008F0000038014080B582B000AF0121082000F02F
:10090000BBFD4FF40043BB801023FB710223BB717E
:100910003B1D19460548FFF7F5FD4FF4004103481C
:10092000FFF7ECFE00BF0837BD4680BD000C01405C
:1009300080B584B000AF0121012000F0BBFD3B1D5C
:1009400000221A605A601A8141F61F43BB8040F2B0
:10095000E7333B810023FB803B1D19464FF080406D
:10096000FFF7F8FB012201214FF08040FFF78DFCDB
:1009700000233B601C233B7000237B700023BB7073
:100980000123FB703B46184601F0CAF81C20FFF714
:1009900003FF01214FF08040FFF758FC00BF1037E4
:1009A000BD4680BD80B582B000AF7860396011E08F
:1009B00000BF8021786800F0EDFF0346002BF8D0DF
:1009C0003B681B789BB21946786800F0C3FF3B6810
:1009D00001333B603B681B78002BE9D100BF40210D
:1009E000786800F0D7FF0346002BF8D000BF00BFA7
:1009F0000837BD4680BD000080B582B000AF40F230
:100A000025512F4800F0E1FF0346002B54D02C481D
:100A100000F0B1FF0346FB71FB790D2B02D0FB798F
:100A20000A2B0FD1274B1B78DBB2002B3FD0254B75
:100A30001B78DBB21A46244B00219954234B012228
:100A40001A7034E0FB79082B02D0FB797F2B10D190
:100A50001C4B1B78DBB2002B29D01A4B1B78DBB266
:100A6000013BDAB2174B1A7019491548FFF79AFF84
:100A70001DE0144B1B78DBB23E2B18D8114B1B78B2
:100A8000DBB25A1CD1B20F4A117019460E4AFB79DB
:100A90005354FB799BB21946094800F05BFF00BF35
:100AA0004021074800F076FF0346002BF8D040F2C3
:100AB0002551034800F0E3FF00BF0837BD4680BD65
:100AC00000380140980400205804002099040020B8
:100AD000D820000880B400AF024B1B681846BD4602
:100AE00080BC70479C04002080B500AF01214FF00E
:100AF0008040FFF7EDFB0346002B1CD00F4B1B681B
:100B000001330E4A136001214FF08040FFF709FCCA
:100B10004FF400410A48FFF7CAFD0346002B05D1F8
:100B20004FF400410648FFF7DBFD04E04FF40041BD
:100B30000348FFF7E3FD00BF80BD00BF9C04002019
:100B4000000C014080B588B000AF786039600023A8
:100B5000FB6190499048FFF725FF9049786801F0C4
:100B6000FDF80346002B07D13B680A33FB618C4933
:100B70008948FFF717FF39E08A49786801F0EEF8F5
:100B80000346002B07D13B680A3BFB61864982483C
:100B9000FFF708FF2AE08549786801F0DFF803468F
:100BA000002B0AD13A6813469B0013445B00FB619B
:100BB0007F497948FFF7F6FE18E07E49786801F032
:100BC000CDF80346002B0CD13B687B4A82FB031215
:100BD0009210DB17D31AFB6178496F48FFF7E2FEEA
:100BE00004E077496C48FFF7DDFED0E00023BB61ED
:100BF0003B687B617B69002B06DA2D21664800F09B
:100C0000F1F87B695B427B617B69002B23D16D49E5
:100C10006148FFF7C7FE34E07A69674B83FB021334
:100C20009910D317C91A0B469B000B445B00D11ACD
:100C3000CAB2BB69591CB9613032D2B207F1200186
:100C40000B4403F8182C7B695B4A82FB0312921059
:100C5000DB17D31A7B617B69002B0FDDBB690A2B85
:100C6000DADD0BE0BB69013BBB6107F10802BB6940
:100C700013441B781946484800F0B4F8BB69002BB0
:100C8000F0DC4649786801F069F80346002B04D18E
:100C90004D494148FFF786FE22E04249786801F05D
:100CA0005DF80346002B04D148493B48FFF77AFE24
:100CB00016E03E49786801F051F80346002B04D154
:100CC00043493548FFF76EFE0AE03A49786801F07B
:100CD00045F80346002B03D13E492F48FFF762FE3B
:100CE0003D492D48FFF75EFE3C492B48FFF75AFE71
:100CF000FB697B610023BB617B69002B06DA2D2138
:100D0000254800F06FF87B695B427B617B69002BB3
:100D100023D12C492048FFF745FE34E07A69264B61
:100D200083FB02139910D317C91A0B469B000B447F
:100D30005B00D11ACAB2BB69591CB9613032D2B258
:100D400007F120010B4403F8182C7B691A4A82FB37
:100D500003129210DB17D31A7B617B69002B0FDD26
:100D6000BB690A2BDADD0BE0BB69013BBB6107F114
:100D70000802BB6913441B781946074800F032F893
:100D8000BB69002BF0DC16490348FFF70BFE203748
:100D9000BD4680BDDC20000800380140E02000088E
:100DA000E4200008EC200008F0200008F8200008EB
:100DB000FC20000804210008676666660821000818
:100DC0001021000824210008282100082C210008F7
:100DD0003021000834210008382100083C21000897
:100DE0004021000880B582B000AF78600B46FB70F0
:100DF00000BF8021786800F0CDFD0346002BF8D0BD
:100E0000FB789BB21946786800F0A4FD00BF402132
:100E1000786800F0BFFD0346002BF8D000BF00BF8C
:100E20000837BD4680BD80B58AB000AF786000232A
:100E30007B6207F10C0310220021184600F0D6FE59
:100E40002021786800F024FFF861FB69002B0BD1AA
:100E500007F10C030F227968184601F05DF80023B2
:100E6000FB7600237B621AE0FB6900221A7007F10F
:100E70000C030F227968184601F04EF80023FB7628
:100E8000FB6901333B6202E03B6A01333B623B6A30
:100E90001B78202BF8D0386A00F0A4FE786207F1A6
:100EA0000C03796A1846FFF74DFE00BF2837BD4690
:100EB00080BD000080B500AF0A4B1B78DBB2012B70
:100EC0000DD1084B00221A700748FFF7ACFF4022F3
:100ED0000021054800F08AFE044B00221A7000BF72
:100EE00080BD00BF99040020580400209804002011
:100EF00080B584B000AF0121112000F0BDFA20239D
:100F0000BB812823FB730323BB7307F10C03194632
:100F10001148FFF7F7FA05210220FFF7FDFB202318
:100F20007B6000233B720C237B720123BB723B1D51
:100F3000184600F04BFB17233B7001237B70012305
:100F4000BB700123FB703B46184600F0E9FD00BF73
:100F50001037BD4680BD00BF0010014080B500AF16
:100F6000202000F0A5FB0346002B0AD0064B0122EF
:100F70001A60FFF7AFFD0346044A1360202000F01B
:100F8000BBFB00BF80BD00BFA4040020A004002064
:100F900080B500AF0D4B1B68012B15D1FFF79AFDF3
:100FA00002460B4B1B68D31A042B0DD9074B0022AA
:100FB0001A6020210748FFF761FB0346012B03D18C
:100FC00005490648FFF7EEFC00BF80BDA4040020E1
:100FD000A004002000100140482100080038014012
:100FE00080B500AFFFF7F0FBFFF7A2FCFFF772FD43
:100FF00003460C4A1360FFF72DFCFFF77BFCFFF75D
:1010000077FF40220021084800F0F0FD074B002246
:101010001A70074B00221A70FFF7BAFFFFF74AFF5A
:10102000FAE700BFA0040020580400209804002024
:101030009904002080B400AF184B1B68174A43F096
:1010400001031360154B5A681449154B13404B604C
:10105000124B1B68114A23F0847323F4803313600E
:101060000E4B1B680D4A23F4802313600B4B5B6807
:101070000A4A23F4FE035360084B1B68074A23F017
:10108000A0531360054B4FF47F029A60034B00227C
:10109000DA6200BFBD4680BC704700BF001002404E
:1010A0000000FFF080B483B000AF7860134B1B6882
:1010B000124A23F480331360104B1B680F4A23F449
:1010C000802313607B68B3F5803F04D07B68B3F561
:1010D000802F07D00DE0094B1B68084A43F480338A
:1010E000136006E0054B1B68044A43F4A023136019
:1010F00000BF00BF0C37BD4680BC704700100240E7
:1011000080B582B000AF00233B600023FB71002359
:10111000BB71312000F0ECF90346BB713B68013331
:101120003B603B68B3F5A06F02D0BB79002BF0D0D9
:10113000312000F0DDF90346002B02D00123FB71C2
:1011400001E00023FB71FB7918460837BD4680BDDE
:1011500080B485B000AF786039600023FB600A4B33
:101160005B68FB60FB6823F47413FB607A683B6880
:101170001343FA681343FB60034AFB68536000BFE4
:101180001437BD4680BC70470010024080B483B065
:1011900000AF0346FB71044AFB79136000BF0C37B4
:1011A000BD4680BC704700BF6000424280B485B03D
:1011B00000AF78600023FB60094B5B68FB60FB6855
:1011C00023F00303FB60FA687B681343FB60044A67
:1011D000FB68536000BF1437BD4680BC704700BF3A
:1011E0000010024080B400AF044B5B68DBB203F038
:1011F0000C03DBB21846BD4680BC704700100240AD
:1012000080B485B000AF78600023FB60094B5B6859
:10121000FB60FB6823F0F003FB60FA687B68134314
:10122000FB60044AFB68536000BF1437BD4680BCB6
:10123000704700BF0010024080B485B000AF7860F6
:101240000023FB60094B5B68FB60FB6823F4E063F1
:10125000FB60FA687B681343FB60044AFB685360D9
:1012600000BF1437BD4680BC704700BF001002406D
:1012700080B485B000AF78600023FB60094B5B68E9
:10128000FB60FB6823F46053FB607B68DB00FA685B
:101290001343FB60034AFB68536000BF1437BD462D
:1012A00080BC70470010024080B48BB000AF786003
:1012B00000233B6200237B620023FB610023BB61B0
:1012C00000237B6100233B610023FB600023BB60A4
:1012D000644B5B6803F00C033B623B6A082B11D044
:1012E0003B6A082B64D83B6A002B03D03B6A042B73
:1012F00004D05DE07B685C4A1A605DE07B685A4A16
:101300001A6059E0574B5B6803F470137B62554BCE
:101310005B6803F48033FB617B6A9B0C7B627B6AB6
:101320000D2B03D07B6A02337B6201E006237B62D4
:10133000FB69002B06D17B6A4C4A03FB02F27B68F7
:101340001A6039E0474BDB6A03F480337B61454B1D
:10135000DB6A03F00F0301333B617B69002B09D18A
:10136000414A3B69B2FBF3F37A6A03FB02F27B6802
:101370001A6021E03B4BDB6A1B0903F00F030133CA
:10138000FB60384BDB6A1B0A03F00F030233BB60C0
:10139000354AFB68B2FBF3F3BA6803FB02F23B6920
:1013A000B2FBF3F37A6A03FB02F27B681A6003E094
:1013B0007B682D4A1A6000BF2A4B5B6803F0F0037C
:1013C0003B623B6A1B093B62294A3B6A13441B7818
:1013D000DBB2BB617B681A68BB69DA407B685A6024
:1013E000204B5B6803F4E0633B623B6A1B0A3B6291
:1013F0001F4A3B6A13441B78DBB2BB617B685A68A7
:10140000BB69DA407B689A60164B5B6803F46053F3
:101410003B623B6ADB0A3B62154A3B6A13441B781A
:10142000DBB2BB617B685A68BB69DA407B68DA6013
:101430000C4B5B6803F440433B623B6A9B0B3B6293
:101440000C4A3B6A13441B78DBB2BB617B68DA68E9
:10145000BB69B2FBF3F27B681A6100BF2C37BD4653
:1014600080BC70470010024000127A0000093D0065
:10147000440400205404002080B483B000AF78609E
:101480000B46FB70FB78002B06D0094B9A69084984
:101490007B6813438B6106E0054B9A697B68DB43ED
:1014A000034913408B6100BF0C37BD4680BC7047B9
:1014B0000010024080B483B000AF78600B46FB7030
:1014C000FB78002B06D0094BDA6908497B68134387
:1014D000CB6106E0054BDA697B68DB4303491340C7
:1014E000CB6100BF0C37BD4680BC70470010024086
:1014F00080B487B000AF0346FB710023FB6000237C
:101500007B610023FB74FB795B09DBB2FB60FB684A
:10151000012B03D1124B1B687B6109E0FB68022B96
:1015200003D10F4B1B6A7B6102E00D4B5B6A7B6151
:10153000FB7903F01F03FB607A69FB6822FA03F36F
:1015400003F00103002B02D00123FB7401E0002310
:10155000FB74FB7C18461C37BD4680BC704700BF3F
:101560000010024080B582B000AF114B7B60114B80
:101570003B6007E07A68131D7B603B68191D39608A
:1015800012681A603B680C4A9342F3D30B480C492B
:101590004FF000028842B8BF40F8042BFADBFEF798
:1015A000D1FEFFF71DFD00BF0837BD4680BD00BF5F
:1015B0005922000800000020580400205804002090
:1015C000A804002080B400AFFEE7000080B485B01E
:1015D00000AF78600023FB60344BFB607B689B7935
:1015E000002B4FD0314B1A687B681B68DB432F49B7
:1015F00013400B602D4B5A687B681B68DB432B49FB
:1016000013404B607B681B791A46FB681344FB60F0
:10161000FB6819687B681A68FB680A431A60234BE9
:101620009A687B681B68DB43204913408B601F4B23
:10163000DA687B681B68DB431C491340CB607B681E
:101640005B79102B0ED1194B9A687B681B68174980
:1016500013438B60154BDA687B681B68134913438F
:10166000CB601DE0114BFB607B685B791A46FB6821
:101670001344FB60FB6819687B681A68FB680A43BF
:101680001A600DE07B681B791A46FB681344FB6007
:10169000FB6819687B681B68DA43FB680A401A60BC
:1016A00000BF1437BD4680BC704700BF0004014036
:1016B00080B485B000AF78600023FB730023BB606B
:1016C0000C4B1B687A681340BB600A4B5A697B68F5
:1016D0001340002B05D0BB68002B02D00123FB7305
:1016E00001E00023FB73FB7B18461437BD4680BC2A
:1016F000704700BF0004014080B483B000AF786041
:10170000034A7B68536100BF0C37BD4680BC7047FD
:101710000004014080B58CB000AF786039600023D0
:10172000FB620023BB6200237B6200233B62002339
:10173000FB617B68FB617B681B8A9BB2FB62FA6A78
:101740004CF6FF731340FB623B68DB881A46FB6A6A
:101750001343FB62FB6A9AB27B681A827B689B899F
:101760009BB2FB62FA6A4EF6F3131340FB623B68CE
:101770009A883B681B8913439AB23B685B89134381
:101780009BB21A46FB6A1343FB62FB6A9AB27B6800
:101790009A817B689B8A9BB2FB62FA6A4FF6FF4391
:1017A0001340FB623B689B891A46FB6A1343FB624A
:1017B000FB6A9AB27B689A8207F108031846FFF722
:1017C00073FDFB692E4A934202D17B69BB6201E043
:1017D0003B69BB627B689B899BB21BB2002B0CDA16
:1017E000BA6A13469B0013449A001A443B681B686C
:1017F0005B00B2FBF3F37B620BE0BA6A13469B001B
:1018000013449A001A443B681B689B00B2FBF3F335
:101810007B627B6A1B4AA2FB03235B091B01FB6201
:10182000FB6A1B09642202FB03F37A6AD31A3B6248
:101830007B689B899BB21BB2002B0CDA3B6ADB00F6
:101840003233104AA2FB03235B0903F00703FA6A51
:101850001343FB620BE03B6A1B013233094AA2FBD4
:1018600003235B0903F00F03FA6A1343FB62FB6A6D
:101870009AB27B681A8100BF3037BD4680BD00BF79
:10188000003801401F85EB5180B483B000AF786011
:101890000B46FB70FB78002B08D07B689B899BB2C2
:1018A00043F400539AB27B689A8107E07B689B8976
:1018B0009BB223F400539AB27B689A8100BF0C3725
:1018C000BD4680BC704780B487B000AF78600B46DF
:1018D0007B8013467B7000233B610023FB60002369
:1018E000BB6000237B617B687B617B88DBB25B092B
:1018F000DBB23B617B8803F01F03FB600122FB68C6
:1019000002FA03F3BB603B69012B03D17B690C3303
:101910007B6109E03B69022B03D17B6910337B615A
:1019200002E07B6914337B617B78002B06D07B69F6
:1019300019687B69BA680A431A6006E07B6919680E
:10194000BB68DA437B690A401A6000BF1C37BD469A
:1019500080BC704780B483B000AF78600B467B805A
:101960007B88C3F308039AB27B689A8000BF0C3768
:10197000BD4680BC704780B483B000AF78607B68A0
:101980009B889BB2C3F308039BB218460C37BD4635
:1019900080BC704780B485B000AF78600B467B8018
:1019A0000023FB737B681B889AB27B8813409BB231
:1019B000002B02D00123FB7301E00023FB73FB7BB0
:1019C00018461437BD4680BC704780B487B000AF5E
:1019D00078600B467B800023FB6000237B61002343
:1019E000BB600023FB747B88DBB25B09DBB2BB60AE
:1019F0007B8803F01F037B6101227B6902FA03F3FA
:101A00007B61BB68012B07D17B689B899BB21A461F
:101A10007B6913407B6111E0BB68022B07D17B68B7
:101A20001B8A9BB21A467B6913407B6106E07B6888
:101A30009B8A9BB21A467B6913407B617B881B0A99
:101A40009BB2FB600122FB6802FA03F3FB607B6838
:101A50001B889BB21A46FB681340FB607B69002B16
:101A600005D0FB68002B02D00123FB7401E00023AA
:101A7000FB74FB7C18461C37BD4680BC704780B4A5
:101A800085B000AF78600B467B800023FB8100238C
:101A9000BB817B881B0AFB81FB89012202FA03F3CD
:101AA000BB81BB89DB439AB27B681A8000BF1437C5
:101AB000BD4680BC7047000080B485B000AF786040
:101AC0000023FB60094B1B68FB60FB6803F03803D5
:101AD000FB60FA687B681343FB60044AFB68136091
:101AE00000BF1437BD4680BC704700BF00200240D5
:101AF00080B483B000AF7860084B1B68074A23F0BE
:101B000010031360054B1A6804497B6813430B608C
:101B100000BF0C37BD4680BC704700BF00200240AC
:101B200080B487B000AF786000237B6100233B6105
:101B30000F23FB607B68DB78002B3AD0274BDB68F8
:101B4000DB431B0A03F007037B617B69C3F10403DA
:101B50003B61FA687B6922FA03F3FB607B685B7880
:101B60001A463B6902FA03F37B617B689B781A464D
:101B7000FB6813407A6913437B617B691B017B61BE
:101B8000174A7B681B787969C9B213440A4683F8FF
:101B900000237B681B7803F01F0311497A681278D1
:101BA0005209D2B21046012202FA03F341F8203062
:101BB0000FE07B681B7803F01F0309497A681278ED
:101BC0005209D2B2104601229A4000F1200341F896
:101BD000232000BF1C37BD4680BC704700ED00E0ED
:101BE00000E100E00A22002100F05ABA830730B574
:101BF00048D0541E002A3FD00346CAB201E0013C3F
:101C00003AD303F8012B9D07F9D1032C2DD9CDB27E
:101C100045EA05250F2C45EA054536D9A4F1100201
:101C200022F00F0C03F1200EE6444FEA121C03F1E0
:101C3000100242E9045542E9025510327245F8D1CA
:101C40000CF1010214F00C0F03EB021204F00F0C64
:101C500013D0ACF1040323F003030433134442F81C
:101C6000045B9342FBD10CF003042CB1CAB21C44B8
:101C700003F8012B9C42FBD130BD64461346002C77
:101C8000F4D1F9E703461446BFE71A46A446E0E755
:101C900011F0FF01034644D0820732D110B5046829
:101CA00041EA012E4EEA0E4E8EEA0402A2F1013301
:101CB00023EA0203A4F1013222EA0402134313F0DF
:101CC000803F0FD150F8044F84EA0E0CA4F1013389
:101CD000ACF1013223EA040322EA0C02134313F0AD
:101CE000803FEFD0037823B936E010F8013F002B96
:101CF00032D09942F9D110BD8A4211D09A071846C4
:101D0000CCD0184613F8012B002AF5D110467047A5
:101D10009907184607D0184602780133002AF7D1F0
:101D200070478207F7D10268A2F1013323EA020368
:101D300013F0803F08D150F8042FA2F1013323EAB9
:101D4000020313F0803FF6D00378002BE8D010F8A0
:101D5000013F002BFBD17047184610BD80EA010CF3
:101D60001CF0030F37D110F0030C20F0030021F01A
:101D7000030150F8042B08BF51F8043B0ED08CF03F
:101D8000030C6FF07F434FEACC0C23FA0CFC51F8A4
:101D9000043B42EA0C0243EA0C0300BFA2F1013CFF
:101DA0009A4201BF2CEA020C1CF0803F50F8042B31
:101DB00051F8043BF2D04FEA02604FEA12220128A8
:101DC00028BFB0EB036F08BF1B0AF4D003F0FF037A
:101DD000000EC01A704710F0030F0AD010F8012B44
:101DE00011F8013B012A28BF9A42F4D0A2EB03006C
:101DF00070474DF8045D50F8042B01F0030521F005
:101E0000030151F8043B022D26D04DD822F07F4526
:101E1000B5EB132FA2F1013C2CEA020C0DD11CF002
:101E2000803C08BF51F8043B0AD185EA0205B5EBB6
:101E3000036F0CD150F8042BE8E74FEA13235BE063
:101E40003CF07F4C54D10B784FEA126554E04FEAD6
:101E5000126503F0FF034FE04FEA0245A2F1013C97
:101E60004FEA15452CEA020CB5EB134F18D11CF0C4
:101E7000803C08BF51F8043B07D185EA0205B5EB69
:101E8000034F09D150F8042BE6E75FEA0C4C2FD141
:101E90000B884FEA12452FE04FEA03434FEA124501
:101EA0004FEA134328E000BF02F0FF05B5EB136FC4
:101EB000A2F1013C2CEA020C0DD11CF0803C08BFC1
:101EC00051F8043B0AD185EA0205B5EB032F0AD18C
:101ED00050F8042BE8E74FEA13630DE012F0FF0F10
:101EE00006D051F8043B4FEA122523F07F4303E06C
:101EF0004FF0000020BC704705F0FF0203F0FF0028
:101F0000012828BF904204BF2D0A1B0AF4D0A2EB7F
:101F1000000020BC704700BF30B540EA0104A307B1
:101F200022D1032A20D90B468446194653F8045B74
:101F3000A5F1013424EA050414F0803F15D1043AD8
:101F4000032A19464CF8045BEFD801F1FF3E52B169
:101F500063461EF8011F541E03F8011B41B12246BF
:101F60009C46002AF4D130BD844601F1FF3EEEE7E5
:101F70006244002CF7D003F8011B9342FBD130BD23
:101F80002DE9F04F81468E46444D70461EF801CB38
:101F900015F80C4014F00804F7D1BCF12D0FE346FE
:101FA00053D06FF00048BCF12B0F04BF9EF800B077
:101FB00000F1020E1BB1102B4FD01F4604E0BBF105
:101FC000300F55D00A231F460025B8FBF7F62846E8
:101FD00007FB168A07E0864215D329D0012507FBA7
:101FE00000C01EF801BBABF1300CBCF1090F06D9E3
:101FF000ABF1410CBCF1190F08D8ABF1370C6345BC
:102000000DDD002DE7DA4FF0FF35EAE7ABF1610CAB
:10201000BCF1190F03D8ABF1570C6345F1DC002D6F
:102020000BDB04B140420AB195BB1160BDE8F08FF3
:10203000E245D3DA4FF0FF35D3E72223C9F8003069
:102040001AB340460EF1FF31EFE79EF800B04FF0B3
:102050000048012400F1020EACE7BBF1300FACD117
:102060009EF8000000F0DF00582807D01F46ABE7BD
:102070009EF8003003F0DF03582B0BD110279EF899
:1020800001B03B460EF1020E9EE74046BDE8F08FE0
:102090008046D6E708231F4696E700BF592100086F
:1020A000012A10B50AD0242A08D8074C13460A463C
:1020B00001462068BDE81040FFF762BF00F006F857
:1020C00016230360002010BD40040020014B186857
:1020D000704700BF40040020082008000D0A0000DF
:1020E000616464006164643A2000000073756200FA
:1020F0007375623A200000006D756C006D756C3A66
:1021000020000000646976006469763A20000000CF
:102110006572726F723A20756E6B6E6F776E0D0A14
:102120003E20000030000000202B2000202D200049
:10213000202A2000202F200031300000203D2000E8
:102140000D0A3E200000000053696D6F6E6F76200F
:1021500045676F720D0A00000020202020202020FB
:102160002020282828282820202020202020202047
:102170002020202020202020208810101010101057
:1021800010101010101010101004040404040404A3
:10219000040404101010101010104141414141413D
:1021A000010101010101010101010101010101011F
:1021B000010101011010101010104242424242422F
:1021C00002020202020202020202020202020202EF
:1021D0000202020210101010200000000000000097
:1021E00000000000000000000000000000000000EF
:1021F00000000000000000000000000000000000DF
:1022000000000000000000000000000000000000CE
:1022100000000000000000000000000000000000BE
:1022200000000000000000000000000000000000AE
:10223000000000000000000000000000000000009E
:10224000000000000000000000000000000000008E
:0922500000000000000000000085
:1022590000A24A040000000000000000010203047B
:102269000607080900000000000000000000000047
:102279000100000000000000000000000000000054
:102289000000000000000000000000000000000045
:102299000000000000000000000000000000000035
:1022A9000000000000000000000000000000000025
:1022B9000000000000000000000000000000000015
:1026990018000020000000000102030401020304E5
:0826A9000607080902040608F7
:0400000508000000EF
:00000001FF
