:020000040800F2
:1000000028040020390D0008990D0008990D0008FA
:10001000990D0008990D0008990D000800000000D6
:10002000000000000000000000000000990D000822
:10003000990D000800000000990D0008990D0008B6
:10004000990D0008990D0008990D0008990D0008F8
:10005000990D0008990D0008990D0008990D0008E8
:10006000990D0008990D0008990D0008990D0008D8
:10007000990D0008990D0008990D0008990D0008C8
:10008000990D0008990D0008990D0008990D0008B8
:10009000990D0008990D0008990D00082D08000819
:1000A000990D0008990D0008990D0008990D000898
:1000B00061080008990D0008990D0008990D0008C5
:1000C000990D0008990D0008990D0008990D000878
:1000D000990D0008990D0008990D0008990D000868
:1000E000990D0008990D0008990D00080000000006
:1000F0000000000000000000000000000000000000
:100100000000000000000000990D0008990D000893
:10011000990D0008990D0008990D0008990D000827
:10012000990D0008990D0008990D0008990D000817
:10013000990D0008990D0008990D0008990D000807
:10014000990D0008990D0008990D0008990D0008F7
:100150005FF808F180B485B000AF786039600023A3
:10016000FB817B681B88FB817B682E4A934213D0FE
:100170007B682D4A93420FD07B68B3F1804F0BD040
:100180007B682A4A934207D07B68294A934203D06E
:100190007B68284A934208D1FB8923F07003FB81D6
:1001A0003B685A88FB891343FB817B68224A934250
:1001B0000CD07B68214A934208D0FB8923F440731A
:1001C000FB813B68DA88FB891343FB817B68FA89F2
:1001D0001A803B689A887B689A853B681A887B6896
:1001E0001A857B680F4A93420FD07B680E4A934270
:1001F0000BD07B68124A934207D07B68114A934226
:1002000003D07B68104A934204D13B681B7A9AB2B0
:100210007B681A867B6801229A8200BF1437BD462C
:1002200080BC7047002C01400034014000040040B5
:1002300000080040000C0040001000400014004086
:1002400000400140004401400048014080B483B0B8
:1002500000AF78600B46FB70FB78002B08D07B6802
:100260001B889BB243F001039AB27B681A8007E0B7
:100270007B681B889BB223F001039AB27B681A80CB
:1002800000BF0C37BD4680BC704780B483B000AF60
:1002900078600B467B8013467B707B78002B08D000
:1002A0007B689B899AB27B8813439AB27B689A8158
:1002B00009E07B689B899AB27B88DB439BB2134041
:1002C0009AB27B689A8100BF0C37BD4680BC7047EC
:1002D00080B485B000AF78600B467B800023FB7351
:1002E0000023BB8100237B817B681B8A9AB27B88B9
:1002F0001340BB817B689B899AB27B8813407B81CA
:10030000BB89002B05D07B89002B02D00123FB7316
:1003100001E00023FB73FB7B18461437BD4680BC0D
:10032000704780B483B000AF78600B467B807B88D9
:10033000DB439AB27B681A8200BF0C37BD4680BC93
:100340007047000080B500AF1A4B1B68194A43F094
:1003500001031360174B5A681649174B13404B6043
:10036000144B1B68134A23F0847323F48033136007
:10037000104B1B680F4A23F4802313600D4B5B68FE
:100380000C4A23F4FE0353600A4B1B68094A23F00E
:10039000A0531360074B4FF47F029A60054B002275
:1003A000DA6200F00DF8054B4FF000629A6000BF72
:1003B00080BD00BF001002400000FFF000ED00E033
:1003C00080B500AF00F002F800BF80BD80B483B0FC
:1003D00000AF00237B6000233B60474B1B68464A0D
:1003E00043F480331360444B1B6803F400333B60D9
:1003F0007B6801337B603B68002B03D17B68B3F5DE
:10040000A06FF0D13C4B1B6803F40033002B02D0EB
:1004100001233B6001E000233B603B68012B66D178
:10042000364B1B68354A43F010031360334B1B688F
:10043000324A23F003031360304B1B682F4A43F00A
:10044000020313602C4B2C4A5B6853602A4B2A4AE8
:100450005B685360284B5B68274A43F480635360B2
:10046000254BDA6A2449264B1340CB62224BDB6AC8
:10047000214A43F4833343F04403D3621E4B1B6889
:100480001D4A43F08063136000BF1B4B1B6803F0E1
:100490000063002BF9D0184B5B68174A23F47C13D8
:1004A0005360154B5B68144A43F4E8135360124BD6
:1004B0001B68114A43F08073136000BF0E4B1B682A
:1004C00003F00073002BF9D00B4B5B680A4A23F052
:1004D00003035360084B5B68074A43F00203536011
:1004E00000BF054B5B6803F00C03082BF9D100BF7C
:1004F0000C37BD4680BC704700100240002002400F
:1005000000F0FEFF80B489B000AF7860396000234E
:10051000FB6100233B610023BB610023FB600023E0
:100520007B610023BB603B68DB7803F00F03FB615A
:100530003B68DB7803F01003002B05D03B689B7809
:100540001A46FB691343FB613B681B88DBB2002B37
:1005500044D07B681B687B610023BB6138E00122CB
:10056000BB6902FA03F3FB603B681B881A46FB6811
:1005700013403B613A69FB689A4226D1BB699B00F4
:10058000FB600F22FB6802FA03F3BB60BB68DB432E
:100590007A6913407B61FA69FB6802FA03F37A69AE
:1005A00013437B613B68DB78282B05D10122BB69B3
:1005B0009A407B685A6108E03B68DB78482B04D19D
:1005C0000122BB699A407B681A61BB690133BB6138
:1005D000BB69072BC3D97B687A691A603B681B88A3
:1005E000FF2B46D97B685B687B610023BB613AE0E7
:1005F000BB690833012202FA03F3FB603B681B88E6
:100600001A46FB6813403B613A69FB689A4227D15E
:10061000BB699B00FB600F22FB6802FA03F3BB601F
:10062000BB68DB437A6913407B61FA69FB6802FAB5
:1006300003F37A6913437B613B68DB78282B05D190
:10064000BB69083301229A407B685A613B68DB78BA
:10065000482B05D1BB69083301229A407B681A6197
:10066000BB690133BB61BB69072BC1D97B687A6960
:100670005A6000BF2437BD4680BC704780B485B047
:1006800000AF78600B467B800023FB737B689A6821
:100690007B881340002B02D00123FB7301E0002371
:1006A000FB73FB7B18461437BD4680BC704780B493
:1006B00085B000AF78600B467B800023FB737B68BE
:1006C000DA687B881340002B02D00123FB7301E022
:1006D0000023FB73FB7B18461437BD4680BC704774
:1006E00080B483B000AF78600B467B807A887B68EB
:1006F0001A6100BF0C37BD4680BC704780B483B020
:1007000000AF78600B467B807A887B685A6100BFB7
:100710000C37BD4680BC704780B485B000AF03463F
:100720000A46FB711346BB710023FB60BB7903F0E3
:1007300003039B000F2202FA03F3FB60154ABB7907
:100740009B08DBB2023352F82320FB68DB431148DD
:10075000B9798908C9B21A408B1C40F823200D4A88
:10076000BB799B08DBB2023352F82320F979BB79BD
:1007700003F003039B0001FA03F30648B9798908E3
:10078000C9B21A438B1C40F8232000BF1437BD4662
:1007900080BC70470000014080B582B000AF786037
:1007A000396011E000BF8021786800F087FC0346C3
:1007B000002BF8D03B681B789BB21946786800F094
:1007C0006CFC3B6801333B603B681B78002BE9D134
:1007D00000BF4021786800F071FC0346002BF8D080
:1007E00000BF00BF0837BD4680BD000080B400AF29
:1007F000024B1B681846BD4680BC704714000020A1
:1008000080B500AF00F08EFC00F03EFDFFF7EEFF7C
:100810000346054A136000F0A5FC00F0E1FC00F07F
:10082000FDFC00F04BF8FCE71800002080B500AF9D
:10083000202000F027FB0346002B0AD0064B0122A4
:100840001A60FFF7D3FF0346044A1360202000F02C
:100850003DFB00BF80BD00BF20000020180000202D
:1008600080B500AF01214FF08040FFF731FD034616
:10087000002B1CD00F4B1B6801330E4A1360012163
:100880004FF08040FFF74DFD4FF400410A48FFF75D
:100890000EFF0346002B05D14FF400410648FFF739
:1008A0001FFF04E04FF400410348FFF727FF00BF9C
:1008B00080BD00BF14000020000C014080B500AFD7
:1008C0000D4B1B68012B15D1FFF790FF02460B4B18
:1008D0001B68D31A042B0DD9074B00221A60202164
:1008E0000748FFF7CBFE0346012B03D10549064815
:1008F000FFF752FF00BF80BD20000020180000203D
:1009000000100140C01300080038014080B400AF5F
:10091000184B1B68174A43F001031360154B5A68C4
:100920001449154B13404B60124B1B68114A23F0BE
:10093000847323F4803313600E4B1B680D4A23F439
:10094000802313600B4B5B680A4A23F4FE03536059
:10095000084B1B68074A23F0A0531360054B4FF464
:100960007F029A60034B0022DA6200BFBD4680BC62
:10097000704700BF001002400000FFF080B485B057
:1009800000AF78600023FB60094B5B68FB60FB688D
:1009900023F00303FB60FA687B681343FB60044A9F
:1009A000FB68536000BF1437BD4680BC704700BF72
:1009B0000010024080B400AF044B5B68DBB203F070
:1009C0000C03DBB21846BD4680BC704700100240E5
:1009D00080B485B000AF78600023FB60094B5B6892
:1009E000FB60FB6823F0F003FB60FA687B6813434D
:1009F000FB60044AFB68536000BF1437BD4680BCEF
:100A0000704700BF0010024080B485B000AF78602E
:100A10000023FB60094B5B68FB60FB6823F4E06329
:100A2000FB60FA687B681343FB60044AFB68536011
:100A300000BF1437BD4680BC704700BF00100240A5
:100A400080B485B000AF78600023FB60094B5B6821
:100A5000FB60FB6823F46053FB607B68DB00FA6893
:100A60001343FB60034AFB68536000BF1437BD4665
:100A700080BC70470010024080B48BB000AF78603B
:100A800000233B6200237B620023FB610023BB61E8
:100A900000237B6100233B610023FB600023BB60DC
:100AA000644B5B6803F00C033B623B6A082B11D07C
:100AB0003B6A082B64D83B6A002B03D03B6A042BAB
:100AC00004D05DE07B685C4A1A605DE07B685B4A4D
:100AD0001A6059E0574B5B6803F470137B62554B07
:100AE0005B6803F48033FB617B6A9B0C7B627B6AEF
:100AF0000D2B03D07B6A02337B6201E006237B620D
:100B0000FB69002B06D17B6A4D4A03FB02F27B682E
:100B10001A6039E0474BDB6A03F480337B61454B55
:100B2000DB6A03F00F0301333B617B69002B09D1C2
:100B3000424A3B69B2FBF3F37A6A03FB02F27B6839
:100B40001A6021E03B4BDB6A1B0903F00F03013302
:100B5000FB60384BDB6A1B0A03F00F030233BB60F8
:100B6000364AFB68B2FBF3F3BA6803FB02F23B6957
:100B7000B2FBF3F37A6A03FB02F27B681A6003E0CC
:100B80007B682D4A1A6000BF2A4B5B6803F0F003B4
:100B90003B623B6A1B093B622A4A3B6A13441B784F
:100BA000DBB2BB617B681A68BB69DA407B685A605C
:100BB000204B5B6803F4E0633B623B6A1B0A3B62C9
:100BC000204A3B6A13441B78DBB2BB617B685A68DE
:100BD000BB69DA407B689A60164B5B6803F460532C
:100BE0003B623B6ADB0A3B62164A3B6A13441B7852
:100BF000DBB2BB617B685A68BB69DA407B68DA604C
:100C00000C4B5B6803F440433B623B6A9B0B3B62CB
:100C10000D4A3B6A13441B78DBB2BB617B68DA6820
:100C2000BB69B2FBF3F27B681A6100BF2C37BD468B
:100C300080BC70470010024000127A0040787D01AD
:100C400000093D00000000201000002080B483B0A7
:100C500000AF78600B46FB70FB78002B06D0094B89
:100C60009A6908497B6813438B6106E0054B9A69D2
:100C70007B68DB43034913408B6100BF0C37BD46E3
:100C800080BC70470010024080B483B000AF786031
:100C90000B46FB70FB78002B06D0094BDA6908493C
:100CA0007B681343CB6106E0054BDA697B68DB4365
:100CB00003491340CB6100BF0C37BD4680BC704771
:100CC0000010024080B487B000AF0346FB710023E0
:100CD000FB6000237B610023FB74FB795B09DBB2C3
:100CE000FB60FB68012B03D1124B1B687B6109E0A1
:100CF000FB68022B03D10F4B1B6A7B6102E00D4B9B
:100D00005B6A7B61FB7903F01F03FB607A69FB6818
:100D100022FA03F303F00103002B02D00123FB743A
:100D200001E00023FB74FB7C18461C37BD4680BCE9
:100D3000704700BF0010024080B582B000AF114B79
:100D40007B60114B3B6007E07A68131D7B603B685A
:100D5000191D396012681A603B680C4A9342F3D33C
:100D60000B480C494FF000028842B8BF40F8042BF2
:100D7000FADBFFF7E7FAFFF743FD00BF0837BD4690
:100D800080BD00BFCF130008000000201400002029
:100D9000140000202400002080B400AFFEE7000013
:100DA00080B485B000AF78600023FB60344BFB60FB
:100DB0007B689B79002B4FD0314B1A687B681B688E
:100DC000DB432F4913400B602D4B5A687B681B682F
:100DD000DB432B4913404B607B681B791A46FB6849
:100DE0001344FB60FB6819687B681A68FB680A4358
:100DF0001A60234B9A687B681B68DB4320491340C9
:100E00008B601F4BDA687B681B68DB431C4913400F
:100E1000CB607B685B79102B0ED1194B9A687B688D
:100E20001B68174913438B60154BDA687B681B6896
:100E300013491343CB601DE0114BFB607B685B796A
:100E40001A46FB681344FB60FB6819687B681A68E4
:100E5000FB680A431A600DE07B681B791A46FB6841
:100E60001344FB60FB6819687B681B68DA43FB6806
:100E70000A401A6000BF1437BD4680BC704700BFEF
:100E80000004014080B485B000AF78600023FB739C
:100E90000023BB600C4B1B687A681340BB600A4B95
:100EA0005A697B681340002B05D0BB68002B02D029
:100EB0000123FB7301E00023FB73FB7B184614370F
:100EC000BD4680BC704700BF0004014080B483B0C1
:100ED00000AF7860034A7B68536100BF0C37BD46A2
:100EE00080BC70470004014080B58CB000AF7860D2
:100EF00039600023FB620023BB6200237B62002376
:100F00003B620023FB617B68FB617B681B8A9BB2B1
:100F1000FB62FA6A4CF6FF731340FB623B68DB88A6
:100F20001A46FB6A1343FB62FB6A9AB27B681A8219
:100F30007B689B899BB2FB62FA6A4EF6F3131340FF
:100F4000FB623B689A883B681B8913439AB23B68F3
:100F50005B8913439BB21A46FB6A1343FB62FB6A2D
:100F60009AB27B689A817B689B8A9BB2FB62FA6A21
:100F70004FF6FF431340FB623B689B891A46FB6AAE
:100F80001343FB62FB6A9AB27B689A8207F10803FB
:100F90001846FFF771FDFB692E4A934202D17B6927
:100FA000BB6201E03B69BB627B689B899BB21BB261
:100FB000002B0CDABA6A13469B0013449A001A44B9
:100FC0003B681B685B00B2FBF3F37B620BE0BA6A21
:100FD00013469B0013449A001A443B681B689B000D
:100FE000B2FBF3F37B627B6A1B4AA2FB03235B0920
:100FF0001B01FB62FB6A1B09642202FB03F37A6A92
:10100000D31A3B627B689B899BB21BB2002B0CDA24
:101010003B6ADB003233104AA2FB03235B0903F077
:101020000703FA6A1343FB620BE03B6A1B0132338E
:10103000094AA2FB03235B0903F00F03FA6A134377
:10104000FB62FB6A9AB27B681A8100BF3037BD46EB
:1010500080BD00BF003801401F85EB5180B483B0D4
:1010600000AF78600B46FB70FB78002B08D07B68E4
:101070009B899BB243F400539AB27B689A8107E044
:101080007B689B899BB223F400539AB27B689A8158
:1010900000BF0C37BD4680BC704780B483B000AF42
:1010A00078600B467B807B88C3F308039AB27B6829
:1010B0009A8000BF0C37BD4680BC704780B485B0B5
:1010C00000AF78600B467B800023FB737B681B8836
:1010D0009AB27B8813409BB2002B02D00123FB7392
:1010E00001E00023FB73FB7B18461437BD4680BC30
:1010F0007047000080B483B000AF0346FB71FB79FA
:1011000003F01F03012202FA03F1054A97F90730A1
:101110005B0942F8231000BF0C37BD4680BC704706
:1011200000E100E080B500AFFFF7F0FB00BF212039
:10113000FFF7C8FD0346002BF9D00020FFF71EFC87
:1011400000BFFFF737FC0346002BFAD10020FFF762
:101150003FFC0020FFF758FC0020FFF771FC00BFA8
:1011600080BD000080B586B000AF012144F20400CC
:10117000FFF76CFD4FF48063BB820423FB7507F11E
:10118000140319461448FFF7BDF94FF40073BB82EE
:101190000323BB751823FB7507F1140319460E488A
:1011A000FFF7B0F94FF496437B6000233B810023A7
:1011B0007B810023BB8100233B820C23FB813B1DF1
:1011C00019460648FFF790FE01210448FFF746FF45
:1011D00000BF1837BD4680BD0008014000380140FF
:1011E00080B582B000AF01210820FFF72FFD4FF43A
:1011F0000043BB801023FB710223BB713B1D1946CA
:101200000548FFF77FF94FF400410348FFF776FAEE
:1012100000BF0837BD4680BD000C014080B584B0DA
:1012200000AF01211120FFF711FD2023BB812823EE
:10123000FB730323BB7307F10C0319461148FFF737
:1012400061F905210220FFF767FA20237B60002364
:101250003B720C237B720123BB723B1D1846FFF7C8
:101260009FFD17233B7001237B700123BB7001237B
:10127000FB703B46184600F041F800BF1037BD46F2
:1012800080BD00BF0010014080B584B000AF0121D7
:101290000120FFF7F9FC3B1D00221A605A601A81F9
:1012A00040F21F33BB8040F2E7333B810023FB80D9
:1012B0003B1D19464FF08040FEF74CFF01220121F3
:1012C0004FF08040FEF7E1FF00233B601C233B70A2
:1012D00000237B700023BB700123FB703B46184644
:1012E00000F00CF81C20FFF705FF01214FF08040B3
:1012F000FEF7ACFF00BF1037BD4680BD80B487B09D
:1013000000AF786000237B6100233B610F23FB600B
:101310007B68DB78002B3AD0274BDB68DB431B0A6A
:1013200003F007037B617B69C3F104033B61FA6847
:101330007B6922FA03F3FB607B685B781A463B69A2
:1013400002FA03F37B617B689B781A46FB681340C3
:101350007A6913437B617B691B017B61174A7B6858
:101360001B787969C9B213440A4683F800237B6865
:101370001B7803F01F0311497A6812785209D2B220
:101380001046012202FA03F341F820300FE07B6897
:101390001B7803F01F0309497A6812785209D2B208
:1013A000104601229A4000F1200341F8232000BF9B
:1013B0001C37BD4680BC704700ED00E000E100E056
:0F13C00053696D6F6E6F762045676F720D0A006F
:1013CF0000000000010203040102030406070809DC
:0413DF0002040608F6
:0400000508000000EF
:00000001FF
