:020000040800F2
:100000001804002045080008A5080008A5080008F5
:10001000A5080008A5080008A508000800000000C1
:10002000000000000000000000000000A50800081B
:10003000A508000800000000A5080008A5080008A1
:10004000A5080008A5080008A5080008A5080008DC
:10005000A5080008A5080008A5080008A5080008CC
:10006000A5080008A5080008A5080008A5080008BC
:10007000A5080008A5080008A5080008A5080008AC
:10008000A5080008A5080008A5080008A50800089C
:10009000A5080008A5080008A5080008A50800088C
:1000A000A5080008A5080008A5080008A50800087C
:1000B000A5080008A5080008A5080008A50800086C
:1000C000A5080008A5080008A5080008A50800085C
:1000D000A5080008A5080008A5080008A50800084C
:1000E000A5080008A5080008A508000800000000F1
:1000F0000000000000000000000000000000000000
:100100000000000000000000A5080008A508000885
:10011000A5080008A5080008A5080008A50800080B
:10012000A5080008A5080008A5080008A5080008FB
:10013000A5080008A5080008A5080008A5080008EB
:10014000A5080008A5080008A5080008A5080008DB
:100150005FF808F180B500AF1A4B1B68194A43F0ED
:1001600001031360174B5A681649174B13404B6035
:10017000144B1B68134A23F0847323F480331360F9
:10018000104B1B680F4A23F4802313600D4B5B68F0
:100190000C4A23F4FE0353600A4B1B68094A23F000
:1001A000A0531360074B4FF47F029A60054B002267
:1001B000DA6200F00DF8054B4FF000629A6000BF64
:1001C00080BD00BF001002400000FFF000ED00E025
:1001D00080B500AF00F002F800BF80BD80B483B0EE
:1001E00000AF00237B6000233B60474B1B68464AFF
:1001F00043F480331360444B1B6803F400333B60CB
:100200007B6801337B603B68002B03D17B68B3F5CF
:10021000A06FF0D13C4B1B6803F40033002B02D0DD
:1002200001233B6001E000233B603B68012B66D16A
:10023000364B1B68354A43F010031360334B1B6881
:10024000324A23F003031360304B1B682F4A43F0FC
:10025000020313602C4B2C4A5B6853602A4B2A4ADA
:100260005B685360284B5B68274A43F480635360A4
:10027000254BDA6A2449264B1340CB62224BDB6ABA
:10028000214A43F4833343F04403D3621E4B1B687B
:100290001D4A43F08063136000BF1B4B1B6803F0D3
:1002A0000063002BF9D0184B5B68174A23F47C13CA
:1002B0005360154B5B68144A43F4E8135360124BC8
:1002C0001B68114A43F08073136000BF0E4B1B681C
:1002D00003F00073002BF9D00B4B5B680A4A23F044
:1002E00003035360084B5B68074A43F00203536003
:1002F00000BF054B5B6803F00C03082BF9D100BF6E
:100300000C37BD4680BC7047001002400020024000
:1003100000F0FEFF80B489B000AF78603960002340
:10032000FB6100233B610023BB610023FB600023D2
:100330007B610023BB603B68DB7803F00F03FB614C
:100340003B68DB7803F01003002B05D03B689B78FB
:100350001A46FB691343FB613B681B88DBB2002B29
:1003600044D07B681B687B610023BB6138E00122BD
:10037000BB6902FA03F3FB603B681B881A46FB6803
:1003800013403B613A69FB689A4226D1BB699B00E6
:10039000FB600F22FB6802FA03F3BB60BB68DB4320
:1003A0007A6913407B61FA69FB6802FA03F37A69A0
:1003B00013437B613B68DB78282B05D10122BB69A5
:1003C0009A407B685A6108E03B68DB78482B04D18F
:1003D0000122BB699A407B681A61BB690133BB612A
:1003E000BB69072BC3D97B687A691A603B681B8895
:1003F000FF2B46D97B685B687B610023BB613AE0D9
:10040000BB690833012202FA03F3FB603B681B88D7
:100410001A46FB6813403B613A69FB689A4227D150
:10042000BB699B00FB600F22FB6802FA03F3BB6011
:10043000BB68DB437A6913407B61FA69FB6802FAA7
:1004400003F37A6913437B613B68DB78282B05D182
:10045000BB69083301229A407B685A613B68DB78AC
:10046000482B05D1BB69083301229A407B681A6189
:10047000BB690133BB61BB69072BC1D97B687A6952
:100480005A6000BF2437BD4680BC704780B483B03B
:1004900000AF78600B467B807A887B681A6100BF6A
:1004A0000C37BD4680BC704780B483B000AF786025
:1004B0000B467B807A887B685A6100BF0C37BD464B
:1004C00080BC704780B500AF00F016F800F01EF851
:1004D00000F040F84FF400510548FFF7E5FF0548EC
:1004E00000F058F84FF47A7000F08AF8F7E700BF90
:1004F00000100140B80A000880B500AF012144F2A5
:10050000140000F081F900BF80BD000080B582B00A
:1005100000AF4FF40073BB801823FB710323BB7142
:100520003B1D19460948FFF7F5FE4FF40053BB8009
:100530001023FB710323BB713B1D19460448FFF7D1
:10054000E9FE00BF0837BD4680BD00BF000801407E
:100550000010014080B584B000AF4FF416533B60EB
:100560000023BB800023FB8000233B810023BB8151
:1005700008237B813B461946054800F097F9012185
:10058000034800F04DFA00BF1037BD4680BD00BFE4
:100590000038014080B582B000AF78604FF4005160
:1005A0001548FFF773FF11E000BF8021134800F0EA
:1005B00067FA0346002BF8D07B681B789BB219467C
:1005C0000E4800F04CFA7B6801337B607B681B7837
:1005D000002BE9D100BF4021084800F051FA034642
:1005E000002BF8D04FF400510348FFF75DFF00BF28
:1005F0000837BD4680BD00BF0010014000380140F3
:1006000080B485B000AF786009E00023FB6002E0B1
:10061000FB680133FB60FB68B3F5FA5FF8D37B68D6
:100620005A1E7A60002BF0D100BF00BF1437BD46C0
:1006300080BC704780B48BB000AF786000233B6211
:1006400000237B620023FB610023BB6100237B61ED
:1006500000233B610023FB600023BB60644B5B68AD
:1006600003F00C033B623B6A082B11D03B6A082B5A
:1006700064D83B6A002B03D03B6A042B04D05DE0B6
:100680007B685C4A1A605DE07B685B4A1A6059E0EF
:10069000574B5B6803F470137B62554B5B6803F444
:1006A0008033FB617B6A9B0C7B627B6A0D2B03D0E2
:1006B0007B6A02337B6201E006237B62FB69002BCD
:1006C00006D17B6A4D4A03FB02F27B681A6039E06F
:1006D000474BDB6A03F480337B61454BDB6A03F0F5
:1006E0000F0301333B617B69002B09D1424A3B690F
:1006F000B2FBF3F37A6A03FB02F27B681A6021E033
:100700003B4BDB6A1B0903F00F030133FB60384BE3
:10071000DB6A1B0A03F00F030233BB60364AFB6837
:10072000B2FBF3F3BA6803FB02F23B69B2FBF3F3EB
:100730007A6A03FB02F27B681A6003E07B682D4A49
:100740001A6000BF2A4B5B6803F0F0033B623B6A10
:100750001B093B622A4A3B6A13441B78DBB2BB612C
:100760007B681A68BB69DA407B685A60204B5B681B
:1007700003F4E0633B623B6A1B0A3B62204A3B6A2C
:1007800013441B78DBB2BB617B685A68BB69DA40F3
:100790007B689A60164B5B6803F460533B623B6A6C
:1007A000DB0A3B62164A3B6A13441B78DBB2BB612F
:1007B0007B685A68BB69DA407B68DA600C4B5B681F
:1007C00003F440433B623B6A9B0B3B620D4A3B6A2E
:1007D00013441B78DBB2BB617B68DA68BB69B2FB90
:1007E000F3F27B681A6100BF2C37BD4680BC7047AE
:1007F0000010024000127A0040787D0100093D009F
:10080000000000201000002080B483B000AF7860AA
:100810000B46FB70FB78002B06D0094B9A69084900
:100820007B6813438B6106E0054B9A697B68DB4369
:10083000034913408B6100BF0C37BD4680BC704735
:100840000010024080B582B000AF114B7B60114BAD
:100850003B6007E07A68131D7B603B68191D3960B7
:1008600012681A603B680C4A9342F3D30B480C4958
:100870004FF000028842B8BF40F8042BFADBFFF7C4
:1008800069FCFFF71FFE00BF0837BD4680BD00BFF3
:10089000C20A0008000000201400002014000020FC
:1008A0001400002080B400AFFEE7000080B58CB0DB
:1008B00000AF786039600023FB620023BB62002335
:1008C0007B6200233B620023FB617B68FB617B68EA
:1008D0001B8A9BB2FB62FA6A4CF6FF731340FB6201
:1008E0003B68DB881A46FB6A1343FB62FB6A9AB2D9
:1008F0007B681A827B689B899BB2FB62FA6A4EF620
:10090000F3131340FB623B689A883B681B891343CF
:100910009AB23B685B8913439BB21A46FB6A134346
:10092000FB62FB6A9AB27B689A817B689B8A9BB266
:10093000FB62FA6A4FF6FF431340FB623B689B89F8
:100940001A46FB6A1343FB62FB6A9AB27B689A827F
:1009500007F108031846FFF76DFEFB692E4A934224
:1009600002D17B69BB6201E03B69BB627B689B890A
:100970009BB21BB2002B0CDABA6A13469B001344DD
:100980009A001A443B681B685B00B2FBF3F37B627E
:100990000BE0BA6A13469B0013449A001A443B6862
:1009A0001B689B00B2FBF3F37B627B6A1B4AA2FBD2
:1009B00003235B091B01FB62FB6A1B09642202FB28
:1009C00003F37A6AD31A3B627B689B899BB21BB2A2
:1009D000002B0CDA3B6ADB003233104AA2FB032304
:1009E0005B0903F00703FA6A1343FB620BE03B6AFF
:1009F0001B013233094AA2FB03235B0903F00F03F7
:100A0000FA6A1343FB62FB6A9AB27B681A8100BFE1
:100A10003037BD4680BD00BF003801401F85EB5117
:100A200080B483B000AF78600B46FB70FB78002B7E
:100A300008D07B689B899BB243F400539AB27B68D1
:100A40009A8107E07B689B899BB223F400539AB29A
:100A50007B689A8100BF0C37BD4680BC704780B46C
:100A600083B000AF78600B467B807B88C3F30803BC
:100A70009AB27B689A8000BF0C37BD4680BC704735
:100A800080B485B000AF78600B467B800023FB7399
:100A90007B681B889AB27B8813409BB2002B02D0E4
:100AA0000123FB7301E00023FB73FB7B1846143723
:100AB000BD4680BC70470000507573686B696E0D51
:020AC0000A002A
:100AC20000000000010203040102030406070809F2
:040AD200020406080C
:0400000508000000EF
:00000001FF
