:020000040800F2
:1000000018040020590B0008B90B0008B90B0008B0
:10001000B90B0008B90B0008B90B0008000000007C
:10002000000000000000000000000000B90B000804
:10003000B90B000800000000B90B0008B90B00085C
:10004000B90B0008B90B0008B90B0008B90B000880
:10005000B90B0008B90B0008B90B0008B90B000870
:10006000B90B0008B90B0008B90B0008B90B000860
:10007000B90B0008B90B0008B90B0008B90B000850
:10008000B90B0008B90B0008B90B0008B90B000840
:10009000B90B0008B90B0008B90B0008B90B000830
:1000A000B90B0008B90B0008B90B0008B90B000820
:1000B000B90B0008B90B0008B90B0008B90B000810
:1000C000B90B0008B90B0008B90B0008B90B000800
:1000D000B90B0008B90B0008B90B0008B90B0008F0
:1000E000B90B0008B90B0008B90B000800000000AC
:1000F0000000000000000000000000000000000000
:100100000000000000000000B90B0008B90B000857
:10011000B90B0008B90B0008B90B0008B90B0008AF
:10012000B90B0008B90B0008B90B0008B90B00089F
:10013000B90B0008B90B0008B90B0008B90B00088F
:10014000B90B0008B90B0008B90B0008B90B00087F
:100150005FF808F180B485B000AF786039600023A3
:10016000FB817B681B88FB817B682E4A934213D0FE
:100170007B682D4A93420FD07B68B3F1804F0BD040
:100180007B682A4A934207D07B68294A934203D06E
:100190007B68284A934208D1FB8923F07003FB81D6
:1001A0003B685A88FB891343FB817B68224A934250
:1001B0000CD07B68214A934208D0FB8923F440731A
:1001C000FB813B68DA88FB891343FB817B68FA89F2
:1001D0001A803B689A887B689A853B681A887B6896
:1001E0001A857B680F4A93420FD07B680E4A934270
:1001F0000BD07B68124A934207D07B68114A934226
:1002000003D07B68104A934204D13B681B7A9AB2B0
:100210007B681A867B6801229A8200BF1437BD462C
:1002200080BC7047002C01400034014000040040B5
:1002300000080040000C0040001000400014004086
:1002400000400140004401400048014080B483B0B8
:1002500000AF78600B46FB70FB78002B08D07B6802
:100260001B889BB243F001039AB27B681A8007E0B7
:100270007B681B889BB223F001039AB27B681A80CB
:1002800000BF0C37BD4680BC704780B485B000AF5E
:1002900078600B467B800023FB737B681B8A9AB2D5
:1002A0007B8813409BB2002B02D00123FB7301E03B
:1002B0000023FB73FB7B18461437BD4680BC704798
:1002C00080B483B000AF78600B467B807B88DB43D3
:1002D0009AB27B681A8200BF0C37BD4680BC70475B
:1002E00080B500AF1A4B1B68194A43F00103136035
:1002F000174B5A681649174B13404B60144B1B6839
:10030000134A23F0847323F480331360104B1B686B
:100310000F4A23F4802313600D4B5B680C4A23F4CF
:10032000FE0353600A4B1B68094A23F0A053136075
:10033000074B4FF47F029A60054B0022DA6200F00F
:100340000DF8054B4FF000629A6000BF80BD00BF02
:10035000001002400000FFF000ED00E080B500AFAB
:1003600000F002F800BF80BD80B483B000AF00236E
:100370007B6000233B60474B1B68464A43F4803355
:100380001360444B1B6803F400333B607B6801330C
:100390007B603B68002B03D17B68B3F5A06FF0D185
:1003A0003C4B1B6803F40033002B02D001233B605D
:1003B00001E000233B603B68012B66D1364B1B6894
:1003C000354A43F010031360334B1B68324A23F065
:1003D00003031360304B1B682F4A43F00203136082
:1003E0002C4B2C4A5B6853602A4B2A4A5B6853604B
:1003F000284B5B68274A43F480635360254BDA6AD5
:100400002449264B1340CB62224BDB6A214A43F43A
:10041000833343F04403D3621E4B1B681D4A43F0F1
:100420008063136000BF1B4B1B6803F00063002B4D
:10043000F9D0184B5B68174A23F47C135360154BB3
:100440005B68144A43F4E8135360124B1B68114A6B
:1004500043F08073136000BF0E4B1B6803F0007302
:10046000002BF9D00B4B5B680A4A23F0030353605F
:10047000084B5B68074A43F00203536000BF054B1B
:100480005B6803F00C03082BF9D100BF0C37BD46A5
:1004900080BC7047001002400020024000F0FEFFC8
:1004A00080B489B000AF786039600023FB6100231D
:1004B0003B610023BB610023FB6000237B610023C1
:1004C000BB603B68DB7803F00F03FB613B68DB78C4
:1004D00003F01003002B05D03B689B781A46FB699C
:1004E0001343FB613B681B88DBB2002B44D07B6865
:1004F0001B687B610023BB6138E00122BB6902FA03
:1005000003F3FB603B681B881A46FB6813403B61A2
:100510003A69FB689A4226D1BB699B00FB600F22B7
:10052000FB6802FA03F3BB60BB68DB437A691340E4
:100530007B61FA69FB6802FA03F37A6913437B6112
:100540003B68DB78282B05D10122BB699A407B6888
:100550005A6108E03B68DB78482B04D10122BB6973
:100560009A407B681A61BB690133BB61BB69072B89
:10057000C3D97B687A691A603B681B88FF2B46D910
:100580007B685B687B610023BB613AE0BB69083331
:10059000012202FA03F3FB603B681B881A46FB68E2
:1005A00013403B613A69FB689A4227D1BB699B00C3
:1005B000FB600F22FB6802FA03F3BB60BB68DB43FE
:1005C0007A6913407B61FA69FB6802FA03F37A697E
:1005D00013437B613B68DB78282B05D1BB6908336B
:1005E00001229A407B685A613B68DB78482B05D131
:1005F000BB69083301229A407B681A61BB690133E9
:10060000BB61BB69072BC1D97B687A695A6000BF9F
:100610002437BD4680BC704780B485B000AF786099
:100620000B467B800023FB737B68DA687B88134072
:10063000002B02D00123FB7301E00023FB73FB7B43
:1006400018461437BD4680BC704780B483B000AFF5
:1006500078600B467B807A887B681A6100BF0C3714
:10066000BD4680BC704780B483B000AF78600B4655
:100670007B807A887B685A6100BF0C37BD4680BC9E
:100680007047000080B582B000AF00F0B5F84FF4BD
:10069000803000F0E9F800F015F90346FB71FB79B2
:1006A000012B29D1022000F08BFA102000F0A4FACF
:1006B000002000F087F94FF4806000F09FF90020DF
:1006C00000F0B8F94FF4E0114FF4803000F022F957
:1006D000012000F03DF900BF392000F003FA034685
:1006E000002BF9D0022000F043F900BF00F05CF9C4
:1006F0000346082BFAD100E0FEE7034B034A1A60D9
:1007000000BF0837BD4680BD0000002000A24A049B
:1007100080B584B000AF3B1D00221A605A601A8178
:100720000121012000F0C0F941F61F43BB800023E6
:10073000FB8042F20F733B813B1D19464FF0804016
:10074000FFF708FD01214FF08040FFF7B9FD0121BF
:100750004FF08040FFF77AFD00BF1037BD4680BDE7
:1007600080B582B000AF00237B600121082000F03B
:100770007DF94FF40043BB801023FB710223BB7152
:100780003B1D19460548FFF78BFE4FF40041034817
:10079000FFF769FF00BF0837BD4680BD000C014070
:1007A00080B500AFFFF76EFFFFF7B2FFFFF7D8FF8E
:1007B00001214FF08040FFF768FD0346002BF7D082
:1007C00001214FF08040FFF77BFD4FF400410948C5
:1007D000FFF722FF0346002B05D14FF400410548E7
:1007E000FFF733FFE4E74FF400410248FFF73BFF18
:1007F000DEE700BF000C014080B400AF184B1B685F
:10080000174A43F001031360154B5A681449154BFE
:1008100013404B60124B1B68114A23F0847323F47E
:10082000803313600E4B1B680D4A23F48023136042
:100830000B4B5B680A4A23F4FE035360084B1B68AA
:10084000074A23F0A0531360054B4FF47F029A60D0
:10085000034B0022DA6200BFBD4680BC704700BF78
:10086000001002400000FFF080B483B000AF786059
:10087000134B1B68124A23F480331360104B1B6820
:100880000F4A23F4802313607B68B3F5803F04D0C4
:100890007B68B3F5802F07D00DE0094B1B68084A31
:1008A00043F48033136006E0054B1B68044A43F4AD
:1008B000A023136000BF00BF0C37BD4680BC70474B
:1008C0000010024080B582B000AF00233B600023DF
:1008D000FB710023BB71312000F004F90346BB71AA
:1008E0003B6801333B603B68B3F5A06F02D0BB7936
:1008F000002BF0D0312000F0F5F80346002B02D099
:100900000123FB7101E00023FB71FB7918460837D6
:10091000BD4680BD80B485B000AF786039600023EB
:10092000FB600A4B5B68FB60FB6823F47413FB609D
:100930007A683B681343FA681343FB60034AFB6819
:10094000536000BF1437BD4680BC704700100240A2
:1009500080B483B000AF0346FB71044AFB79136097
:1009600000BF0C37BD4680BC704700BF60004242EC
:1009700080B485B000AF78600023FB60094B5B68F2
:10098000FB60FB6823F00303FB60FA687B6813439A
:10099000FB60044AFB68536000BF1437BD4680BC4F
:1009A000704700BF0010024080B400AF044B5B688A
:1009B000DBB203F00C03DBB21846BD4680BC7047C7
:1009C0000010024080B485B000AF78600023FB6067
:1009D000094B5B68FB60FB6823F0F003FB60FA687F
:1009E0007B681343FB60044AFB68536000BF143705
:1009F000BD4680BC704700BF0010024080B485B087
:100A000000AF78600023FB60094B5B68FB60FB680C
:100A100023F4E063FB60FA687B681343FB60044ADD
:100A2000FB68536000BF1437BD4680BC704700BFF1
:100A30000010024080B485B000AF78600023FB60F6
:100A4000094B5B68FB60FB6823F46053FB607B68C9
:100A5000DB00FA681343FB60034AFB68536000BF86
:100A60001437BD4680BC70470010024080B483B08C
:100A700000AF78600B46FB70FB78002B06D0094B6B
:100A80009A6908497B6813438B6106E0054B9A69B4
:100A90007B68DB43034913408B6100BF0C37BD46C5
:100AA00080BC70470010024080B483B000AF786013
:100AB0000B46FB70FB78002B06D0094BDA6908491E
:100AC0007B681343CB6106E0054BDA697B68DB4347
:100AD00003491340CB6100BF0C37BD4680BC704753
:100AE0000010024080B487B000AF0346FB710023C2
:100AF000FB6000237B610023FB74FB795B09DBB2A5
:100B0000FB60FB68012B03D1124B1B687B6109E082
:100B1000FB68022B03D10F4B1B6A7B6102E00D4B7C
:100B20005B6A7B61FB7903F01F03FB607A69FB68FA
:100B300022FA03F303F00103002B02D00123FB741C
:100B400001E00023FB74FB7C18461C37BD4680BCCB
:100B5000704700BF0010024080B582B000AF114B5B
:100B60007B60114B3B6007E07A68131D7B603B683C
:100B7000191D396012681A603B680C4A9342F3D31E
:100B80000B480C494FF000028842B8BF40F8042BD4
:100B9000FADBFFF7A5FBFFF703FE00BF0837BD46F2
:100BA00080BD00BF280C00080000002014000020B9
:100BB000140000201400002080B400AFFEE7000005
:100BC00080B485B000AF78600023FB60094B1B68E0
:100BD000FB60FB6803F03803FB60FA687B68134333
:100BE000FB60044AFB68136000BF1437BD4680BC3D
:100BF000704700BF0020024080B483B000AF78602F
:100C0000084B1B68074A23F010031360054B1A6852
:100C100004497B6813430B6000BF0C37BD4680BCA2
:080C2000704700BF00200240F4
:100C280000A24A04000000000000000001020304C2
:040C3800060708099A
:0400000508000000EF
:00000001FF
