:020000040800F2
:1000000070090020E516000845170008451700088C
:1000100045170008451700084517000800000000B4
:10002000000000000000000000000000451700086C
:100030004517000800000000451700084517000894
:100040004517000845170008451700084517000820
:100050004517000845170008451700084517000810
:100060004517000845170008451700084517000800
:100070004517000845170008550C000845170008EB
:1000800045170008451700084517000845170008E0
:10009000451700084517000845170008A50D00087A
:1000A00045170008451700084517000845170008C0
:1000B000D90D000845170008451700084517000826
:1000C00045170008451700084517000845170008A0
:1000D0004517000845170008451700084517000890
:1000E00045170008451700084517000800000000E4
:1000F0000000000000000000000000000000000000
:100100000000000000000000451700084517000827
:10011000451700084517000845170008451700084F
:10012000451700084517000845170008451700083F
:10013000451700084517000845170008451700082F
:10014000451700084517000845170008451700081F
:100150005FF808F180B485B000AF786039600023A3
:10016000FB817B681B88FB817B682E4A934213D0FE
:100170007B682D4A93420FD07B68B3F1804F0BD040
:100180007B682A4A934207D07B68294A934203D06E
:100190007B68284A934208D1FB8923F07003FB81D6
:1001A0003B685A88FB891343FB817B68224A934250
:1001B0000CD07B68214A934208D0FB8923F440731A
:1001C000FB813B68DA88FB891343FB817B68FA89F2
:1001D0001A803B689A887B689A853B681A887B6896
:1001E0001A857B680F4A93420FD07B680E4A934270
:1001F0000BD07B68124A934207D07B68114A934226
:1002000003D07B68104A934204D13B681B7A9AB2B0
:100210007B681A867B6801229A8200BF1437BD462C
:1002200080BC7047002C01400034014000040040B5
:1002300000080040000C0040001000400014004086
:1002400000400140004401400048014080B483B0B8
:1002500000AF78600B46FB70FB78002B08D07B6802
:100260001B889BB243F001039AB27B681A8007E0B7
:100270007B681B889BB223F001039AB27B681A80CB
:1002800000BF0C37BD4680BC704780B483B000AF60
:1002900078600B467B8013467B707B78002B08D000
:1002A0007B689B899AB27B8813439AB27B689A8158
:1002B00009E07B689B899AB27B88DB439BB2134041
:1002C0009AB27B689A8100BF0C37BD4680BC7047EC
:1002D00080B485B000AF78600B467B800023FB7351
:1002E0000023BB8100237B817B681B8A9AB27B88B9
:1002F0001340BB817B689B899AB27B8813407B81CA
:10030000BB89002B05D07B89002B02D00123FB7316
:1003100001E00023FB73FB7B18461437BD4680BC0D
:10032000704780B483B000AF78600B467B807B88D9
:10033000DB439AB27B681A8200BF0C37BD4680BC93
:100340007047000080B500AF1A4B1B68194A43F094
:1003500001031360174B5A681649174B13404B6043
:10036000144B1B68134A23F0847323F48033136007
:10037000104B1B680F4A23F4802313600D4B5B68FE
:100380000C4A23F4FE0353600A4B1B68094A23F00E
:10039000A0531360074B4FF47F029A60054B002275
:1003A000DA6200F00DF8054B4FF000629A6000BF72
:1003B00080BD00BF001002400000FFF000ED00E033
:1003C00080B500AF00F002F800BF80BD80B483B0FC
:1003D00000AF00237B6000233B60474B1B68464A0D
:1003E00043F480331360444B1B6803F400333B60D9
:1003F0007B6801337B603B68002B03D17B68B3F5DE
:10040000A06FF0D13C4B1B6803F40033002B02D0EB
:1004100001233B6001E000233B603B68012B66D178
:10042000364B1B68354A43F010031360334B1B688F
:10043000324A23F003031360304B1B682F4A43F00A
:10044000020313602C4B2C4A5B6853602A4B2A4AE8
:100450005B685360284B5B68274A43F480635360B2
:10046000254BDA6A2449264B1340CB62224BDB6AC8
:10047000214A43F4833343F04403D3621E4B1B6889
:100480001D4A43F08063136000BF1B4B1B6803F0E1
:100490000063002BF9D0184B5B68174A23F47C13D8
:1004A0005360154B5B68144A43F4E8135360124BD6
:1004B0001B68114A43F08073136000BF0E4B1B682A
:1004C00003F00073002BF9D00B4B5B680A4A23F052
:1004D00003035360084B5B68074A43F00203536011
:1004E00000BF054B5B6803F00C03082BF9D100BF7C
:1004F0000C37BD4680BC704700100240002002400F
:1005000000F0FEFF80B489B000AF7860396000234E
:10051000FB6100233B610023BB610023FB600023E0
:100520007B610023BB603B68DB7803F00F03FB615A
:100530003B68DB7803F01003002B05D03B689B7809
:100540001A46FB691343FB613B681B88DBB2002B37
:1005500044D07B681B687B610023BB6138E00122CB
:10056000BB6902FA03F3FB603B681B881A46FB6811
:1005700013403B613A69FB689A4226D1BB699B00F4
:10058000FB600F22FB6802FA03F3BB60BB68DB432E
:100590007A6913407B61FA69FB6802FA03F37A69AE
:1005A00013437B613B68DB78282B05D10122BB69B3
:1005B0009A407B685A6108E03B68DB78482B04D19D
:1005C0000122BB699A407B681A61BB690133BB6138
:1005D000BB69072BC3D97B687A691A603B681B88A3
:1005E000FF2B46D97B685B687B610023BB613AE0E7
:1005F000BB690833012202FA03F3FB603B681B88E6
:100600001A46FB6813403B613A69FB689A4227D15E
:10061000BB699B00FB600F22FB6802FA03F3BB601F
:10062000BB68DB437A6913407B61FA69FB6802FAB5
:1006300003F37A6913437B613B68DB78282B05D190
:10064000BB69083301229A407B685A613B68DB78BA
:10065000482B05D1BB69083301229A407B681A6197
:10066000BB690133BB61BB69072BC1D97B687A6960
:100670005A6000BF2437BD4680BC704780B485B047
:1006800000AF78600B467B800023FB737B689A6821
:100690007B881340002B02D00123FB7301E0002371
:1006A000FB73FB7B18461437BD4680BC704780B493
:1006B00085B000AF78600B467B800023FB737B68BE
:1006C000DA687B881340002B02D00123FB7301E022
:1006D0000023FB73FB7B18461437BD4680BC704774
:1006E00080B483B000AF78600B467B807A887B68EB
:1006F0001A6100BF0C37BD4680BC704780B483B020
:1007000000AF78600B467B807A887B685A6100BFB7
:100710000C37BD4680BC704780B485B000AF03463F
:100720000A46FB711346BB710023FB60BB7903F0E3
:1007300003039B000F2202FA03F3FB60154ABB7907
:100740009B08DBB2023352F82320FB68DB431148DD
:10075000B9798908C9B21A408B1C40F823200D4A88
:10076000BB799B08DBB2023352F82320F979BB79BD
:1007700003F003039B0001FA03F30648B9798908E3
:10078000C9B21A438B1C40F8232000BF1437BD4662
:1007900080BC70470000014080B483B000AF0346C6
:1007A000FB71FB7903F01F03012202FA03F1054AF2
:1007B00097F907305B0942F8231000BF0C37BD469C
:1007C00080BC704700E100E080B582B000AF00F06F
:1007D000D3FC4FF4803000F007FD00F033FD0346FA
:1007E000FB71FB79012B29D1022001F07BF910204C
:1007F00001F094F9002000F0A5FD4FF4806000F0B6
:10080000BDFD002000F0D6FD4FF4E0114FF4803024
:1008100000F040FD012000F05BFD00BF392000F03A
:1008200027FF0346002BF9D0022000F061FD00BF36
:1008300000F07AFD0346082BFAD100E0FEE7034BF7
:10084000034A1A6000BF0837BD4680BD0000002083
:1008500000A24A0480B592B000AF012144F2040026
:1008600000F0CAFE0121012000F0A8FE4FF48063D1
:10087000A7F84430042387F8473007F144031946AA
:100880004C48FFF73FFE4FF40073A7F844300323B2
:1008900087F84630182387F8473007F14403194694
:1008A0004448FFF72FFE4FF496437B6300233B87BA
:1008B00000237B870023BB870023A7F840300C234D
:1008C000FB8707F1340319463B4800F0E3FF0122A0
:1008D0004021394801F0B7F801228021364801F063
:1008E000B2F80121344801F08FF8344801F02EF9B4
:1008F000334BBB60334BFB6000233B6140237B6188
:100900000023BB618023FB6100233B6200237B62E9
:100910002023BB624FF40053FB6200233B6307F1CB
:1009200008031946254801F0CDF901220221234888
:1009300001F022FA0121214801F002FA224801F0D7
:1009400005F91F4BBB60214BFB6010233B6100236B
:100950007B610023BB618023FB6100233B6200239A
:100960007B620023BB624FF40053FB6200233B63B6
:1009700007F108031946144801F0A4F901220221E5
:10098000114801F0F9F90F233B7101237B7100231A
:10099000BB710123FB713B1D184601F067FA0E2362
:1009A0003B713B1D184601F061FA00BF4837BD4658
:1009B00080BD00BF000801400038014058000240DF
:1009C00004380140580400204400024098040020EC
:1009D00080B584B000AF786000BF144B1B78DBB2E9
:1009E000012BFAD00023FB8108E07B685A1C7A6057
:1009F000FA89511CF98119780D4B99547B681B7841
:100A0000002B02D0FB893E2BEFD9FB891946094800
:100A100001F0CFF9054B01221A700121054801F0C0
:100A20008FF900BF1037BD4680BD00BF1A050020FA
:100A3000980400204400024080B596B000AF786072
:100A400000237B657B683B653B6D002B05DA244802
:100A5000FFF7BEFF3B6D5B423B653B6D002B22D138
:100A60002048FFF7B5FF38E03A6D1F4B83FB0213B8
:100A70009910D317C91A0B469B000B445B00D11A7F
:100A8000CAB27B6D591C79653032D2B207F1580178
:100A90000B4403F8482C3B6D134A82FB031292105F
:100AA000DB17D31A3B653B6D002B13DD7B6D0A2BE7
:100AB000DADD0FE07B6D013B7B6507F110027B6D9A
:100AC00013441B783B7300237B7307F10C03184618
:100AD000FFF77EFF7B6D002BECDC5837BD4680BDF9
:100AE00010250008142500086766666680B582B088
:100AF00000AF78600B46FB7000BF8021786800F083
:100B0000D6FF0346002BF8D0FB789BB219467868D5
:100B100000F0BCFF00BF4021786800F0C8FF03462A
:100B2000002BF8D000BF00BF0837BD4680BD0000D5
:100B300080B582B000AF3F4801F049F90346C3F1E8
:100B40004003FB806DE03C4B1B889BB21A463B4B3D
:100B50009B5C7B717B7919463948FFF7C7FF7B792E
:100B6000082B02D07B797F2B12D1364B1B78002BC0
:100B700049D0344B1B78013BDAB2324B1A7020213A
:100B80002F48FFF7B3FF08212D48FFF7AFFF3AE0EA
:100B90007B790D2B02D07B790A2B26D1294B1B7830
:100BA0001A462949294801F0C7F9264B1B781A46ED
:100BB000264B00219954264B01221A704022002115
:100BC000214801F02FFA1F4B00221A701A4B1B8884
:100BD0009BB201335A4203F03F0302F03F0258BF79
:100BE00053429AB2144B1A8021E0164B1B783E2BCD
:100BF00009D8144B1B785A1CD1B2124A11701946ED
:100C0000114A7B7953540C4B1B889BB201335A42D7
:100C100003F03F0302F03F0258BF53429AB2064B23
:100C20001A80054B1B889BB2FA889A428BD10837F1
:100C3000BD4680BD580002401C050020580400201D
:100C400000380140290500202C050020D804002090
:100C50001905002080B500AF4FF4805001F0C4F8B2
:100C60000346002B0AD0064B00221A7000210548CB
:100C700001F066F84FF4805001F0DEF800BF80BD4F
:100C80001A0500204400024080B582B000AF012167
:100C9000082000F0B1FC4FF40043BB801023FB712F
:100CA0000223BB713B1D19460548FFF72BFC4FF48F
:100CB00000410348FFF722FD00BF0837BD4680BD55
:100CC000000C014080B584B000AF0121012000F08C
:100CD000B1FC3B1D00221A605A601A8141F61F4385
:100CE000BB8040F2E7333B810023FB803B1D19466C
:100CF0004FF08040FFF72EFA012201214FF0804093
:100D0000FFF7C3FA00233B601C233B7000237B707A
:100D10000023BB700123FB703B46184601F0A6F888
:100D20001C20FFF739FD01214FF08040FFF78EFABC
:100D300000BF1037BD4680BD80B584B000AF012133
:100D4000112000F059FC2023BB812823FB730323CF
:100D5000BB7307F10C0319461148FFF7D3FB0521BC
:100D60000220FFF7D9FC20237B6000233B720C2379
:100D70007B720123BB723B1D184600F0E7FC172372
:100D80003B7001237B700123BB700123FB703B464A
:100D9000184601F06BF800BF1037BD4680BD00BF9C
:100DA0000010014080B500AF202000F041FD034657
:100DB000002B0AD0064B01221A7000F099F9034665
:100DC000044A1360202000F057FD00BF80BD00BF23
:100DD000280500202405002080B500AF01214FF038
:100DE0008040FFF775FA0346002B1CD00F4B1B68A1
:100DF00001330E4A136001214FF08040FFF791FA52
:100E00004FF400410A48FFF752FC0346002B05D17E
:100E10004FF400410648FFF763FC04E04FF4004143
:100E20000348FFF76BFC00BF80BD00BF200500201A
:100E3000000C014080B586B000AFF860B9607A6000
:100E400000237B614949F86801F0A4F90346002BAF
:100E500019D1BA687B6813447B614548FFF7B8FD38
:100E6000B868FFF7E9FD4348FFF7B2FD7868FFF780
:100E7000E3FD4148FFF7ACFD7869FFF7DDFD3F4832
:100E8000FFF7A6FD6EE03E49F86801F083F90346DE
:100E9000002B19D1BA687B68D31A7B613948FFF7F8
:100EA00097FDB868FFF7C8FD3748FFF791FD7868F0
:100EB000FFF7C2FD3048FFF78BFD7869FFF7BCFDF7
:100EC0002E48FFF785FD4DE03049F86801F062F9E2
:100ED0000346002B1AD1BB687A6802FB03F37B61DF
:100EE0002B48FFF775FDB868FFF7A6FD2948FFF707
:100EF0006FFD7868FFF7A0FD1F48FFF769FD78696F
:100F0000FFF79AFD1D48FFF763FD2BE02249F868C3
:100F100001F040F90346002B21D17B68002B03D15F
:100F20001E48FFF755FD1DE0BA687B6892FBF3F39E
:100F30007B611B48FFF74CFDB868FFF77DFD194842
:100F4000FFF746FD7868FFF777FD0B48FFF740FD98
:100F50007869FFF771FD0948FFF73AFD02E0124892
:100F6000FFF736FD00BF1837BD4680BD18250008C5
:100F70001C25000824250008282500082C25000829
:100F800034250008382500084025000844250008BD
:100F90004825000850250008542500085825000859
:100FA000742500087C2500088025000880B58CB0D9
:100FB00000AF78600023BB6007F10C0300221A60C9
:100FC0005A609A6000237B6200233B62202178688C
:100FD00001F07AF8F861FB69002B03D12448FFF790
:100FE000F7FC41E0FB6900221A7007F108030F22A9
:100FF0007968184601F0ACF90023FB75FB690133F1
:101000002021184601F060F8B861BB69002B03D1BC
:101010001748FFF7DDFC27E0BB6900221A70FB6967
:101020000133FB62BB690133BB6202E0FB6A01333F
:10103000FB62FB6A1B78202BF8D002E0BB6A01330D
:10104000BB62BB6A1B78202BF8D0F86A00F070FFF7
:101050007862B86A00F06CFF386207F108033A6AF8
:10106000796A1846FFF7E6FE3037BD4680BD00BFFF
:10107000A025000880B500AF084B1B78DBB2012B20
:101080000AD1064B00221A700548FFF78FFF402255
:101090000021034800F0C6FF00BF80BD19050020F5
:1010A000D804002080B500AF0D4B1B78012B14D164
:1010B00000F01EF802460B4B1B68D31A042B0CD908
:1010C000074B00221A7020210748FFF7D7FA034682
:1010D000012B02D10548FFF77BFC00BF80BD00BF9C
:1010E000280500202405002000100140C425000828
:1010F00080B400AF024B1B681846BD4680BC7047E9
:101100002005002080B500AFFFF75EFBFFF7DAFD9A
:10111000FFF7EEFF0346114A1360FFF79BFBFFF753
:10112000B3FDFFF709FE402200210D4800F07AFFD1
:101130000C4B00221A700C4B00221A700B4B002231
:101140001A700B48FFF744FC0A48FFF741FCFFF711
:10115000EFFCFFF7A7FFFFF78DFFF8E7240500205E
:10116000D804002018050020190500201A050020C9
:10117000D8250008F825000880B400AF184B1B687C
:10118000174A43F001031360154B5A681449154B75
:1011900013404B60124B1B68114A23F0847323F4F5
:1011A000803313600E4B1B680D4A23F480231360B9
:1011B0000B4B5B680A4A23F4FE035360084B1B6821
:1011C000074A23F0A0531360054B4FF47F029A6047
:1011D000034B0022DA6200BFBD4680BC704700BFEF
:1011E000001002400000FFF080B483B000AF7860D0
:1011F000134B1B68124A23F480331360104B1B6897
:101200000F4A23F4802313607B68B3F5803F04D03A
:101210007B68B3F5802F07D00DE0094B1B68084AA7
:1012200043F48033136006E0054B1B68044A43F423
:10123000A023136000BF00BF0C37BD4680BC7047C1
:101240000010024080B582B000AF00233B60002355
:10125000FB710023BB71312000F00AFA0346BB7119
:101260003B6801333B603B68B3F5A06F02D0BB79AC
:10127000002BF0D0312000F0FBF90346002B02D008
:101280000123FB7101E00023FB71FB79184608374D
:10129000BD4680BD80B485B000AF78603960002362
:1012A000FB600A4B5B68FB60FB6823F47413FB6014
:1012B0007A683B681343FA681343FB60034AFB6890
:1012C000536000BF1437BD4680BC70470010024019
:1012D00080B483B000AF0346FB71044AFB7913600E
:1012E00000BF0C37BD4680BC704700BF6000424263
:1012F00080B485B000AF78600023FB60094B5B6869
:10130000FB60FB6823F00303FB60FA687B68134310
:10131000FB60044AFB68536000BF1437BD4680BCC5
:10132000704700BF0010024080B400AF044B5B6800
:10133000DBB203F00C03DBB21846BD4680BC70473D
:101340000010024080B485B000AF78600023FB60DD
:10135000094B5B68FB60FB6823F0F003FB60FA68F5
:101360007B681343FB60044AFB68536000BF14377B
:10137000BD4680BC704700BF0010024080B485B0FD
:1013800000AF78600023FB60094B5B68FB60FB6883
:1013900023F4E063FB60FA687B681343FB60044A54
:1013A000FB68536000BF1437BD4680BC704700BF68
:1013B0000010024080B485B000AF78600023FB606D
:1013C000094B5B68FB60FB6823F46053FB607B6840
:1013D000DB00FA681343FB60034AFB68536000BFFD
:1013E0001437BD4680BC70470010024080B48BB0FB
:1013F00000AF786000233B6200237B620023FB6127
:101400000023BB6100237B6100233B610023FB6061
:101410000023BB60644B5B6803F00C033B623B6AD8
:10142000082B11D03B6A082B64D83B6A002B03D0F1
:101430003B6A042B04D05DE07B685C4A1A605DE087
:101440007B685A4A1A6059E0574B5B6803F4701383
:101450007B62554B5B6803F48033FB617B6A9B0CBA
:101460007B627B6A0D2B03D07B6A02337B6201E0D7
:1014700006237B62FB69002B06D17B6A4C4A03FB87
:1014800002F27B681A6039E0474BDB6A03F4803371
:101490007B61454BDB6A03F00F0301333B617B69E2
:1014A000002B09D1414A3B69B2FBF3F37A6A03FB93
:1014B00002F27B681A6021E03B4BDB6A1B0903F0F8
:1014C0000F030133FB60384BDB6A1B0A03F00F0389
:1014D0000233BB60354AFB68B2FBF3F3BA6803FB27
:1014E00002F23B69B2FBF3F37A6A03FB02F27B6818
:1014F0001A6003E07B682D4A1A6000BF2A4B5B68C4
:1015000003F0F0033B623B6A1B093B62294A3B6ADA
:1015100013441B78DBB2BB617B681A68BB69DA4095
:101520007B685A60204B5B6803F4E0633B623B6A74
:101530001B0A3B621F4A3B6A13441B78DBB2BB6148
:101540007B685A68BB69DA407B689A60164B5B68B7
:1015500003F460533B623B6ADB0A3B62154A3B6A19
:1015600013441B78DBB2BB617B685A68BB69DA4005
:101570007B68DA600C4B5B6803F440433B623B6A78
:101580009B0B3B620C4A3B6A13441B78DBB2BB618A
:101590007B68DA68BB69B2FBF3F27B681A6100BF53
:1015A0002C37BD4680BC70470010024000127A0004
:1015B00000093D00440400205404002080B483B09E
:1015C00000AF78600B46FB70FB78002B06D0094B10
:1015D0005A6908497B6813434B6106E0054B5A6919
:1015E0007B68DB43034913404B6100BF0C37BD46AA
:1015F00080BC70470010024080B483B000AF7860B8
:101600000B46FB70FB78002B06D0094B9A69084902
:101610007B6813438B6106E0054B9A697B68DB436B
:10162000034913408B6100BF0C37BD4680BC704737
:101630000010024080B483B000AF78600B46FB70AE
:10164000FB78002B06D0094BDA6908497B68134305
:10165000CB6106E0054BDA697B68DB430349134045
:10166000CB6100BF0C37BD4680BC70470010024004
:1016700080B487B000AF0346FB710023FB600023FA
:101680007B610023FB74FB795B09DBB2FB60FB68C9
:10169000012B03D1124B1B687B6109E0FB68022B15
:1016A00003D10F4B1B6A7B6102E00D4B5B6A7B61D0
:1016B000FB7903F01F03FB607A69FB6822FA03F3EE
:1016C00003F00103002B02D00123FB7401E000238F
:1016D000FB74FB7C18461C37BD4680BC704700BFBE
:1016E0000010024080B582B000AF114B7B60114BFF
:1016F0003B6007E07A68131D7B603B68191D396009
:1017000012681A603B680C4A9342F3D30B480C49A9
:101710004FF000028842B8BF40F8042BFADBFEF716
:1017200011FEFFF7EFFC00BF0837BD4680BD00BFCC
:10173000FD26000800000020580400205804002066
:101740006C05002080B400AFFEE7000080B485B0D7
:1017500000AF78600023FB60344BFB607B689B79B3
:10176000002B4FD0314B1A687B681B68DB432F4935
:1017700013400B602D4B5A687B681B68DB432B4979
:1017800013404B607B681B791A46FB681344FB606F
:10179000FB6819687B681A68FB680A431A60234B68
:1017A0009A687B681B68DB43204913408B601F4BA2
:1017B000DA687B681B68DB431C491340CB607B689D
:1017C0005B79102B0ED1194B9A687B681B681749FF
:1017D00013438B60154BDA687B681B68134913430E
:1017E000CB601DE0114BFB607B685B791A46FB68A0
:1017F0001344FB60FB6819687B681A68FB680A433E
:101800001A600DE07B681B791A46FB681344FB6085
:10181000FB6819687B681B68DA43FB680A401A603A
:1018200000BF1437BD4680BC704700BF00040140B4
:1018300080B485B000AF78600023FB730023BB60E9
:101840000C4B1B687A681340BB600A4B5A697B6873
:101850001340002B05D0BB68002B02D00123FB7383
:1018600001E00023FB73FB7B18461437BD4680BCA8
:10187000704700BF0004014080B483B000AF7860BF
:10188000034A7B68536100BF0C37BD4680BC70477C
:101890000004014080B58CB000AF7860396000234F
:1018A000FB620023BB6200237B6200233B620023B8
:1018B000FB617B68FB617B681B8A9BB2FB62FA6AF7
:1018C0004CF6FF731340FB623B68DB881A46FB6AE9
:1018D0001343FB62FB6A9AB27B681A827B689B891E
:1018E0009BB2FB62FA6A4EF6F3131340FB623B684D
:1018F0009A883B681B8913439AB23B685B89134300
:101900009BB21A46FB6A1343FB62FB6A9AB27B687E
:101910009A817B689B8A9BB2FB62FA6A4FF6FF430F
:101920001340FB623B689B891A46FB6A1343FB62C8
:10193000FB6A9AB27B689A8207F108031846FFF7A0
:1019400055FDFB692E4A934202D17B69BB6201E0DF
:101950003B69BB627B689B899BB21BB2002B0CDA94
:10196000BA6A13469B0013449A001A443B681B68EA
:101970005B00B2FBF3F37B620BE0BA6A13469B0099
:1019800013449A001A443B681B689B00B2FBF3F3B4
:101990007B627B6A1B4AA2FB03235B091B01FB6280
:1019A000FB6A1B09642202FB03F37A6AD31A3B62C7
:1019B0007B689B899BB21BB2002B0CDA3B6ADB0075
:1019C0003233104AA2FB03235B0903F00703FA6AD0
:1019D0001343FB620BE03B6A1B013233094AA2FB53
:1019E00003235B0903F00F03FA6A1343FB62FB6AEC
:1019F0009AB27B681A8100BF3037BD4680BD00BFF8
:101A0000003801401F85EB5180B483B000AF78608F
:101A10000B46FB70FB78002B08D07B689B899BB240
:101A200043F400539AB27B689A8107E07B689B89F4
:101A30009BB223F400539AB27B689A8100BF0C37A3
:101A4000BD4680BC704780B483B000AF78600B4661
:101A50007B8013467B707B78002B08D07B689B8A49
:101A60009AB27B8813439AB27B689A8209E07B68BA
:101A70009B8A9AB27B88DB439BB213409AB27B6805
:101A80009A8200BF0C37BD4680BC704780B483B0DB
:101A900000AF78600B467B807B88C3F308039AB263
:101AA0007B689A8000BF0C37BD4680BC704780B40D
:101AB00085B000AF78600B467B800023FB737B68AA
:101AC0001B889AB27B8813409BB2002B02D0012363
:101AD000FB7301E00023FB73FB7B18461437BD4604
:101AE00080BC704780B485B000AF78600023FB6095
:101AF000094B1B68FB60FB6803F03803FB60FA6866
:101B00007B681343FB60044AFB68136000BF143713
:101B1000BD4680BC704700BF0020024080B483B047
:101B200000AF7860084B1B68074A23F0100313606E
:101B3000054B1A6804497B6813430B6000BF0C37E0
:101B4000BD4680BC704700BF0020024080B483B017
:101B500000AF78607B681A684FF6FE7313407A68AE
:101B600013607B6800221A607B6800225A607B68E1
:101B700000229A607B680022DA607B68434A9342C5
:101B800006D1434B5B68424A43F00F03536077E052
:101B90007B68404A934206D13D4B5B683C4A43F028
:101BA000F00353606CE07B683B4A934206D1384BAC
:101BB0005B68374A43F47063536061E07B68374A7F
:101BC000934206D1324B5B68314A43F47043536011
:101BD00056E07B68324A934206D12D4B5B682C4A13
:101BE00043F4702353604BE07B682E4A934206D146
:101BF000274B5B68264A43F47003536040E07B68E0
:101C0000294A934206D1224B5B68214A43F0706314
:101C1000536035E07B68254A934206D1244B5B68CC
:101C2000234A43F00F0353602AE07B68214A934222
:101C300006D11F4B5B681E4A43F0F00353601FE060
:101C40007B681D4A934206D1194B5B68184A43F4DE
:101C50007063536014E07B68184A934206D1144BBA
:101C60005B68134A43F47043536009E07B68144A8D
:101C7000934205D10E4B5B680D4A43F470235360C9
:101C800000BF0C37BD4680BC704700BF0800024053
:101C9000000002401C0002403000024044000240AC
:101CA000580002406C0002408000024008040240DC
:101CB000000402401C04024030040240440402407C
:101CC0005804024080B485B000AF786039600023CA
:101CD000FB607B681B68FB60FB6823F4FF4323F019
:101CE0007003FB603B689A683B681B6A1A433B6859
:101CF0001B691A433B685B691A433B689B691A433B
:101D00003B68DB691A433B685B6A1A433B689B6A22
:101D10001343FA681343FB607B68FA681A603B68F8
:101D2000DA687B685A603B681A687B689A603B682F
:101D30005A687B68DA6000BF1437BD4680BC7047C4
:101D400080B483B000AF78600B46FB70FB78002B4B
:101D500006D07B681B6843F001027B681A6006E0CE
:101D60007B681A684FF6FE7313407A68136000BFF1
:101D70000C37BD4680BC704780B485B000AFF860BA
:101D8000B9601346FB71FB79002B06D0FB681A681B
:101D9000BB681A43FB681A6006E0FB681A68BB68F8
:101DA000DB431A40FB681A6000BF1437BD4680BC95
:101DB000704780B483B000AF78600B467B807A8830
:101DC0007B685A6000BF0C37BD4680BC704780B44A
:101DD00083B000AF78607B685B689BB218460C37B5
:101DE000BD4680BC7047000080B485B000AF78600D
:101DF0000023FB730023BB607B6803F08053002B40
:101E000003D00B4B1B68BB6002E00A4B1B68BB6036
:101E1000BA687B681340002B02D00123FB7301E0FA
:101E20000023FB73FB7B18461437BD4680BC70470C
:101E3000000402400000024080B483B000AF78602C
:101E40007B6803F08053002B03D0064A7B68536005
:101E500002E0054A7B68536000BF0C37BD4680BC7A
:101E6000704700BF000402400000024080B487B009
:101E700000AF786000237B6100233B610F23FB6090
:101E80007B68DB78002B3AD0274BDB68DB431B0AEF
:101E900003F007037B617B69C3F104033B61FA68CC
:101EA0007B6922FA03F3FB607B685B781A463B6927
:101EB00002FA03F37B617B689B781A46FB68134048
:101EC0007A6913437B617B691B017B61174A7B68DD
:101ED0001B787969C9B213440A4683F800237B68EA
:101EE0001B7803F01F0311497A6812785209D2B2A5
:101EF0001046012202FA03F341F820300FE07B681C
:101F00001B7803F01F0309497A6812785209D2B28C
:101F1000104601229A4000F1200341F8232000BF1F
:101F20001C37BD4680BC704700ED00E000E100E0DA
:101F30000A22002100F0D0BA844641EA000313F0DF
:101F4000030349D1403A23D30B6803604B684360D5
:101F50008B688360CB68C3600B6903614B69436125
:101F60008B698361CB69C3610B6A03624B6A43620D
:101F70008B6A8362CB6AC3620B6B03634B6B4363F5
:101F80008B6B8363CB6BC36340304031403ADBD211
:101F900030320BD30B6803604B6843608B688360FF
:101FA000CB68C36010301031103AF3D20C3205D335
:101FB00051F8043B40F8043B043AF9D2043208D00B
:101FC000D2071CBF11F8013B00F8013B01D30B887D
:101FD00003806046704700BF082A13D38B07B1D037
:101FE00010F00303AED0C3F10403D21ADB071CBF09
:101FF00011F8013B00F8013BA4D331F8023B20F873
:10200000023B9FE7043AD9D3013A11F8013B00F8AB
:10201000013BF9D20B7803704B7843708B78837057
:1020200060467047830730B548D0541E002A3FD021
:102030000346CAB201E0013C3AD303F8012B9D07E5
:10204000F9D1032C2DD9CDB245EA05250F2C45EA4F
:10205000054536D9A4F1100222F00F0C03F1200E31
:10206000E6444FEA121C03F1100242E9045542E92A
:10207000025510327245F8D10CF1010214F00C0F28
:1020800003EB021204F00F0C13D0ACF1040323F0A5
:1020900003030433134442F8045B9342FBD10CF076
:1020A00003042CB1CAB21C4403F8012B9C42FBD19F
:1020B00030BD64461346002CF4D1F9E703461446BC
:1020C000BFE71A46A446E0E711F0FF01034644D0FB
:1020D000820732D110B5046841EA012E4EEA0E4E55
:1020E0008EEA0402A2F1013323EA0203A4F10132D1
:1020F00022EA0402134313F0803F0FD150F8044F3B
:1021000084EA0E0CA4F10133ACF1013223EA04039A
:1021100022EA0C02134313F0803FEFD0037823B977
:1021200036E010F8013F002B32D09942F9D110BDB2
:102130008A4211D09A071846CCD0184613F8012BC2
:10214000002AF5D1104670479907184607D018465F
:1021500002780133002AF7D170478207F7D102686D
:10216000A2F1013323EA020313F0803F08D150F8B3
:10217000042FA2F1013323EA020313F0803FF6D0CB
:102180000378002BE8D010F8013F002BFBD17047FB
:10219000184610BD80EA010C1CF0030F37D110F077
:1021A000030C20F0030021F0030150F8042B08BFBA
:1021B00051F8043B0ED08CF0030C6FF07F434FEAD4
:1021C000CC0C23FA0CFC51F8043B42EA0C0243EA23
:1021D0000C0300BFA2F1013C9A4201BF2CEA020CA1
:1021E0001CF0803F50F8042B51F8043BF2D04FEA2A
:1021F00002604FEA1222012828BFB0EB036F08BF2C
:102200001B0AF4D003F0FF03000EC01A704710F051
:10221000030F0AD010F8012B11F8013B012A28BF47
:102220009A42F4D0A2EB030070474DF8045D50F8D9
:10223000042B01F0030521F0030151F8043B022DAA
:1022400026D04DD822F07F45B5EB132FA2F1013CEB
:102250002CEA020C0DD11CF0803C08BF51F8043B65
:102260000AD185EA0205B5EB036F0CD150F8042BB7
:10227000E8E74FEA13235BE03CF07F4C54D10B7846
:102280004FEA126554E04FEA126503F0FF034FE096
:102290004FEA0245A2F1013C4FEA15452CEA020C37
:1022A000B5EB134F18D11CF0803C08BF51F8043B2C
:1022B00007D185EA0205B5EB034F09D150F8042B8D
:1022C000E6E75FEA0C4C2FD10B884FEA12452FE06E
:1022D0004FEA03434FEA12454FEA134328E000BF99
:1022E00002F0FF05B5EB136FA2F1013C2CEA020CE2
:1022F0000DD11CF0803C08BF51F8043B0AD185EA9F
:102300000205B5EB032F0AD150F8042BE8E74FEA9A
:1023100013630DE012F0FF0F06D051F8043B4FEAB3
:10232000122523F07F4303E04FF0000020BC7047EC
:1023300005F0FF0203F0FF00012828BF904204BF10
:102340002D0A1B0AF4D0A2EB000020BC704700BF8E
:1023500030B540EA0104A30722D1032A20D90B4655
:102360008446194653F8045BA5F1013424EA0504B8
:1023700014F0803F15D1043A032A19464CF8045B47
:10238000EFD801F1FF3E52B163461EF8011F541E03
:1023900003F8011B41B122469C46002AF4D130BD0E
:1023A000844601F1FF3EEEE76244002CF7D003F8CB
:1023B000011B9342FBD130BD2DE9F04F81468E4683
:1023C000444D70461EF801CB15F80C4014F008047B
:1023D000F7D1BCF12D0FE34653D06FF00048BCF1AC
:1023E0002B0F04BF9EF800B000F1020E1BB1102BA2
:1023F0004FD01F4604E0BBF1300F55D00A231F46D3
:102400000025B8FBF7F6284607FB168A07E0864248
:1024100015D329D0012507FB00C01EF801BBABF185
:10242000300CBCF1090F06D9ABF1410CBCF1190F0E
:1024300008D8ABF1370C63450DDD002DE7DA4FF01E
:10244000FF35EAE7ABF1610CBCF1190F03D8ABF132
:10245000570C6345F1DC002D0BDB04B140420AB19F
:1024600095BB1160BDE8F08FE245D3DA4FF0FF3540
:10247000D3E72223C9F800301AB340460EF1FF31EA
:10248000EFE79EF800B04FF00048012400F1020E83
:10249000ACE7BBF1300FACD19EF8000000F0DF00DC
:1024A000582807D01F46ABE79EF8003003F0DF0343
:1024B000582B0BD110279EF801B03B460EF1020EAF
:1024C0009EE74046BDE8F08F8046D6E708231F46CA
:1024D00096E700BFFD250008012A10B50AD0242A7E
:1024E00008D8074C13460A4601462068BDE810404C
:1024F000FFF762BF00F006F816230360002010BD4E
:1025000040040020014B1868704700BF40040020C1
:102510002D00000030000000616464000D0A616459
:10252000643A2000202B2000203D20000D0A3E2090
:1025300000000000737562000D0A7375623A200096
:10254000202D20006D756C000D0A6D756C3A200011
:10255000202A2000646976000D0A6572726F723A53
:1025600020646976206279207A65726F0D0A3E20B8
:10257000000000000D0A6469763A2000202F200038
:102580000D0A6572726F723A20756E6B6E6F776EA0
:1025900020636F6D6D616E640D0A3E2000000000C7
:1025A0000D0A6572726F723A2065787065637465A2
:1025B000642074776F206E756D626572730D0A3ECC
:1025C0002000000053696D6F6E6F762045676F7253
:1025D0000D0A3E2000000000436F6D6D616E647354
:1025E0003A206164642C207375622C206D756C2C0C
:1025F000206469760D0A00003E20000000202020A3
:1026000020202020202028282828282020202020A2
:102610002020202020202020202020202088101072
:1026200010101010101010101010101010040404CE
:10263000040404040404041010101010101041418C
:10264000414141410101010101010101010101017A
:10265000010101010101010110101010101042428E
:10266000424242420202020202020202020202024A
:1026700002020202020202021010101020000000EA
:10268000000000000000000000000000000000004A
:10269000000000000000000000000000000000003A
:1026A000000000000000000000000000000000002A
:1026B000000000000000000000000000000000001A
:1026C000000000000000000000000000000000000A
:1026D00000000000000000000000000000000000FA
:1026E00000000000000000000000000000000000EA
:0D26F00000000000000000000000000000DD
:1026FD0000A24A04000000000000000001020304D3
:10270D00060708090000000000000000000000009E
:10271D0001000000000000000000000000000000AB
:10272D00000000000000000000000000000000009C
:10273D00000000000000000000000000000000008C
:10274D00000000000000000000000000000000007C
:10275D00000000000000000000000000000000006C
:102B3D00180000200000000001020304010203043C
:082B4D0006070809020406084E
:0400000508000000EF
:00000001FF
