:020000040800F2
:10000000B809002061270008C1270008C12700089F
:10001000C1270008C1270008C12700080000000010
:10002000000000000000000000000000C1270008E0
:10003000C127000800000000C1270008C1270008F0
:10004000C1270008C1270008C1270008C1270008F0
:10005000C1270008C1270008C1270008C1270008E0
:10006000C1270008C1270008C1270008C1270008D0
:10007000C1270008C12700083D1B0008C127000850
:10008000C1270008C1270008C1270008C1270008B0
:10009000DD2A0008C1270008C1270008C51C000888
:1000A000C1270008C1270008C1270008C127000890
:1000B000011D0008C1270008C1270008C12700084A
:1000C000C1270008C1270008C1270008C127000870
:1000D000C1270008C1270008C1270008C127000860
:1000E000C1270008C1270008C12700080000000040
:1000F0000000000000000000000000000000000000
:100100000000000000000000C1270008C12700080F
:10011000C1270008C1270008C1270008C12700081F
:10012000C1270008C1270008C1270008C12700080F
:10013000C1270008C1270008C1270008C1270008FF
:100140006D2E0008C1270008C1270008C12700083C
:100150005FF808F180B485B000AF786039600023A3
:10016000FB817B681B88FB817B682E4A934213D0FE
:100170007B682D4A93420FD07B68B3F1804F0BD040
:100180007B682A4A934207D07B68294A934203D06E
:100190007B68284A934208D1FB8923F07003FB81D6
:1001A0003B685A88FB891343FB817B68224A934250
:1001B0000CD07B68214A934208D0FB8923F440731A
:1001C000FB813B68DA88FB891343FB817B68FA89F2
:1001D0001A803B689A887B689A853B681A887B6896
:1001E0001A857B680F4A93420FD07B680E4A934270
:1001F0000BD07B68124A934207D07B68114A934226
:1002000003D07B68104A934204D13B681B7A9AB2B0
:100210007B681A867B6801229A8200BF1437BD462C
:1002200080BC7047002C01400034014000040040B5
:1002300000080040000C0040001000400014004086
:1002400000400140004401400048014080B483B0B8
:1002500000AF78600B46FB70FB78002B08D07B6802
:100260001B889BB243F001039AB27B681A8007E0B7
:100270007B681B889BB223F001039AB27B681A80CB
:1002800000BF0C37BD4680BC704780B483B000AF60
:1002900078600B467B8013467B707B78002B08D000
:1002A0007B689B899AB27B8813439AB27B689A8158
:1002B00009E07B689B899AB27B88DB439BB2134041
:1002C0009AB27B689A8100BF0C37BD4680BC7047EC
:1002D00080B485B000AF78600B467B800023FB7351
:1002E0000023BB8100237B817B681B8A9AB27B88B9
:1002F0001340BB817B689B899AB27B8813407B81CA
:10030000BB89002B05D07B89002B02D00123FB7316
:1003100001E00023FB73FB7B18461437BD4680BC0D
:10032000704780B483B000AF78600B467B807B88D9
:10033000DB439AB27B681A8200BF0C37BD4680BC93
:100340007047000080B500AF1A4B1B68194A43F094
:1003500001031360174B5A681649174B13404B6043
:10036000144B1B68134A23F0847323F48033136007
:10037000104B1B680F4A23F4802313600D4B5B68FE
:100380000C4A23F4FE0353600A4B1B68094A23F00E
:10039000A0531360074B4FF47F029A60054B002275
:1003A000DA6200F00DF8054B4FF000629A6000BF72
:1003B00080BD00BF001002400000FFF000ED00E033
:1003C00080B500AF00F002F800BF80BD80B483B0FC
:1003D00000AF00237B6000233B60474B1B68464A0D
:1003E00043F480331360444B1B6803F400333B60D9
:1003F0007B6801337B603B68002B03D17B68B3F5DE
:10040000A06FF0D13C4B1B6803F40033002B02D0EB
:1004100001233B6001E000233B603B68012B66D178
:10042000364B1B68354A43F010031360334B1B688F
:10043000324A23F003031360304B1B682F4A43F00A
:10044000020313602C4B2C4A5B6853602A4B2A4AE8
:100450005B685360284B5B68274A43F480635360B2
:10046000254BDA6A2449264B1340CB62224BDB6AC8
:10047000214A43F4833343F04403D3621E4B1B6889
:100480001D4A43F08063136000BF1B4B1B6803F0E1
:100490000063002BF9D0184B5B68174A23F47C13D8
:1004A0005360154B5B68144A43F4E8135360124BD6
:1004B0001B68114A43F08073136000BF0E4B1B682A
:1004C00003F00073002BF9D00B4B5B680A4A23F052
:1004D00003035360084B5B68074A43F00203536011
:1004E00000BF054B5B6803F00C03082BF9D100BF7C
:1004F0000C37BD4680BC704700100240002002400F
:1005000000F0FEFF80B582B000AF78607B680E4AD5
:1005100093420AD101214FF0007002F0C9F8002186
:100520004FF0007002F0C4F809E001214FF0806044
:1005300002F0BEF800214FF0806002F0B9F800BF71
:100540000837BD4680BD00BF0064004080B485B060
:1005500000AF786039600023FB730023BB607B68C9
:100560001B6823F002027B681A607B681B6843F0FB
:1005700001027B681A6002E0BB680133BB607B68E4
:100580005B6803F00103012B04D0BB684FF6FF72D8
:100590009342F1D17B685B6803F00103012B02D029
:1005A0000023FB739CE03B689B79012B06D17B68A1
:1005B0001B6843F080027B681A6005E07B681B685B
:1005C00023F080027B681A603B68DB79012B06D13F
:1005D0007B681B6843F040027B681A6005E07B681B
:1005E0001B6823F040027B681A603B681B7A012B72
:1005F00006D17B681B6843F020027B681A6005E027
:100600007B681B6823F020027B681A603B685B7A7A
:10061000012B06D17B681B6843F010027B681A60CF
:1006200005E07B681B6823F010027B681A603B685A
:100630009B7A012B06D17B681B6843F008027B681C
:100640001A6005E07B681B6823F008027B681A606B
:100650003B68DB7A012B06D17B681B6843F0040200
:100660007B681A6005E07B681B6823F004027B68E6
:100670001A603B689B789A073B68DB781B061A4335
:100680003B681B791B041A433B685B791B051A43C3
:100690003B681B88013B1A437B68DA617B681B68F7
:1006A00023F001027B681A600023BB6002E0BB6894
:1006B0000133BB607B685B6803F00103012B04D14D
:1006C000BB684FF6FF729342F1D17B685B6803F021
:1006D0000103012B02D10023FB7301E00123FB7313
:1006E000FB7B18461437BD4680BC704790B484B07D
:1006F00000AF78600023FB607B689B7A1A46012379
:100700009340FB60594BD3F80032584A43F0010341
:10071000C2F80032554BD3F81C22FB68DB43534927
:100720001340C1F81C327B681B7B002B29D14F4B37
:10073000D3F80C22FB68DB434C491340C1F80C3260
:100740007B68DB881B047A685288144647497A68BC
:10075000927A104643EA040200F1480341F833203C
:100760007B689B881B047A68128814463F497A6824
:10077000927A104643EA040200F14803DB000B447E
:100780005A607B681B7B012B28D1384BD3F80C2295
:100790003649FB681343C1F80C327B681B881B0485
:1007A0007A685288144631497A68927A104643EA48
:1007B000040200F1480341F833207B689B881B0446
:1007C0007A68D288144629497A68927A104643EAB0
:1007D000040200F14803DB000B445A607B68DB7ABB
:1007E000002B09D1214BD3F80422FB68DB431F49BE
:1007F0001340C1F8043207E01C4BD3F804221B4914
:10080000FB681343C1F804327B681B89002B08D1B5
:10081000164BD3F81422FB68DB4314491340C1F88C
:1008200014327B681B89012B07D1104BD3F814229B
:100830000E49FB681343C1F814327B685B7B012BC4
:1008400007D10A4BD3F81C220849FB681343C1F8AF
:100850001C32064BD3F80032044A23F00103C2F8DD
:10086000003200BF1037BD4690BC704700640040A6
:1008700080B483B000AF78607B6800229A717B6897
:100880000022DA717B6800221A727B6800225A7299
:100890007B6800229A727B680022DA727B680022F1
:1008A0009A707B680022DA707B6803221A717B6879
:1008B00002225A717B6801221A8000BF0C37BD46A4
:1008C00080BC704780B485B000AF78603960002389
:1008D000FB737B689B6803F08063B3F1806F02D188
:1008E0000023FB7315E07B689B6803F00063B3F1A2
:1008F000006F02D10123FB730BE07B689B6803F060
:100900008053B3F1805F02D10223FB7301E0042323
:10091000FB73FB7B042B00F09F80FB7B7A68183312
:100920001B0113441A68FB7B02F00102796818333B
:100930001B010B441A603B681B7A002B13D1FB7B15
:100940007A6818331B01134419683B681B685B0500
:100950003A68527A1A43FB7B0A43796818331B01C1
:100960000B441A6015E0FB7B7A6818331B011344B3
:1009700019683B685B68DB003A68127A13433A688F
:10098000527A1A43FB7B0A43796818331B010B44E4
:100990001A603B689B7A03F00F03DAB23B689A72E5
:1009A000FB7B7A6818331B01134404331A68FB7B02
:1009B00022F00F02796818331B010B4404331A60CC
:1009C000FB7B7A6818331B01134404331A683B68B5
:1009D0009B7A1946FB7B0A43796818331B010B4449
:1009E00004331A603B689B7B1A063B685B7B1B04E5
:1009F0001A433B681B7B1B021A433B68DB7A194690
:100A0000FB7B0A4379681B010B4403F5C4731A602E
:100A10003B689B7C1A063B685B7C1B041A433B6863
:100A20001B7C1B021A433B68DB7B1946FB7B0A439A
:100A300079681B010B4403F5C6731A60FB7B7A6867
:100A400018331B0113441A68FB7B42F001027968DA
:100A500018331B010B441A60FB7B18461437BD4644
:100A600080BC704780B485B000AF78600B46FB70E7
:100A70000023FB60FB78022B12D0022B16DC002B2C
:100A800002D0012B06D011E07B689A68304B1340EE
:100A9000FB600EE07B689A682E4B1340FB6008E019
:100AA0007B689A682C4B1340FB6002E00023FB60DC
:100AB00000BFFB68284A93423DD0FB68264A934218
:100AC0003CD8FB68254A93422CD0FB68234A9342CA
:100AD00034D8FB681F4A93422AD0FB681D4A9342D0
:100AE0002CD8FB681E4A934219D0FB681C4A9342DB
:100AF00024D8FB68164A934217D0FB68144A9342E5
:100B00001CD8FB68002B04D0FB68164A934203D024
:100B100014E00223FB6014E00023FB6011E00023DB
:100B2000FB600EE00023FB600BE00123FB6008E0AC
:100B30000123FB6005E00123FB6002E00023FB6072
:100B400000BFFB68DBB218461437BD4680BC704757
:100B5000030000040003000800000310000001105F
:100B6000000100080100000480B485B000AFF86007
:100B70000B467A60FB72FB7AFA681B331B01134445
:100B80001B68DBB203F00403DAB27B681A727B687D
:100B90001B7A002B0BD1FB7AFA681B331B01134421
:100BA0001B685B0DC3F30A027B681A600AE0FB7ADC
:100BB000FA681B331B0113441B68DB0823F06042F7
:100BC0007B685A60FB7AFA681B331B0113441B686D
:100BD000DBB203F00203DAB27B685A72FB7AFA687E
:100BE0001B331B01134404331B68DBB203F00F03F8
:100BF000DAB27B689A72FB7AFA681B331B011344E2
:100C000004331B681B0ADAB27B68DA74FB7AFA6871
:100C10001B01134403F5DC731B68DAB27B68DA72DC
:100C2000FB7AFA681B01134403F5DC731B681B0A8B
:100C3000DAB27B681A73FB7AFA681B01134403F576
:100C4000DC731B681B0CDAB27B685A73FB7AFA6898
:100C50001B01134403F5DC731B681B0EDAB27B68BF
:100C60009A73FB7AFA681B01134403F5DE731B6861
:100C7000DAB27B68DA73FB7AFA681B01134403F576
:100C8000DE731B681B0ADAB27B681A74FB7AFA6897
:100C90001B01134403F5DE731B681B0CDAB27B687F
:100CA0005A74FB7AFA681B01134403F5DE731B6860
:100CB0001B0EDAB27B689A74FB7A002B06D1FB68B4
:100CC000DB6843F02002FB68DA6005E0FB681B6923
:100CD00043F02002FB681A6100BF1437BD4680BC98
:100CE000704780B485B000AFF860B9601346FB71FF
:100CF000FB79002B06D0FB685A69BB681A43FB6876
:100D00005A6106E0FB685A69BB68DB431A40FB681E
:100D10005A6100BF1437BD4680BC704780B584B0AF
:100D200000AF786039600023FB737B685A693B68C9
:100D30001340002B00F01B813B68B3F5003F00F02F
:100D4000DD803B68B3F5003F00F20E813B68B3F5F0
:100D5000803F00F0CA803B68B3F5803F00F2048119
:100D60003B68B3F5004F00F0F6803B68B3F5004FE9
:100D700000F2FA803B68B3F5006F00F0E3803B6857
:100D8000B3F5006F00F2F0803B68B3F5806F00F0C0
:100D9000D0803B68B3F5806F00F2E6803B68B3F526
:100DA000007F00F0BD803B68B3F5007F00F2DC807F
:100DB0003B68B3F5807F00F0AA803B68B3F5807F85
:100DC00000F2D2803B68202B4CD83B68002B00F00F
:100DD000CB803B68013B1F2B00F2C68001A252F87A
:100DE00023F000BF6D0E00087F0E0008690F000899
:100DF000910E0008690F0008690F0008690F0008CC
:100E0000A30E0008690F0008690F0008690F0008A9
:100E1000690F0008690F0008690F0008690F0008D2
:100E2000B50E0008690F0008690F0008690F000877
:100E3000690F0008690F0008690F0008690F0008B2
:100E4000690F0008690F0008690F0008690F0008A2
:100E5000690F0008690F0008690F0008690F000892
:100E6000C70E00083B68402B36D07DE07B689B684E
:100E70004249184600F05EF90346FB7379E07B684F
:100E8000DB680321184600F055F90346FB7370E058
:100E90007B68DB680821184600F04CF90346FB73B9
:100EA00067E07B68DB681021184600F043F90346D1
:100EB000FB735EE07B681B690321184600F03AF97A
:100EC0000346FB7355E07B681B690821184600F058
:100ED00031F90346FB734CE07B681B69102118460F
:100EE00000F028F90346FB7343E07B685B68082148
:100EF000184600F01FF90346FB733AE07B685B6815
:100F00001021184600F016F90346FB7331E07B68A8
:100F10009B690121184600F00DF90346FB7328E098
:100F20007B689B690221184600F004F90346FB73B5
:100F30001FE07B689B690421184600F0FBF803461C
:100F4000FB7316E07B689B697021184600F0F2F88D
:100F50000346FB730DE07B685B680421184600F0D4
:100F6000E9F80346FB7304E00023FB7301E0002370
:100F7000FB73FB7B18461037BD4680BD01010100A5
:100F800080B483B000AF786039603B68B3F5003F50
:100F900000F0AA803B68B3F5003F00F2C3803B68D5
:100FA000B3F5803F00F09C803B68B3F5803F00F2D2
:100FB000B9803B68B3F5004F00F0AD803B68B3F5F6
:100FC000004F00F2AF803B68B3F5006F00F09C80EB
:100FD0003B68B3F5006F00F2A5803B68B3F5806F06
:100FE00000F08E803B68B3F5806F00F29B803B6819
:100FF000B3F5007F00F080803B68B3F5007F00F21E
:1010000091803B68B3F5807F72D03B68B3F5807FF9
:1010100000F288803B68202B4AD83B68002B00F008
:1010200081803B68013B1F2B7CD801A252F823F042
:10103000B91000082511000825110008C11000088A
:10104000251100082511000825110008C910000805
:101050002511000825110008251100082511000898
:101060002511000825110008251100082511000888
:101070002511000825110008251100082511000878
:101080002511000825110008251100082511000868
:101090002511000825110008251100082511000858
:1010A000251100082511000825110008D11000089D
:1010B0003B68402B10D035E07B681D4A9A6032E0D7
:1010C0007B680822DA602EE07B681022DA602AE072
:1010D0007B6808221A6126E07B6810221A6122E0F0
:1010E0007B6808225A601EE07B6810225A601AE072
:1010F0007B6804225A6016E07B6804225A6012E082
:101100007B6804225A600EE07B6800229A617B684B
:1011100004225A6007E07B6800229A617B680422FF
:101120005A6000E000BF00BF0C37BD4680BC70476E
:101130000101010080B485B000AF78603960002300
:10114000FB737A683B681340002B02D00123FB73CA
:1011500001E00023FB73FB7B18461437BD4680BCBF
:10116000704780B489B000AF786039600023FB61BC
:1011700000233B610023BB610023FB6000237B61F4
:101180000023BB603B68DB7803F00F03FB613B6827
:10119000DB7803F01003002B05D03B689B781A46E0
:1011A000FB691343FB613B681B88DBB2002B44D017
:1011B0007B681B687B610023BB6138E00122BB694F
:1011C00002FA03F3FB603B681B881A46FB68134076
:1011D0003B613A69FB689A4226D1BB699B00FB6080
:1011E0000F22FB6802FA03F3BB60BB68DB437A693A
:1011F00013407B61FA69FB6802FA03F37A691343CF
:101200007B613B68DB78282B05D10122BB699A40C2
:101210007B685A6108E03B68DB78482B04D10122E7
:10122000BB699A407B681A61BB690133BB61BB69CA
:10123000072BC3D97B687A691A603B681B88FF2B30
:1012400046D97B685B687B610023BB613AE0BB6980
:101250000833012202FA03F3FB603B681B881A463D
:10126000FB6813403B613A69FB689A4227D1BB692E
:101270009B00FB600F22FB6802FA03F3BB60BB68B4
:10128000DB437A6913407B61FA69FB6802FA03F376
:101290007A6913437B613B68DB78282B05D1BB69F6
:1012A000083301229A407B685A613B68DB78482BFF
:1012B00005D1BB69083301229A407B681A61BB697A
:1012C0000133BB61BB69072BC1D97B687A695A605E
:1012D00000BF2437BD4680BC704780B485B000AFE6
:1012E00078600B467B800023FB737B689A687B8861
:1012F0001340002B02D00123FB7301E00023FB739A
:10130000FB7B18461437BD4680BC704780B485B05F
:1013100000AF78600B467B800023FB737B68DA6844
:101320007B881340002B02D00123FB7301E00023D4
:10133000FB73FB7B18461437BD4680BC704780B4F6
:1013400083B000AF78600B467B807A887B681A6137
:1013500000BF0C37BD4680BC704780B483B000AF7F
:1013600078600B467B807A887B685A6100BF0C37B7
:10137000BD4680BC7047000080B485B000AF034616
:101380000A46FB711346BB710023FB60BB7903F077
:1013900003039B000F2202FA03F3FB60154ABB799B
:1013A0009B08DBB2023352F82320FB68DB43114871
:1013B000B9798908C9B21A408B1C40F823200D4A1C
:1013C000BB799B08DBB2023352F82320F979BB7951
:1013D00003F003039B0001FA03F30648B979890877
:1013E000C9B21A438B1C40F8232000BF1437BD46F6
:1013F00080BC70470000014080B483B000AF03465A
:10140000FB71FB7903F01F03012202FA03F1054A85
:1014100097F907305B0942F8231000BF0C37BD462F
:1014200080BC704700E100E080B582B000AF00F002
:10143000C3FE4FF4803000F0F7FE00F023FF0346B8
:10144000FB71FB79012B29D1022001F02DFD102029
:1014500001F046FD002000F095FF4FF4806000F0A1
:10146000ADFF002000F0C6FF4FF4E0114FF48030D4
:1014700000F030FF012000F04BFF00BF392001F0E9
:1014800035F90346002BF9D0022000F051FF00BFD0
:1014900000F06AFF0346082BFAD100E0FEE7034B99
:1014A000034A1A6000BF0837BD4680BD0000002017
:1014B00000A24A0480B584B000AF00F0F3FB0346FD
:1014C000FB731F4B1B681F4A11683A1D184601F039
:1014D000AFFEFB7B002B03D01B4800F0EDF908E0CA
:1014E0003B1D08221946194801F090FA184800F0EF
:1014F000E3F9184B1B78DBB2FB70FB7B002B05D1AB
:10150000FB1C01221946144801F080FA134B0022FB
:101510001A70134B00221A70124800F0CDF9FB7BB1
:10152000002B01D0104B00E0104B184600F0C4F91E
:101530000F4800F0C1F900BF1037BD4680BD00BFA5
:10154000380500203C050020703A0008A100000189
:10155000983A000840050020A2000001350500204F
:1015600036050020A03A0008B03A0008B83A000852
:10157000C03A000880B584B000AF5E4B1B78DBB288
:10158000002B1DD05B4B00221A705B4B5B685B4AE3
:10159000934208D15A4A5B495B4801F081FE5B4B9C
:1015A00001221A700CE0544B5B68544A934207D1F5
:1015B000514BDB7ADAB2564B1A70564B01221A7035
:1015C000554B1B78DBB2002B1DD0534B00221A70F9
:1015D000524B5B68494A934208D1494A49495048AD
:1015E00001F05EFE494B01221A700CE04B4B5B6828
:1015F000424A934207D1494BDB7ADAB2444B1A7024
:10160000444B01221A70414B1B78DBB2002B6DD08A
:10161000404B1B78DBB2002B68D03C4B00221A7089
:101620003C4B00221A700023FB60394B1B78DBB265
:10163000013B032B30D801A252F823F04D160008CD
:101640005B16000869160008791600082D4B1A6809
:101650002B4B1B681344FB6022E02A4B1A68284B73
:101660001B68D31AFB601BE0264B1B68244A1268D8
:1016700002FB03F3FB6013E0214B1B68002B07D038
:10168000204B1A681E4B1B6892FBF3F3FB6007E0CC
:10169000244800F011F929E0234800F00DF925E075
:1016A000224800F009F9174B1B68184600F038F97A
:1016B0001F4800F001F9164B1B78DBB2184601F009
:1016C00059FE0346184600F0F7F8194800F0F4F800
:1016D0000B4B1B68184600F023F9164800F0ECF895
:1016E000F86800F01DF9144800F0E6F81037BD4620
:1016F00080BD00BF9C05002088050020140020004C
:10170000300500202C05002093050020290500202D
:10171000340500202A050020B4050020A005002083
:10172000AB050020C83A0008E83A0008083B00086A
:101730001C3B0008203B0008C03A000880B592B06E
:1017400000AF012144F2040000F076FF01210120E6
:1017500000F054FF4FF48063A7F84430042387F867
:10176000473007F1440319464C48FFF7FAFC4FF4A1
:101770000073A7F84430032387F84630182387F80E
:10178000473007F1440319464448FFF7EAFC4FF499
:1017900096437B6300233B8700237B870023BB8723
:1017A0000023A7F840300C23FB8707F134031946C8
:1017B0003B4801F0B1F901224021394801F085FA96
:1017C00001228021364801F080FA0121344801F0DD
:1017D0005DFA344801F09CFB334BBB60334BFB603C
:1017E00000233B6140237B610023BB618023FB61BD
:1017F00000233B6200237B622023BB624FF4005333
:10180000FB6200233B6307F108031946254801F0FA
:101810003BFC01220221234801F090FC01212148D8
:1018200001F070FC224801F073FB1F4BBB60214BA1
:10183000FB6010233B6100237B610023BB6180239D
:10184000FB6100233B6200237B620023BB624FF4F9
:101850000053FB6200233B6307F108031946144859
:1018600001F012FC01220221114801F067FC0F2354
:101870003B7101237B710023BB710123FB713B1D75
:10188000184601F0A3FD0E233B713B1D184601F0E5
:101890009DFD00BF4837BD4680BD00BF0008014028
:1018A000003801405800024004380140580400202C
:1018B000440002409804002080B584B000AF7860F6
:1018C00000BF144B1B78DBB2012BFAD00023FB8145
:1018D00008E07B685A1C7A60FA89511CF9811978F2
:1018E0000D4B99547B681B78002B02D0FB893E2B53
:1018F000EFD9FB891946094801F03DFC054B01224F
:101900001A700121054801F0FDFB00BF1037BD46EC
:1019100080BD00BF1A05002098040020440002404A
:1019200080B596B000AF786000237B657B683B652F
:101930003B6D002B05DA2448FFF7BEFF3B6D5B4291
:101940003B653B6D002B22D12048FFF7B5FF38E007
:101950003A6D1F4B83FB02139910D317C91A0B461C
:101960009B000B445B00D11ACAB27B6D591C796590
:101970003032D2B207F158010B4403F8482C3B6DCA
:10198000134A82FB03129210DB17D31A3B653B6D9F
:10199000002B13DD7B6D0A2BDADD0FE07B6D013B45
:1019A0007B6507F110027B6D13441B783B730023AA
:1019B0007B7307F10C031846FFF77EFF7B6D002B4E
:1019C000ECDC5837BD4680BD243B0008283B0008AE
:1019D0006766666680B582B000AF78600B46FB70C4
:1019E00000BF8021786801F0A4F90346002BF8D0ED
:1019F000FB789BB21946786801F08AF900BF402154
:101A0000786801F096F90346002BF8D000BF00BFBC
:101A10000837BD4680BD000080B582B000AF3F48AA
:101A200001F0B7FB0346C3F14003FB806DE03C4B84
:101A30001B889BB21A463B4B9B5C7B717B7919469A
:101A40003948FFF7C7FF7B79082B02D07B797F2BC2
:101A500012D1364B1B78002B49D0344B1B78013BFD
:101A6000DAB2324B1A7020212F48FFF7B3FF08215A
:101A70002D48FFF7AFFF3AE07B790D2B02D07B7941
:101A80000A2B26D1294B1B781A462949294801F0EF
:101A900003FD264B1B781A46264B00219954264BF2
:101AA00001221A7040220021214801F06BFD1F4BDA
:101AB00000221A701A4B1B889BB201335A4203F062
:101AC0003F0302F03F0258BF53429AB2144B1A80B0
:101AD00021E0164B1B783E2B09D8144B1B785A1C5F
:101AE000D1B2124A11701946114A7B7953540C4BEA
:101AF0001B889BB201335A4203F03F0302F03F02BE
:101B000058BF53429AB2064B1A80054B1B889BB2B2
:101B1000FA889A428BD10837BD4680BD58000240F2
:101B20001C05002058040020003801404205002018
:101B300044050020D80400201905002080B500AF1E
:101B40004FF4805001F032FB0346002B0AD0064BC5
:101B500000221A700021054801F0D4FA4FF4805099
:101B600001F04CFB00BF80BD1A050020440002407C
:101B700080B582B000AF0121082000F05DFD4FF478
:101B80000043BB801023FB710223BB713B1D194630
:101B90000548FFF7E6FA4FF400410348FFF7CFFB93
:101BA00000BF0837BD4680BD000C014080B584B041
:101BB00000AF0121012000F05DFD3B1D00221A60F5
:101BC0005A601A8141F61F43BB8040F2E7333B81E4
:101BD0000023FB803B1D19464FF08040FEF7BAFA08
:101BE000012201214FF08040FEF74FFB00233B60B4
:101BF0001C233B7000237B700023BB700123FB7010
:101C00003B46184601F0E2FB1C20FFF7F5FB0121E3
:101C10004FF08040FEF71AFB00BF1037BD4680BD75
:101C200080B584B000AF0121112000F005FD202314
:101C3000BB812823FB730323BB7307F10C031946F5
:101C40001748FFF78EFA1023BB812823FB73032369
:101C5000BB7307F10C0319461148FFF782FA0521FF
:101C60000220FFF789FB20237B6000233B720C23BB
:101C70007B720123BB723B1D184600F0A5FD1723A4
:101C80003B7001237B700123BB700123FB703B463B
:101C9000184601F09BFB00BF1037BD4680BD00BF5A
:101CA0000010014080B500AF10210548FFF715FB7B
:101CB0000346002B0CBF01230023DBB2184680BD76
:101CC0000010014080B500AF202000F0EFFD03467A
:101CD000002B0DD0074B01221A70074B01221A70FE
:101CE00000F0C6F90346054A1360202000F002FE0A
:101CF00000BF80BD410500202805002024050020EC
:101D000080B500AF01214FF08040FEF7E1FA0346B5
:101D1000002B1CD00F4B1B6801330E4A13600121AE
:101D20004FF08040FEF7FDFA4FF400410A48FFF7FC
:101D3000EDFA0346002B05D14FF400410648FFF7AA
:101D4000FEFA04E04FF400410348FFF706FB00BF32
:101D500080BD00BF20050020000C014080B586B08A
:101D600000AFF860B9607A6000237B614949F86888
:101D700001F0C0FC0346002B19D1BA687B681344FC
:101D80007B614548FFF798FDB868FFF7C9FD4348F8
:101D9000FFF792FD7868FFF7C3FD4148FFF78CFD20
:101DA0007869FFF7BDFD3F48FFF786FD6EE03E49CD
:101DB000F86801F09FFC0346002B19D1BA687B68D4
:101DC000D31A7B613948FFF777FDB868FFF7A8FDA4
:101DD0003748FFF771FD7868FFF7A2FD3048FFF73D
:101DE0006BFD7869FFF79CFD2E48FFF765FD4DE020
:101DF0003049F86801F07EFC0346002B1AD1BB681D
:101E00007A6802FB03F37B612B48FFF755FDB86846
:101E1000FFF786FD2948FFF74FFD7868FFF780FD43
:101E20001F48FFF749FD7869FFF77AFD1D48FFF766
:101E300043FD2BE02249F86801F05CFC0346002BCF
:101E400021D17B68002B03D11E48FFF735FD1DE033
:101E5000BA687B6892FBF3F37B611B48FFF72CFDAC
:101E6000B868FFF75DFD1948FFF726FD7868FFF7B2
:101E700057FD0B48FFF720FD7869FFF751FD094832
:101E8000FFF71AFD02E01248FFF716FD00BF1837F2
:101E9000BD4680BD2C3B0008303B0008383B0008A5
:101EA000203B0008C03A00083C3B0008403B0008CB
:101EB000483B00084C3B0008503B0008583B0008DA
:101EC0005C3B0008603B00087C3B0008843B00084A
:101ED000883B000880B58EB000AF78600023FB60BF
:101EE00007F1100300221A605A609A600023FB6217
:101EF0000023BB62002387F827302021786801F097
:101F000093FB38623B6A002B03D13748FFF7D4FCC0
:101F100067E03B6A00221A7007F10C030F22796810
:101F2000184601F0C5FC0023FB763B6A01332021F3
:101F3000184601F079FBF861FB69002B03D12A48B0
:101F4000FFF7BAFC4DE0FB6900221A703B6A0133CF
:101F50007B63FB6901333B6302E07B6B01337B6393
:101F60007B6B1B78202BF8D002E03B6B01333B638B
:101F70003B6B1B78202BF8D0786B01F089FAF86264
:101F8000386B01F085FAB86207F10C03184601F0CE
:101F9000BBF9034687F8273097F82730FF2B09D184
:101FA0001248FFF789FC124B00221A70114B0022D5
:101FB0001A7016E0104AFB6A1360104ABB6A13607D
:101FC0000F4A97F827301370094B01221A70094BFA
:101FD00001221A7007F10C03BA6AF96A1846FFF772
:101FE000BDFE3837BD4680BDA83B0008CC3B00088D
:101FF0003505002036050020380500203C0500206E
:102000004005002080B500AF084B1B78DBB2012BE8
:102010000AD1064B00221A700548FFF75BFF4022E9
:102020000021034801F0AEFA00BF80BD1905002071
:10203000D804002080B500AF0A4B1B78012B0ED1CD
:1020400000F016F80246084B1B68D31A042B06D979
:10205000044B00221A7020210448FFF73EF900BF0C
:1020600080BD00BF2805002024050020001001408D
:1020700080B400AF024B1B681846BD4680BC704759
:102080002005002080B582B000AFFFF7CDF9FFF743
:102090008DFDFFF7EDFF0346384A1360FFF74EFB57
:1020A000FFF766FDFFF7BCFD00F050FC00F07AFE84
:1020B00040220021324801F065FA324B00221A70AA
:1020C000314B00221A70314B00221A703048FFF752
:1020D000F3FB3048FFF7F0FB2B4B1B78DBB2012BF7
:1020E0000AD1294B00221A702548FFF7F3FE40223F
:1020F0000021234801F046FA274B1B78DBB2012B65
:1021000017D1254B00221A70244B1B78DBB2002B11
:102110000CD0234B1B78DBB2002B07D0214B1B7854
:10212000DBB2FF2B02D0FFF7C5F902E01E48FFF734
:10213000C3FBFFF79DFF02461C4B1B68D31AB3F588
:102140007A7F12D9FFF794FF0346184A1360FFF70E
:10215000A9FD0346FB711648FFF7AEFBFB79184655
:10216000FFF7DEFB1348FFF7A7FBFFF755FCFFF770
:1021700061FFFFF747FFFFF7FDF9ADE724050020FA
:10218000D804002018050020190500201A05002099
:10219000003C0008203C00084105002035050020D7
:1021A0003605002040050020243C0008840500205E
:1021B0002C3C0008483C000880B400AF184B1B685A
:1021C000174A43F001031360154B5A681449154B25
:1021D00013404B60124B1B68114A23F0847323F4A5
:1021E000803313600E4B1B680D4A23F48023136069
:1021F0000B4B5B680A4A23F4FE035360084B1B68D1
:10220000074A23F0A0531360054B4FF47F029A60F6
:10221000034B0022DA6200BFBD4680BC704700BF9E
:10222000001002400000FFF080B483B000AF78607F
:10223000134B1B68124A23F480331360104B1B6846
:102240000F4A23F4802313607B68B3F5803F04D0EA
:102250007B68B3F5802F07D00DE0094B1B68084A57
:1022600043F48033136006E0054B1B68044A43F4D3
:10227000A023136000BF00BF0C37BD4680BC704771
:102280000010024080B582B000AF00233B60002305
:10229000FB710023BB71312000F028FA0346BB71AB
:1022A0003B6801333B603B68B3F5A06F02D0BB795C
:1022B000002BF0D0312000F019FA0346002B02D099
:1022C0000123FB7101E00023FB71FB7918460837FD
:1022D000BD4680BD80B485B000AF78603960002312
:1022E000FB600A4B5B68FB60FB6823F47413FB60C4
:1022F0007A683B681343FA681343FB60034AFB6840
:10230000536000BF1437BD4680BC704700100240C8
:1023100080B483B000AF0346FB71044AFB791360BD
:1023200000BF0C37BD4680BC704700BF6000424212
:1023300080B485B000AF78600023FB60094B5B6818
:10234000FB60FB6823F00303FB60FA687B681343C0
:10235000FB60044AFB68536000BF1437BD4680BC75
:10236000704700BF0010024080B400AF044B5B68B0
:10237000DBB203F00C03DBB21846BD4680BC7047ED
:102380000010024080B485B000AF78600023FB608D
:10239000094B5B68FB60FB6823F0F003FB60FA68A5
:1023A0007B681343FB60044AFB68536000BF14372B
:1023B000BD4680BC704700BF0010024080B485B0AD
:1023C00000AF78600023FB60094B5B68FB60FB6833
:1023D00023F4E063FB60FA687B681343FB60044A04
:1023E000FB68536000BF1437BD4680BC704700BF18
:1023F0000010024080B485B000AF78600023FB601D
:10240000094B5B68FB60FB6823F46053FB607B68EF
:10241000DB00FA681343FB60034AFB68536000BFAC
:102420001437BD4680BC70470010024080B48BB0AA
:1024300000AF786000233B6200237B620023FB61D6
:102440000023BB6100237B6100233B610023FB6011
:102450000023BB60644B5B6803F00C033B623B6A88
:10246000082B11D03B6A082B64D83B6A002B03D0A1
:102470003B6A042B04D05DE07B685C4A1A605DE037
:102480007B685A4A1A6059E0574B5B6803F4701333
:102490007B62554B5B6803F48033FB617B6A9B0C6A
:1024A0007B627B6A0D2B03D07B6A02337B6201E087
:1024B00006237B62FB69002B06D17B6A4C4A03FB37
:1024C00002F27B681A6039E0474BDB6A03F4803321
:1024D0007B61454BDB6A03F00F0301333B617B6992
:1024E000002B09D1414A3B69B2FBF3F37A6A03FB43
:1024F00002F27B681A6021E03B4BDB6A1B0903F0A8
:102500000F030133FB60384BDB6A1B0A03F00F0338
:102510000233BB60354AFB68B2FBF3F3BA6803FBD6
:1025200002F23B69B2FBF3F37A6A03FB02F27B68C7
:102530001A6003E07B682D4A1A6000BF2A4B5B6873
:1025400003F0F0033B623B6A1B093B62294A3B6A8A
:1025500013441B78DBB2BB617B681A68BB69DA4045
:102560007B685A60204B5B6803F4E0633B623B6A24
:102570001B0A3B621F4A3B6A13441B78DBB2BB61F8
:102580007B685A68BB69DA407B689A60164B5B6867
:1025900003F460533B623B6ADB0A3B62154A3B6AC9
:1025A00013441B78DBB2BB617B685A68BB69DA40B5
:1025B0007B68DA600C4B5B6803F440433B623B6A28
:1025C0009B0B3B620C4A3B6A13441B78DBB2BB613A
:1025D0007B68DA68BB69B2FBF3F27B681A6100BF03
:1025E0002C37BD4680BC70470010024000127A00B4
:1025F00000093D00440400205404002080B483B04E
:1026000000AF78600B46FB70FB78002B06D0094BBF
:102610005A6908497B6813434B6106E0054B5A69C8
:102620007B68DB43034913404B6100BF0C37BD4659
:1026300080BC70470010024080B483B000AF786067
:102640000B46FB70FB78002B06D0094B9A690849B2
:102650007B6813438B6106E0054B9A697B68DB431B
:10266000034913408B6100BF0C37BD4680BC7047E7
:102670000010024080B483B000AF78600B46FB705E
:10268000FB78002B06D0094BDA6908497B681343B5
:10269000CB6106E0054BDA697B68DB4303491340F5
:1026A000CB6100BF0C37BD4680BC704700100240B4
:1026B00080B483B000AF78600B46FB70FB78002BD2
:1026C00006D0094B1A6908497B6813430B6106E081
:1026D000054B1A697B68DB43034913400B6100BF5C
:1026E0000C37BD4680BC70470010024080B487B0F4
:1026F00000AF0346FB710023FB6000237B610023D6
:10270000FB74FB795B09DBB2FB60FB68012B03D137
:10271000124B1B687B6109E0FB68022B03D10F4B56
:102720001B6A7B6102E00D4B5B6A7B61FB7903F006
:102730001F03FB607A69FB6822FA03F303F00103CD
:10274000002B02D00123FB7401E00023FB74FB7C0F
:1027500018461C37BD4680BC704700BF00100240C1
:1027600080B582B000AF114B7B60114B3B6007E03E
:102770007A68131D7B603B68191D396012681A6006
:102780003B680C4A9342F3D30B480C494FF00002CC
:102790008842B8BF40F8042BFADBFDF7D3FDFFF702
:1027A00071FC00BF0837BD4680BD00BF753D000805
:1027B000000000205804002058040020B805002024
:1027C00080B400AFFEE7000080B485B000AF786051
:1027D0000023FB60344BFB607B689B79002B4FD060
:1027E000314B1A687B681B68DB432F4913400B6031
:1027F0002D4B5A687B681B68DB432B4913404B60A9
:102800007B681B791A46FB681344FB60FB681968F8
:102810007B681A68FB680A431A60234B9A687B68D6
:102820001B68DB43204913408B601F4BDA687B68D1
:102830001B68DB431C491340CB607B685B79102B22
:102840000ED1194B9A687B681B68174913438B603C
:10285000154BDA687B681B6813491343CB601DE096
:10286000114BFB607B685B791A46FB681344FB6085
:10287000FB6819687B681A68FB680A431A600DE0F8
:102880007B681B791A46FB681344FB60FB68196878
:102890007B681B68DA43FB680A401A6000BF143784
:1028A000BD4680BC704700BF0004014080B485B0C5
:1028B00000AF78600023FB730023BB600C4B1B68E8
:1028C0007A681340BB600A4B5A697B681340002B3F
:1028D00005D0BB68002B02D00123FB7301E000236D
:1028E000FB73FB7B18461437BD4680BC704700BFA6
:1028F0000004014080B483B000AF7860034A7B6875
:10290000536100BF0C37BD4680BC704700040140D6
:1029100080B584B000AF0023BB720023FB7201239B
:102920003B7300233B8000237B800023BB8000237C
:10293000FB8000233B8101237B733B461846FDF758
:10294000D5FE00BF1037BD4680BD000080B586B003
:1029500000AF01214FF00070FFF78CFE0121042031
:10296000FFF76AFE4FF40063BB824823FB75032325
:10297000BB7507F1140319462248FEF7F2FB4FF42A
:102980008053BB821823FB750323BB7507F1140327
:1029900019461C48FEF7E5FB1B48FDF7B3FD002375
:1029A000BB720023BB730123FB7300233B74012321
:1029B0007B740023BB740023FB740023FB7203238E
:1029C0003B7303237B7320233B8107F108031946E4
:1029D0000D48FDF7BBFDFFF79BFF012202210A48CE
:1029E000FEF77FF914233B7101237B710023BB7138
:1029F0000123FB713B1D184600F0E8FC00BF1837AF
:102A0000BD4680BD000801400064004080B58AB02A
:102A100000AFF860B9601346FB712E4B1B78DBB238
:102A2000002B01D0002351E0FB68DB087B6104230D
:102A30003B7600237B76FB79BB76002387F8273033
:102A400010E097F82730BA681A4497F827301278C0
:102A500007F128010B4403F80D2C97F827300133B8
:102A600087F8273097F82720FB799A4203D297F806
:102A70002730072BE5D907F1100319461648FDF753
:102A800021FF034687F8263097F82630042B01D122
:102A900000231BE00F4B01221A7000BF97F826306D
:102AA00019460D48FDF7DEFF0346022BF6D0094B11
:102AB00000221A7097F8263019460748FDF7D2FF12
:102AC0000346012B0CBF01230023DBB21846283735
:102AD000BD4680BD9D0500200064004080B500AF6C
:102AE00002210A48FEF71AF90346002B0BD0084AC8
:102AF00000210648FEF738F8064B01221A70022121
:102B00000248FEF73DFA00BF80BD00BF00640040F0
:102B1000880500209C05002080B58CB000AF78604F
:102B200039600023FB620023BB6200237B62002329
:102B30003B620023FB617B68FB617B681B8A9BB265
:102B4000FB62FA6A4CF6FF731340FB623B68DB885A
:102B50001A46FB6A1343FB62FB6A9AB27B681A82CD
:102B60007B689B899BB2FB62FA6A4EF6F3131340B3
:102B7000FB623B689A883B681B8913439AB23B68A7
:102B80005B8913439BB21A46FB6A1343FB62FB6AE1
:102B90009AB27B689A817B689B8A9BB2FB62FA6AD5
:102BA0004FF6FF431340FB623B689B891A46FB6A62
:102BB0001343FB62FB6A9AB27B689A8207F10803AF
:102BC0001846FFF733FCFB692E4A934202D17B691A
:102BD000BB6201E03B69BB627B689B899BB21BB215
:102BE000002B0CDABA6A13469B0013449A001A446D
:102BF0003B681B685B00B2FBF3F37B620BE0BA6AD5
:102C000013469B0013449A001A443B681B689B00C0
:102C1000B2FBF3F37B627B6A1B4AA2FB03235B09D3
:102C20001B01FB62FB6A1B09642202FB03F37A6A45
:102C3000D31A3B627B689B899BB21BB2002B0CDAD8
:102C40003B6ADB003233104AA2FB03235B0903F02B
:102C50000703FA6A1343FB620BE03B6A1B01323342
:102C6000094AA2FB03235B0903F00F03FA6A13432B
:102C7000FB62FB6A9AB27B681A8100BF3037BD469F
:102C800080BD00BF003801401F85EB5180B483B088
:102C900000AF78600B46FB70FB78002B08D07B6898
:102CA0009B899BB243F400539AB27B689A8107E0F8
:102CB0007B689B899BB223F400539AB27B689A810C
:102CC00000BF0C37BD4680BC704780B483B000AFF6
:102CD00078600B467B8013467B707B78002B08D096
:102CE0007B689B8A9AB27B8813439AB27B689A82EC
:102CF00009E07B689B8A9AB27B88DB439BB21340D6
:102D00009AB27B689A8200BF0C37BD4680BC704780
:102D100080B483B000AF78600B467B807B88C3F3C0
:102D200008039AB27B689A8000BF0C37BD4680BC0E
:102D3000704780B485B000AF78600B467B8000237D
:102D4000FB737B681B889AB27B8813409BB2002B75
:102D500002D00123FB7301E00023FB73FB7B1846C9
:102D60001437BD4680BC704780B584B000AF0E23D9
:102D7000BB720023FB7201233B7300233B800023C3
:102D80007B800023BB800023FB8000233B81012349
:102D90007B733B461846FDF7A9FC00BF1037BD46C4
:102DA00080BD000080B586B000AF01214FF080608B
:102DB000FFF760FC01210920FFF73EFC4FF4805330
:102DC000BB824823FB750323BB7507F11403194627
:102DD0002448FEF7C6F94FF40053BB821823FB7555
:102DE00007F1140319461F48FEF7BBF91E48FDF70B
:102DF00089FB07F108031846FDF73AFD0023BB7273
:102E00000023BB730123FB7300233B7401237B74FA
:102E10000023BB740023FB740023FB7203233B736A
:102E200003237B7320233B8107F1080319460E48D7
:102E3000FDF78CFBFFF798FF012202210A48FDF7FE
:102E400050FF40233B7101237B710023BB710123A1
:102E5000FB713B1D184600F0B9FA00BF1837BD469C
:102E600080BD00BF000C01400068004080B500AF8D
:102E700002210A48FDF752FF0346002B0BD0084AF7
:102E800000210648FDF770FE064B01221A70022150
:102E90000248FEF775F800BF80BD00BF0068004023
:102EA000A0050020B405002080B485B000AF786094
:102EB0000023FB60094B1B68FB60FB6803F03803D1
:102EC000FB60FA687B681343FB60044AFB6813608D
:102ED00000BF1437BD4680BC704700BF00200240D1
:102EE00080B483B000AF7860084B1B68074A23F0BA
:102EF00010031360054B1A6804497B6813430B6089
:102F000000BF0C37BD4680BC704700BF00200240A8
:102F100080B483B000AF78607B681A684FF6FE73A8
:102F200013407A6813607B6800221A607B68002275
:102F30005A607B6800229A607B680022DA607B68B6
:102F4000434A934206D1434B5B68424A43F00F0326
:102F5000536077E07B68404A934206D13D4B5B6803
:102F60003C4A43F0F00353606CE07B683B4A934279
:102F700006D1384B5B68374A43F47063536061E0B5
:102F80007B68374A934206D1324B5B68314A43F43F
:102F90007043536056E07B68324A934206D12D4B12
:102FA0005B682C4A43F4702353604BE07B682E4AE5
:102FB000934206D1274B5B68264A43F47003536063
:102FC00040E07B68294A934206D1224B5B68214A44
:102FD00043F07063536035E07B68254A934206D125
:102FE000244B5B68234A43F00F0353602AE07B685D
:102FF000214A934206D11F4B5B681E4A43F0F003FF
:1030000053601FE07B681D4A934206D1194B5B68F1
:10301000184A43F47063536014E07B68184A934283
:1030200006D1144B5B68134A43F47043536009E0C4
:103030007B68144A934205D10E4B5B680D4A43F4FA
:103040007023536000BF0C37BD4680BC704700BF83
:1030500008000240000002401C0002403000024014
:1030600044000240580002406C00024080000240D0
:1030700008040240000402401C04024030040240E4
:10308000440402405804024080B485B000AF786028
:1030900039600023FB607B681B68FB60FB6823F4DE
:1030A000FF4323F07003FB603B689A683B681B6A30
:1030B0001A433B681B691A433B685B691A433B68C8
:1030C0009B691A433B68DB691A433B685B6A1A4396
:1030D0003B689B6A1343FA681343FB607B68FA689A
:1030E0001A603B68DA687B685A603B681A687B68DC
:1030F0009A603B685A687B68DA6000BF1437BD4647
:1031000080BC704780B483B000AF78600B46FB7022
:10311000FB78002B06D07B681B6843F001027B68BC
:103120001A6006E07B681A684FF6FE7313407A68EF
:10313000136000BF0C37BD4680BC704780B485B0BB
:1031400000AFF860B9601346FB71FB79002B06D025
:10315000FB681A68BB681A43FB681A6006E0FB68E4
:103160001A68BB68DB431A40FB681A6000BF14375B
:10317000BD4680BC704780B483B000AF78600B461A
:103180007B807A887B685A6000BF0C37BD4680BC64
:10319000704780B483B000AF78607B685B689BB297
:1031A00018460C37BD4680BC7047000080B485B01F
:1031B00000AF78600023FB730023BB607B6803F0E3
:1031C0008053002B03D00B4B1B68BB6002E00A4B03
:1031D0001B68BB60BA687B681340002B02D00123D8
:1031E000FB7301E00023FB73FB7B18461437BD46DD
:1031F00080BC7047000402400000024080B483B0ED
:1032000000AF78607B6803F08053002B03D0064A40
:103210007B68536002E0054A7B68536000BF0C374F
:10322000BD4680BC704700BF000402400000024061
:1032300080B485B000AFF860B9607A60FB68DAB23C
:103240007B681A70FB681A127B680133D2B21A705D
:10325000FB681A147B680233D2B21A70FB681A0E2C
:103260007B680333D2B21A707B680433BA68D2B277
:103270001A70BB681A127B680533D2B21A70BB6829
:103280001A147B680633D2B21A70BB681A0E7B68B8
:103290000733D2B21A7000BF1437BD4680BC7047E6
:1032A00080B485B000AFF860B9607A60FB681B78C5
:1032B0001A46FB6801331B781B021A43FB68023372
:1032C0001B781B041A43FB6803331B781B061A4345
:1032D000BB681A60FB6804331B781A46FB68053329
:1032E0001B781B021A43FB6806331B781B041A4326
:1032F000FB6807331B781B061A437B681A6000BF04
:103300001437BD4680BC704780B582B000AF78608E
:103310001449786800F0EEF90346002B01D101232F
:103320001BE01149786800F0E5F90346002B01D154
:10333000022312E00D49786800F0DCF90346002B07
:1033400001D1032309E00A49786800F0D3F9034664
:10335000002B01D1042300E0FF2318460837BD46A7
:1033600080BD00BF5C3C0008603C0008643C000875
:10337000683C000880B483B000AF0346FB71FB7962
:10338000013B032B12D801A252F823F09D33000811
:10339000A1330008A5330008A9330008064B06E056
:1033A000064B04E0064B02E0064B00E0064B1846D5
:1033B0000C37BD4680BC70475C3C0008603C000890
:1033C000643C0008683C00086C3C000880B487B08E
:1033D00000AF786000237B6100233B610F23FB601B
:1033E0007B68DB78002B3AD0274BDB68DB431B0A7A
:1033F00003F007037B617B69C3F104033B61FA6857
:103400007B6922FA03F3FB607B685B781A463B69B1
:1034100002FA03F37B617B689B781A46FB681340D2
:103420007A6913437B617B691B017B61174A7B6867
:103430001B787969C9B213440A4683F800237B6874
:103440001B7803F01F0311497A6812785209D2B22F
:103450001046012202FA03F341F820300FE07B68A6
:103460001B7803F01F0309497A6812785209D2B217
:10347000104601229A4000F1200341F8232000BFAA
:103480001C37BD4680BC704700ED00E000E100E065
:103490000A22002100F0D0BA844641EA000313F06A
:1034A000030349D1403A23D30B6803604B68436060
:1034B0008B688360CB68C3600B6903614B694361B0
:1034C0008B698361CB69C3610B6A03624B6A436298
:1034D0008B6A8362CB6AC3620B6B03634B6B436380
:1034E0008B6B8363CB6BC36340304031403ADBD29C
:1034F00030320BD30B6803604B6843608B6883608A
:10350000CB68C36010301031103AF3D20C3205D3BF
:1035100051F8043B40F8043B043AF9D2043208D095
:10352000D2071CBF11F8013B00F8013B01D30B8807
:1035300003806046704700BF082A13D38B07B1D0C1
:1035400010F00303AED0C3F10403D21ADB071CBF93
:1035500011F8013B00F8013BA4D331F8023B20F8FD
:10356000023B9FE7043AD9D3013A11F8013B00F836
:10357000013BF9D20B7803704B7843708B788370E2
:1035800060467047830730B548D0541E002A3FD0AC
:103590000346CAB201E0013C3AD303F8012B9D0770
:1035A000F9D1032C2DD9CDB245EA05250F2C45EADA
:1035B000054536D9A4F1100222F00F0C03F1200EBC
:1035C000E6444FEA121C03F1100242E9045542E9B5
:1035D000025510327245F8D10CF1010214F00C0FB3
:1035E00003EB021204F00F0C13D0ACF1040323F030
:1035F00003030433134442F8045B9342FBD10CF001
:1036000003042CB1CAB21C4403F8012B9C42FBD129
:1036100030BD64461346002CF4D1F9E70346144646
:10362000BFE71A46A446E0E711F0FF01034644D085
:10363000820732D110B5046841EA012E4EEA0E4EDF
:103640008EEA0402A2F1013323EA0203A4F101325B
:1036500022EA0402134313F0803F0FD150F8044FC5
:1036600084EA0E0CA4F10133ACF1013223EA040325
:1036700022EA0C02134313F0803FEFD0037823B902
:1036800036E010F8013F002B32D09942F9D110BD3D
:103690008A4211D09A071846CCD0184613F8012B4D
:1036A000002AF5D1104670479907184607D01846EA
:1036B00002780133002AF7D170478207F7D10268F8
:1036C000A2F1013323EA020313F0803F08D150F83E
:1036D000042FA2F1013323EA020313F0803FF6D056
:1036E0000378002BE8D010F8013F002BFBD1704786
:1036F000184610BD80EA010C1CF0030F37D110F002
:10370000030C20F0030021F0030150F8042B08BF44
:1037100051F8043B0ED08CF0030C6FF07F434FEA5E
:10372000CC0C23FA0CFC51F8043B42EA0C0243EAAD
:103730000C0300BFA2F1013C9A4201BF2CEA020C2B
:103740001CF0803F50F8042B51F8043BF2D04FEAB4
:1037500002604FEA1222012828BFB0EB036F08BFB6
:103760001B0AF4D003F0FF03000EC01A704710F0DC
:10377000030F0AD010F8012B11F8013B012A28BFD2
:103780009A42F4D0A2EB030070474DF8045D50F864
:10379000042B01F0030521F0030151F8043B022D35
:1037A00026D04DD822F07F45B5EB132FA2F1013C76
:1037B0002CEA020C0DD11CF0803C08BF51F8043BF0
:1037C0000AD185EA0205B5EB036F0CD150F8042B42
:1037D000E8E74FEA13235BE03CF07F4C54D10B78D1
:1037E0004FEA126554E04FEA126503F0FF034FE021
:1037F0004FEA0245A2F1013C4FEA15452CEA020CC2
:10380000B5EB134F18D11CF0803C08BF51F8043BB6
:1038100007D185EA0205B5EB034F09D150F8042B17
:10382000E6E75FEA0C4C2FD10B884FEA12452FE0F8
:103830004FEA03434FEA12454FEA134328E000BF23
:1038400002F0FF05B5EB136FA2F1013C2CEA020C6C
:103850000DD11CF0803C08BF51F8043B0AD185EA29
:103860000205B5EB032F0AD150F8042BE8E74FEA25
:1038700013630DE012F0FF0F06D051F8043B4FEA3E
:10388000122523F07F4303E04FF0000020BC704777
:1038900005F0FF0203F0FF00012828BF904204BF9B
:1038A0002D0A1B0AF4D0A2EB000020BC704700BF19
:1038B00030B540EA0104A30722D1032A20D90B46E0
:1038C0008446194653F8045BA5F1013424EA050443
:1038D00014F0803F15D1043A032A19464CF8045BD2
:1038E000EFD801F1FF3E52B163461EF8011F541E8E
:1038F00003F8011B41B122469C46002AF4D130BD99
:10390000844601F1FF3EEEE76244002CF7D003F855
:10391000011B9342FBD130BD2DE9F04F81468E460D
:10392000444D70461EF801CB15F80C4014F0080405
:10393000F7D1BCF12D0FE34653D06FF00048BCF136
:103940002B0F04BF9EF800B000F1020E1BB1102B2C
:103950004FD01F4604E0BBF1300F55D00A231F465D
:103960000025B8FBF7F6284607FB168A07E08642D3
:1039700015D329D0012507FB00C01EF801BBABF110
:10398000300CBCF1090F06D9ABF1410CBCF1190F99
:1039900008D8ABF1370C63450DDD002DE7DA4FF0A9
:1039A000FF35EAE7ABF1610CBCF1190F03D8ABF1BD
:1039B000570C6345F1DC002D0BDB04B140420AB12A
:1039C00095BB1160BDE8F08FE245D3DA4FF0FF35CB
:1039D000D3E72223C9F800301AB340460EF1FF3175
:1039E000EFE79EF800B04FF00048012400F1020E0E
:1039F000ACE7BBF1300FACD19EF8000000F0DF0067
:103A0000582807D01F46ABE79EF8003003F0DF03CD
:103A1000582B0BD110279EF801B03B460EF1020E39
:103A20009EE74046BDE8F08F8046D6E708231F4654
:103A300096E700BF753C0008012A10B50AD0242A79
:103A400008D8074C13460A4601462068BDE81040D6
:103A5000FFF762BF00F006F816230360002010BDD8
:103A600040040020014B1868704700BF400400204C
:103A70000D0A5B4552524F525D2043414E32206E3B
:103A80006F7420696D706C656D656E746564207906
:103A900065740D0A000000000D0A2043414E3100FC
:103AA0000D0A5B43414E5D2053656E74200000009B
:103AB00043414E320000000043414E3100000000FF
:103AC0000D0A3E20000000000D0A5B43414E5D20C0
:103AD0004572726F723A20646976206279207A6545
:103AE000726F0D0A3E2000000D0A5B43414E5D20BF
:103AF0004572726F723A20756E6B6E6F776E206FC3
:103B0000700D0A3E200000000D0A5B43414E5D200F
:103B1000526573756C743A200000000020000000AC
:103B2000203D20002D000000300000006164640092
:103B30000D0A6164643A2000202B20007375620036
:103B40000D0A7375623A2000202D20006D756C00FF
:103B50000D0A6D756C3A2000202A200064697600F9
:103B60000D0A6572726F723A20646976206279205C
:103B70007A65726F0D0A3E20000000000D0A64692C
:103B8000763A2000202F20000D0A6572726F723A7B
:103B900020756E6B6E6F776E20636F6D6D616E64F6
:103BA0000D0A3E20000000000D0A6572726F723A25
:103BB0002065787065637465642074776F206E7516
:103BC0006D626572730D0A3E200000000D0A657279
:103BD000726F723A20756E6B6E6F776E20636F6DC9
:103BE0006D616E642028757365206164642F737540
:103BF000622F6D756C2F646976290D0A3E200000D6
:103C0000436F6D6D616E64733A206164642C207340
:103C100075622C206D756C2C206469760D0A00008D
:103C20003E2000000D0A4572726F72000D0A5B445F
:103C300049505D2043414E2073656C6563742028B4
:103C4000504334293D0000002028303D43414E318F
:103C50002C20313D43414E32290000006164640054
:103C6000737562006D756C0064697600756E6B6EBD
:103C70006F776E0000202020202020202020282880
:103C8000282828202020202020202020202020201C
:103C9000202020202088101010101010101010105C
:103CA000101010101004040404040404040404108C
:103CB000101010101010414141414141010101011A
:103CC00001010101010101010101010101010101E4
:103CD00010101010101042424242424202020202F0
:103CE00002020202020202020202020202020202B4
:103CF0001010101020000000000000000000000064
:103D000000000000000000000000000000000000B3
:103D100000000000000000000000000000000000A3
:103D20000000000000000000000000000000000093
:103D30000000000000000000000000000000000083
:103D40000000000000000000000000000000000073
:103D50000000000000000000000000000000000063
:103D60000000000000000000000000000000000053
:053D700000000000004E
:103D750000A24A0400000000000000000102030444
:103D85000607080900000000000000000000000010
:103D9500010000000000000000000000000000001D
:103DA500000000000000000000000000000000000E
:103DB50000000000000000000000000000000000FE
:103DC50000000000000000000000000000000000EE
:103DD50000000000000000000000000000000000DE
:1041B50018000020000000000102030401020304AE
:0841C5000607080902040608C0
:0400000508000000EF
:00000001FF
