:020000040800F2
:10000000C0090020A92B0008092C0008092C0008B1
:10001000092C0008092C0008092C00080000000029
:10002000000000000000000000000000092C000893
:10003000092C000800000000092C0008092C000809
:10004000092C0008092C0008092C0008092C0008BC
:10005000092C0008092C0008092C0008092C0008AC
:10006000092C0008092C0008092C0008092C00089C
:10007000092C0008092C0008211A0008092C000886
:10008000092C0008092C0008092C0008092C00087C
:10009000292F0008092C0008092C0008A11B0008C2
:1000A000092C0008092C0008092C0008092C00085C
:1000B000DD1B0008092C0008092C0008092C000889
:1000C000092C0008092C0008092C0008092C00083C
:1000D000092C0008092C0008092C0008092C00082C
:1000E000092C0008092C0008092C00080000000059
:1000F0000000000000000000000000000000000000
:100100000000000000000000092C0008092C000875
:10011000092C0008092C0008092C0008092C0008EB
:10012000092C0008092C0008092C0008092C0008DB
:10013000092C0008092C0008092C0008092C0008CB
:1001400099330008092C0008092C0008092C000824
:100150005FF808F180B485B000AF786039600023A3
:10016000FB817B681B88FB817B682E4A934213D0FE
:100170007B682D4A93420FD07B68B3F1804F0BD040
:100180007B682A4A934207D07B68294A934203D06E
:100190007B68284A934208D1FB8923F07003FB81D6
:1001A0003B685A88FB891343FB817B68224A934250
:1001B0000CD07B68214A934208D0FB8923F440731A
:1001C000FB813B68DA88FB891343FB817B68FA89F2
:1001D0001A803B689A887B689A853B681A887B6896
:1001E0001A857B680F4A93420FD07B680E4A934270
:1001F0000BD07B68124A934207D07B68114A934226
:1002000003D07B68104A934204D13B681B7A9AB2B0
:100210007B681A867B6801229A8200BF1437BD462C
:1002200080BC7047002C01400034014000040040B5
:1002300000080040000C0040001000400014004086
:1002400000400140004401400048014080B483B0B8
:1002500000AF78600B46FB70FB78002B08D07B6802
:100260001B889BB243F001039AB27B681A8007E0B7
:100270007B681B889BB223F001039AB27B681A80CB
:1002800000BF0C37BD4680BC704780B483B000AF60
:1002900078600B467B8013467B707B78002B08D000
:1002A0007B689B899AB27B8813439AB27B689A8158
:1002B00009E07B689B899AB27B88DB439BB2134041
:1002C0009AB27B689A8100BF0C37BD4680BC7047EC
:1002D00080B485B000AF78600B467B800023FB7351
:1002E0000023BB8100237B817B681B8A9AB27B88B9
:1002F0001340BB817B689B899AB27B8813407B81CA
:10030000BB89002B05D07B89002B02D00123FB7316
:1003100001E00023FB73FB7B18461437BD4680BC0D
:10032000704780B483B000AF78600B467B807B88D9
:10033000DB439AB27B681A8200BF0C37BD4680BC93
:100340007047000080B500AF1A4B1B68194A43F094
:1003500001031360174B5A681649174B13404B6043
:10036000144B1B68134A23F0847323F48033136007
:10037000104B1B680F4A23F4802313600D4B5B68FE
:100380000C4A23F4FE0353600A4B1B68094A23F00E
:10039000A0531360074B4FF47F029A60054B002275
:1003A000DA6200F00DF8054B4FF000629A6000BF72
:1003B00080BD00BF001002400000FFF000ED00E033
:1003C00080B500AF00F002F800BF80BD80B483B0FC
:1003D00000AF00237B6000233B60474B1B68464A0D
:1003E00043F480331360444B1B6803F400333B60D9
:1003F0007B6801337B603B68002B03D17B68B3F5DE
:10040000A06FF0D13C4B1B6803F40033002B02D0EB
:1004100001233B6001E000233B603B68012B66D178
:10042000364B1B68354A43F010031360334B1B688F
:10043000324A23F003031360304B1B682F4A43F00A
:10044000020313602C4B2C4A5B6853602A4B2A4AE8
:100450005B685360284B5B68274A43F480635360B2
:10046000254BDA6A2449264B1340CB62224BDB6AC8
:10047000214A43F4833343F04403D3621E4B1B6889
:100480001D4A43F08063136000BF1B4B1B6803F0E1
:100490000063002BF9D0184B5B68174A23F47C13D8
:1004A0005360154B5B68144A43F4E8135360124BD6
:1004B0001B68114A43F08073136000BF0E4B1B682A
:1004C00003F00073002BF9D00B4B5B680A4A23F052
:1004D00003035360084B5B68074A43F00203536011
:1004E00000BF054B5B6803F00C03082BF9D100BF7C
:1004F0000C37BD4680BC704700100240002002400F
:1005000000F0FEFF80B582B000AF78607B680E4AD5
:1005100093420AD101214FF0007002F0EDFA002160
:100520004FF0007002F0E8FA09E001214FF080601E
:1005300002F0E2FA00214FF0806002F0DDFA00BF25
:100540000837BD4680BD00BF0064004080B485B060
:1005500000AF786039600023FB730023BB607B68C9
:100560001B6823F002027B681A607B681B6843F0FB
:1005700001027B681A6002E0BB680133BB607B68E4
:100580005B6803F00103012B04D0BB684FF6FF72D8
:100590009342F1D17B685B6803F00103012B02D029
:1005A0000023FB739CE03B689B79012B06D17B68A1
:1005B0001B6843F080027B681A6005E07B681B685B
:1005C00023F080027B681A603B68DB79012B06D13F
:1005D0007B681B6843F040027B681A6005E07B681B
:1005E0001B6823F040027B681A603B681B7A012B72
:1005F00006D17B681B6843F020027B681A6005E027
:100600007B681B6823F020027B681A603B685B7A7A
:10061000012B06D17B681B6843F010027B681A60CF
:1006200005E07B681B6823F010027B681A603B685A
:100630009B7A012B06D17B681B6843F008027B681C
:100640001A6005E07B681B6823F008027B681A606B
:100650003B68DB7A012B06D17B681B6843F0040200
:100660007B681A6005E07B681B6823F004027B68E6
:100670001A603B689B789A073B68DB781B061A4335
:100680003B681B791B041A433B685B791B051A43C3
:100690003B681B88013B1A437B68DA617B681B68F7
:1006A00023F001027B681A600023BB6002E0BB6894
:1006B0000133BB607B685B6803F00103012B04D14D
:1006C000BB684FF6FF729342F1D17B685B6803F021
:1006D0000103012B02D10023FB7301E00123FB7313
:1006E000FB7B18461437BD4680BC704790B484B07D
:1006F00000AF78600023FB607B689B7A1A46012379
:100700009340FB60594BD3F80032584A43F0010341
:10071000C2F80032554BD3F81C22FB68DB43534927
:100720001340C1F81C327B681B7B002B29D14F4B37
:10073000D3F80C22FB68DB434C491340C1F80C3260
:100740007B68DB881B047A685288144647497A68BC
:10075000927A104643EA040200F1480341F833203C
:100760007B689B881B047A68128814463F497A6824
:10077000927A104643EA040200F14803DB000B447E
:100780005A607B681B7B012B28D1384BD3F80C2295
:100790003649FB681343C1F80C327B681B881B0485
:1007A0007A685288144631497A68927A104643EA48
:1007B000040200F1480341F833207B689B881B0446
:1007C0007A68D288144629497A68927A104643EAB0
:1007D000040200F14803DB000B445A607B68DB7ABB
:1007E000002B09D1214BD3F80422FB68DB431F49BE
:1007F0001340C1F8043207E01C4BD3F804221B4914
:10080000FB681343C1F804327B681B89002B08D1B5
:10081000164BD3F81422FB68DB4314491340C1F88C
:1008200014327B681B89012B07D1104BD3F814229B
:100830000E49FB681343C1F814327B685B7B012BC4
:1008400007D10A4BD3F81C220849FB681343C1F8AF
:100850001C32064BD3F80032044A23F00103C2F8DD
:10086000003200BF1037BD4690BC704700640040A6
:1008700080B483B000AF78607B6800229A717B6897
:100880000022DA717B6800221A727B6800225A7299
:100890007B6800229A727B680022DA727B680022F1
:1008A0009A707B680022DA707B6803221A717B6879
:1008B00002225A717B6801221A8000BF0C37BD46A4
:1008C00080BC704780B485B000AF78603960002389
:1008D000FB737B689B6803F08063B3F1806F02D188
:1008E0000023FB7315E07B689B6803F00063B3F1A2
:1008F000006F02D10123FB730BE07B689B6803F060
:100900008053B3F1805F02D10223FB7301E0042323
:10091000FB73FB7B042B00F09F80FB7B7A68183312
:100920001B0113441A68FB7B02F00102796818333B
:100930001B010B441A603B681B7A002B13D1FB7B15
:100940007A6818331B01134419683B681B685B0500
:100950003A68527A1A43FB7B0A43796818331B01C1
:100960000B441A6015E0FB7B7A6818331B011344B3
:1009700019683B685B68DB003A68127A13433A688F
:10098000527A1A43FB7B0A43796818331B010B44E4
:100990001A603B689B7A03F00F03DAB23B689A72E5
:1009A000FB7B7A6818331B01134404331A68FB7B02
:1009B00022F00F02796818331B010B4404331A60CC
:1009C000FB7B7A6818331B01134404331A683B68B5
:1009D0009B7A1946FB7B0A43796818331B010B4449
:1009E00004331A603B689B7B1A063B685B7B1B04E5
:1009F0001A433B681B7B1B021A433B68DB7A194690
:100A0000FB7B0A4379681B010B4403F5C4731A602E
:100A10003B689B7C1A063B685B7C1B041A433B6863
:100A20001B7C1B021A433B68DB7B1946FB7B0A439A
:100A300079681B010B4403F5C6731A60FB7B7A6867
:100A400018331B0113441A68FB7B42F001027968DA
:100A500018331B010B441A60FB7B18461437BD4644
:100A600080BC704780B485B000AF78600B46FB70E7
:100A70000023FB60FB78022B12D0022B16DC002B2C
:100A800002D0012B06D011E07B689A68304B1340EE
:100A9000FB600EE07B689A682E4B1340FB6008E019
:100AA0007B689A682C4B1340FB6002E00023FB60DC
:100AB00000BFFB68284A93423DD0FB68264A934218
:100AC0003CD8FB68254A93422CD0FB68234A9342CA
:100AD00034D8FB681F4A93422AD0FB681D4A9342D0
:100AE0002CD8FB681E4A934219D0FB681C4A9342DB
:100AF00024D8FB68164A934217D0FB68144A9342E5
:100B00001CD8FB68002B04D0FB68164A934203D024
:100B100014E00223FB6014E00023FB6011E00023DB
:100B2000FB600EE00023FB600BE00123FB6008E0AC
:100B30000123FB6005E00123FB6002E00023FB6072
:100B400000BFFB68DBB218461437BD4680BC704757
:100B5000030000040003000800000310000001105F
:100B6000000100080100000480B485B000AFF86007
:100B70000B467A60FB72FB7AFA681B331B01134445
:100B80001B68DBB203F00403DAB27B681A727B687D
:100B90001B7A002B0BD1FB7AFA681B331B01134421
:100BA0001B685B0DC3F30A027B681A600AE0FB7ADC
:100BB000FA681B331B0113441B68DB0823F06042F7
:100BC0007B685A60FB7AFA681B331B0113441B686D
:100BD000DBB203F00203DAB27B685A72FB7AFA687E
:100BE0001B331B01134404331B68DBB203F00F03F8
:100BF000DAB27B689A72FB7AFA681B331B011344E2
:100C000004331B681B0ADAB27B68DA74FB7AFA6871
:100C10001B01134403F5DC731B68DAB27B68DA72DC
:100C2000FB7AFA681B01134403F5DC731B681B0A8B
:100C3000DAB27B681A73FB7AFA681B01134403F576
:100C4000DC731B681B0CDAB27B685A73FB7AFA6898
:100C50001B01134403F5DC731B681B0EDAB27B68BF
:100C60009A73FB7AFA681B01134403F5DE731B6861
:100C7000DAB27B68DA73FB7AFA681B01134403F576
:100C8000DE731B681B0ADAB27B681A74FB7AFA6897
:100C90001B01134403F5DE731B681B0CDAB27B687F
:100CA0005A74FB7AFA681B01134403F5DE731B6860
:100CB0001B0EDAB27B689A74FB7A002B06D1FB68B4
:100CC000DB6843F02002FB68DA6005E0FB681B6923
:100CD00043F02002FB681A6100BF1437BD4680BC98
:100CE000704780B485B000AFF860B9601346FB71FF
:100CF000FB79002B06D0FB685A69BB681A43FB6876
:100D00005A6106E0FB685A69BB68DB431A40FB681E
:100D10005A6100BF1437BD4680BC704780B584B0AF
:100D200000AF786039600023FB737B685A693B68C9
:100D30001340002B00F01B813B68B3F5003F00F02F
:100D4000DD803B68B3F5003F00F20E813B68B3F5F0
:100D5000803F00F0CA803B68B3F5803F00F2048119
:100D60003B68B3F5004F00F0F6803B68B3F5004FE9
:100D700000F2FA803B68B3F5006F00F0E3803B6857
:100D8000B3F5006F00F2F0803B68B3F5806F00F0C0
:100D9000D0803B68B3F5806F00F2E6803B68B3F526
:100DA000007F00F0BD803B68B3F5007F00F2DC807F
:100DB0003B68B3F5807F00F0AA803B68B3F5807F85
:100DC00000F2D2803B68202B4CD83B68002B00F00F
:100DD000CB803B68013B1F2B00F2C68001A252F87A
:100DE00023F000BF6D0E00087F0E0008690F000899
:100DF000910E0008690F0008690F0008690F0008CC
:100E0000A30E0008690F0008690F0008690F0008A9
:100E1000690F0008690F0008690F0008690F0008D2
:100E2000B50E0008690F0008690F0008690F000877
:100E3000690F0008690F0008690F0008690F0008B2
:100E4000690F0008690F0008690F0008690F0008A2
:100E5000690F0008690F0008690F0008690F000892
:100E6000C70E00083B68402B36D07DE07B689B684E
:100E70004249184600F084F80346FB7379E07B682A
:100E8000DB680321184600F07BF80346FB7370E033
:100E90007B68DB680821184600F072F80346FB7394
:100EA00067E07B68DB681021184600F069F80346AC
:100EB000FB735EE07B681B690321184600F060F855
:100EC0000346FB7355E07B681B690821184600F058
:100ED00057F80346FB734CE07B681B6910211846EA
:100EE00000F04EF80346FB7343E07B685B68082123
:100EF000184600F045F80346FB733AE07B685B68F0
:100F00001021184600F03CF80346FB7331E07B6883
:100F10009B690121184600F033F80346FB7328E073
:100F20007B689B690221184600F02AF80346FB7390
:100F30001FE07B689B690421184600F021F80346F6
:100F4000FB7316E07B689B697021184600F018F867
:100F50000346FB730DE07B685B680421184600F0D4
:100F60000FF80346FB7304E00023FB7301E000234A
:100F7000FB73FB7B18461037BD4680BD01010100A5
:100F800080B485B000AF786039600023FB737A6865
:100F90003B681340002B02D00123FB7301E00023C8
:100FA000FB73FB7B18461437BD4680BC704780B48A
:100FB00089B000AF786039600023FB6100233B619A
:100FC0000023BB610023FB6000237B610023BB6027
:100FD0003B68DB7803F00F03FB613B68DB7803F0D1
:100FE0001003002B05D03B689B781A46FB6913431E
:100FF000FB613B681B88DBB2002B44D07B681B681D
:101000007B610023BB6138E00122BB6902FA03F374
:10101000FB603B681B881A46FB6813403B613A69DA
:10102000FB689A4226D1BB699B00FB600F22FB68DC
:1010300002FA03F3BB60BB68DB437A6913407B6150
:10104000FA69FB6802FA03F37A6913437B613B6830
:10105000DB78282B05D10122BB699A407B685A6155
:1010600008E03B68DB78482B04D10122BB699A4039
:101070007B681A61BB690133BB61BB69072BC3D9AC
:101080007B687A691A603B681B88FF2B46D97B68AE
:101090005B687B610023BB613AE0BB6908330122D6
:1010A00002FA03F3FB603B681B881A46FB68134097
:1010B0003B613A69FB689A4227D1BB699B00FB60A0
:1010C0000F22FB6802FA03F3BB60BB68DB437A695B
:1010D00013407B61FA69FB6802FA03F37A691343F0
:1010E0007B613B68DB78282B05D1BB690833012283
:1010F0009A407B685A613B68DB78482B05D1BB6915
:10110000083301229A407B681A61BB690133BB61D5
:10111000BB69072BC1D97B687A695A6000BF243745
:10112000BD4680BC704780B485B000AF78600B4688
:101130007B800023FB737B689A687B881340002BBD
:1011400002D00123FB7301E00023FB73FB7B1846F5
:101150001437BD4680BC704780B485B000AF78605E
:101160000B467B800023FB737B68DA687B88134027
:10117000002B02D00123FB7301E00023FB73FB7BF8
:1011800018461437BD4680BC704780B483B000AFAA
:1011900078600B467B807A887B681A6100BF0C37C9
:1011A000BD4680BC704780B483B000AF78600B460A
:1011B0007B807A887B685A6100BF0C37BD4680BC53
:1011C0007047000080B485B000AF03460A46FB714B
:1011D0001346BB710023FB60BB7903F003039B0044
:1011E0000F2202FA03F3FB60154ABB799B08DBB2BE
:1011F000023352F82320FB68DB431148B979890890
:10120000C9B21A408B1C40F823200D4ABB799B08B9
:10121000DBB2023352F82320F979BB7903F00303E0
:101220009B0001FA03F30648B9798908C9B21A4349
:101230008B1C40F8232000BF1437BD4680BC70478C
:101240000000014080B483B000AF0346FB71FB791E
:1012500003F01F03012202FA03F1054A97F9073050
:101260005B0942F8231000BF0C37BD4680BC7047B5
:1012700000E100E080B582B000AF01F0C1F94FF4A9
:10128000803001F0F5F901F021FA0346FB71FB799A
:10129000012B29D1022002F099F8102002F0B2F8B7
:1012A000002001F093FA4FF4806001F0ABFA0020C7
:1012B00001F0C4FA4FF4E0114FF4803001F02EFA3F
:1012C000012001F049FA00BF392001F033FC034648
:1012D000002BF9D0022001F04FFA00BF01F068FAAC
:1012E0000346082BFAD100E0FEE7034B034A1A60DD
:1012F00000BF0837BD4680BD0000002000A24A04A0
:1013000080B584B000AF00F03BFC0346FB73254B77
:101310001B68254A11683A1D184602F01BFAFB7B30
:10132000002B09D03B1D08221946204801F0C6FFBA
:101330001F4800F009FA08E03B1D082219461B4827
:1013400001F088FD1B4800F0FFF91B4B1B78DBB256
:10135000FB70FB7B002B06D0FB1C012219461748B3
:1013600001F0ACFF05E0FB1C01221946134801F017
:1013700071FD134B00221A70124B00221A70124892
:1013800000F0E2F9FB7B002B01D0104B00E0104B8A
:10139000184600F0D9F90F4800F0D6F900BF103711
:1013A000BD4680BD380500203C050020A10000019D
:1013B000B83F0008C03F000840050020A20000011F
:1013C0003505002036050020C83F0008D83F00083A
:1013D000E03F0008E83F000880B584B000AF644BF0
:1013E0001B78DBB2002B26D0614B00221A706148BB
:1013F00000F0AAF9604B5B68604A93420BD16048E9
:1014000000F0A2F95F4A6049604802F0DBF9604BE6
:1014100001221A700FE0584B5B685E4A93420AD172
:101420005D4800F091F9544BDB7ADAB25B4B1A70ED
:101430005B4B01221A705B4B1B78DBB2002B1DD07B
:10144000584B00221A70584B5B684C4A934208D1A3
:101450004C4A4D49554802F0B5F94D4B01221A70DE
:101460000CE0514B5B684B4A934207D14E4BDB7A01
:10147000DAB24A4B1A704A4B01221A70444B1B785D
:10148000DBB2002B70D0464B1B78DBB2002B6BD04D
:10149000474800F059F93E4B00221A70404B002299
:1014A0001A700023FB603D4B1B78DBB2013B032B22
:1014B00030D801A252F823F0C9140008D71400084C
:1014C000E5140008F51400082F4B1A682D4B1B6813
:1014D0001344FB6022E02C4B1A682A4B1B68D31A7A
:1014E000FB601BE0284B1B68264A126802FB03F3D3
:1014F000FB6013E0234B1B68002B07D0224B1A68BC
:10150000204B1B6892FBF3F3FB6007E0294800F0D7
:101510001BF929E0284800F017F925E0274800F0DA
:1015200013F9194B1B68184600F042F9244800F0E3
:101530000BF91A4B1B78DBB2184602F0ADF90346E3
:10154000184600F001F91E4800F0FEF80D4B1B682C
:10155000184600F02DF91B4800F0F6F8F86800F086
:1015600027F9194800F0F0F81037BD4680BD00BFDC
:101570009C050020F03F000888050020A100000124
:1015800014400008300500202C05002093050020A1
:1015900029050020A2000001304000083405002089
:1015A0002A050020B8050020A4050020AF05002072
:1015B000504000087040000890400008B04000080B
:1015C000C4400008C8400008E83F000880B592B059
:1015D00000AF012144F2040001F052FA0121012080
:1015E00001F030FA4FF48063A7F84430042387F801
:1015F000473007F1440319464C48FFF7D8FC4FF435
:101600000073A7F84430032387F84630182387F87F
:10161000473007F1440319464448FFF7C8FC4FF42C
:1016200096437B6300233B8700237B870023BB8794
:101630000023A7F840300C23FB8707F13403194639
:101640003B4801F091FC01224021394801F065FD41
:1016500001228021364801F060FD0121344801F06B
:101660003DFD344801F0E6FE334BBB60334BFB607D
:1016700000233B6140237B610023BB618023FB612E
:1016800000233B6200237B622023BB624FF40053A4
:10169000FB6200233B6307F108031946254801F06C
:1016A00085FF01220221234801F0DAFF01212148B0
:1016B00001F0BAFF224801F0BDFE1F4BBB60214B79
:1016C000FB6010233B6100237B610023BB6180230F
:1016D000FB6100233B6200237B620023BB624FF46B
:1016E0000053FB6200233B6307F1080319461448CB
:1016F00001F05CFF01220221114801F0B1FF0F232C
:101700003B7100237B710023BB710123FB713B1DE7
:10171000184602F0FFF80E233B713B1D184602F0FD
:10172000F9F800BF4837BD4680BD00BF0008014042
:10173000003801405800024004380140580400209D
:10174000440002409804002080B584B000AF786067
:1017500000BF144B1B78DBB2012BFAD00023FB81B6
:1017600008E07B685A1C7A60FA89511CF981197863
:101770000D4B99547B681B78002B02D0FB893E2BC4
:10178000EFD9FB891946094801F087FF054B012273
:101790001A700121054801F047FF00BF1037BD4610
:1017A00080BD00BF1A0500209804002044000240BC
:1017B00080B590B000AF78600023FB637B68002B9E
:1017C0000BDAFB6B5A1CFA6307F1400213442D221B
:1017D00003F8342C7B685B427B60FB6B3B637B686C
:1017E000002B28D1FB6B5A1CFA6307F1400213440B
:1017F000302203F8342C24E07A682E4B83FB02134A
:101800009910D317C91A0B469B000B445B00D11AE1
:10181000CAB2FB6B591CF9633032D2B207F14001F6
:101820000B4403F8342C7B68224A82FB031292108B
:10183000DB17D31A7B607B68002B02DDFB6B1D2B53
:10184000DADD3B6BBB63FB6B013B7B631EE007F1A7
:101850000C02BB6B13441B7887F82F3007F10C0286
:101860007B6B1344197807F10C02BB6B13440A46D7
:101870001A7007F10C027B6B134497F82F201A7033
:10188000BB6B0133BB637B6B013B7B63BA6B7B6BD5
:101890009A42DCDB07F10C02FB6B134400221A7046
:1018A00007F10C031846FFF74FFF00BF4037BD4656
:1018B00080BD00BF6766666680B582B000AF7860A5
:1018C0000B46FB7000BF8021786801F05AFC03468C
:1018D000002BF8D0FB789BB21946786801F040FCE9
:1018E00000BF4021786801F04CFC0346002BF8D083
:1018F00000BF00BF0837BD4680BD000080B582B084
:1019000000AF3F4801F0D7FE0346C3F14003FB8020
:101910006DE03C4B1B889BB21A463B4B9B5C7B713A
:101920007B7919463948FFF7C7FF7B79082B02D02E
:101930007B797F2B12D1364B1B78002B49D0344B4F
:101940001B78013BDAB2324B1A7020212F48FFF787
:10195000B3FF08212D48FFF7AFFF3AE07B790D2B4D
:1019600002D07B790A2B26D1294B1B781A462949AC
:10197000294802F035F8264B1B781A46264B0021E1
:101980009954264B01221A7040220021214802F06E
:101990009DF81F4B00221A701A4B1B889BB2013313
:1019A0005A4203F03F0302F03F0258BF53429AB23B
:1019B000144B1A8021E0164B1B783E2B09D8144B90
:1019C0001B785A1CD1B2124A11701946114A7B7900
:1019D00053540C4B1B889BB201335A4203F03F0314
:1019E00002F03F0258BF53429AB2064B1A80054B91
:1019F0001B889BB2FA889A428BD10837BD4680BDBE
:101A0000580002401C050020580400200038014006
:101A10004205002044050020D804002019050020BC
:101A200080B500AF4FF4005001F052FE0346002B8A
:101A30000AD0064B00221A700021054801F0F4FD7F
:101A40004FF4005001F06CFE00BF80BD1A0500206D
:101A50004400024080B582B000AF0121082001F0AF
:101A60000FF84FF48063BB801023FB710223BB711E
:101A70003B1D19460348FFF79AFA00BF0837BD46D9
:101A800080BD00BF000C014080B584B000AF0121D3
:101A9000012001F013F83B1D00221A605A601A81E0
:101AA00041F61F43BB8040F2E7333B810023FB80BC
:101AB0003B1D19464FF08040FEF74CFB01220121EF
:101AC0004FF08040FEF7E1FB00233B601C233B709E
:101AD00000237B700023BB700123FB703B4618463C
:101AE00001F018FF1C20FFF7ADFB01214FF08040F3
:101AF000FEF7ACFB00BF1037BD4680BD80B584B09B
:101B000000AF0121112000F0BBFF2023BB8128235F
:101B1000FB730323BB7307F10C0319461748FFF748
:101B200046FA1023BB812823FB730323BB7307F101
:101B30000C0319461148FFF73AFA05210220FFF776
:101B400041FB20237B6000233B720C237B7201232B
:101B5000BB723B1D184601F05BF817233B70002356
:101B60007B700023BB700123FB703B46184601F0DD
:101B7000D1FE00BF1037BD4680BD00BF0010014040
:101B800080B500AF10210548FFF7CDFA0346002BC2
:101B90000CBF01230023DBB2184680BD00100140BA
:101BA00080B500AF202001F0A5F80346002B0DD032
:101BB000074B01221A70074B01221A7000F0C6F978
:101BC0000346054A1360202001F0B8F800BF80BD2D
:101BD00041050020280500202405002080B500AF25
:101BE00001214FF08040FEF773FB0346002B1CD011
:101BF0000F4B1B6801330E4A136001214FF08040E8
:101C0000FEF78FFB4FF400410A48FFF7A5FA0346A1
:101C1000002B05D14FF400410648FFF7B6FA04E067
:101C20004FF400410348FFF7BEFA00BF80BD00BF7C
:101C300020050020000C014080B586B000AFF860A0
:101C4000B9607A6000237B614949F86801F0F6FFCA
:101C50000346002B19D1BA687B6813447B61454861
:101C6000FFF772FDB868FFF7A3FD4348FFF76CFD6F
:101C70007868FFF79DFD4148FFF766FD7869FFF73B
:101C800097FD3F48FFF760FD6EE03E49F86801F0C0
:101C9000D5FF0346002B19D1BA687B68D31A7B6144
:101CA0003948FFF751FDB868FFF782FD3748FFF765
:101CB0004BFD7868FFF77CFD3048FFF745FD7869FC
:101CC000FFF776FD2E48FFF73FFD4DE03049F868FD
:101CD00001F0B4FF0346002B1AD1BB687A6802FBFF
:101CE00003F37B612B48FFF72FFDB868FFF760FD1A
:101CF0002948FFF729FD7868FFF75AFD1F48FFF7CD
:101D000023FD7869FFF754FD1D48FFF71DFD2BE00B
:101D10002249F86801F092FF0346002B21D17B682D
:101D2000002B03D11E48FFF70FFD1DE0BA687B684A
:101D300092FBF3F37B611B48FFF706FDB868FFF7E2
:101D400037FD1948FFF700FD7868FFF731FD0B48B4
:101D5000FFF7FAFC7869FFF72BFD0948FFF7F4FC61
:101D600002E01248FFF7F0FC00BF1837BD4680BD07
:101D7000CC400008D0400008D8400008C840000807
:101D8000E83F0008DC400008E0400008E8400008A8
:101D9000EC400008F0400008F8400008FC40000853
:101DA000004100081C4100082441000828410008A7
:101DB00080B58EB000AF78600023FB6007F11003A0
:101DC00000221A605A609A600023FB620023BB6203
:101DD000002387F827302021786801F0C9FE386297
:101DE0003B6A002B03D13748FFF7AEFC67E03B6A44
:101DF00000221A7007F10C030F227968184601F0CF
:101E0000FBFF0023FB763B6A01332021184601F0DB
:101E1000AFFEF861FB69002B03D12A48FFF794FC61
:101E20004DE0FB6900221A703B6A01337B63FB695A
:101E300001333B6302E07B6B01337B637B6B1B787D
:101E4000202BF8D002E03B6B01333B633B6B1B78EC
:101E5000202BF8D0786B01F0BFFDF862386B01F0F1
:101E6000BBFDB86207F10C03184601F0DFFC034626
:101E700087F8273097F82730FF2B09D11248FFF752
:101E800063FC124B00221A70114B00221A7016E0EC
:101E9000104AFB6A1360104ABB6A13600F4A97F836
:101EA00027301370094B01221A70094B01221A7056
:101EB00007F10C03BA6AF96A1846FFF7BDFE383716
:101EC000BD4680BD484100086C4100083505002032
:101ED00036050020380500203C0500204005002084
:101EE00080B500AF084B1B78DBB2012B0AD1064B43
:101EF00000221A700548FFF75BFF402200210348CB
:101F000001F0E4FD00BF80BD19050020D8040020C9
:101F100080B500AF0A4B1B78012B0ED100F016F8EC
:101F20000246084B1B68D31A042B06D9044B002227
:101F30001A7020210448FFF7F6F800BF80BD00BFEB
:101F400028050020240500200010014080B400AFC7
:101F5000024B1B681846BD4680BC70472005002018
:101F600080B584B000AF4FF4A06001F0C1FCFFF772
:101F700081F9FFF789FDFFF7E9FF0346374A136050
:101F8000FFF724FBFFF766FDFFF7B8FD00F002FF47
:101F900001F030F962B600BF40220021304801F064
:101FA00095FD304B00221A702F4B00221A702F4BD8
:101FB00000221A702E48FFF7C7FB2E48FFF7C4FB1C
:101FC000294B1B78DBB2012B0AD1274B00221A7058
:101FD0002348FFF7EDFE40220021214801F076FD65
:101FE000254B1B78DBB2012B17D1234B00221A7033
:101FF000224B1B78DBB2002B0CD0214B1B78DBB2C1
:10200000002B07D01F4B1B78DBB2FF2B02D0FFF752
:1020100077F902E01C48FFF797FB1C4B1A681C4B32
:102020001B689A4211D0194B1B68194A1360194852
:10203000FFF78AFB164B1A683B461749184600F013
:10204000C8FA3B461846FFF77FFBFFF757FCFFF740
:10205000C3F9FFF75DFFFFF743FFB1E72405002059
:10206000D804002018050020190500201A050020BA
:10207000A0410008C04100084105002035050020AE
:102080003605002040050020C4410008A0050020BE
:1020900084050020CC410008D841000880B483B0FA
:1020A00000AF78600B46FB707B68FA781A700123EA
:1020B00018460C37BD4680BC704780B485B000AF71
:1020C000786039600023FB600AE03A68531C3B608B
:1020D0007B68591C796012781A70FB680133FB60C9
:1020E0003B681B78002BF0D1FB6818461437BD46BF
:1020F00080BC704780B586B000AFF8607A603B6006
:102100000B46FB7200237B617B68013B7B603B6875
:10211000092B1DD93B681D4AA2FB0323DB08F97A72
:102120007A68F868FFF7E6FF78617B69FA6813441C
:10213000FB6010E0FB7A1946F868FFF7AFFFFB6819
:102140000133FB607B6901337B617B68013B7B6012
:102150007B68002BEEDC39680C4BA3FB0123DA080B
:1021600013469B0013445B00CA1AD3B23033DBB270
:102170001946F868FFF792FF02467B6913447B61BA
:102180007B6918461837BD4680BD00BFCDCCCCCC8E
:1021900080B586B000AFF8607A603B600B46FB729A
:1021A00000237B613B68002B03DA3B685B423B61A9
:1021B00001E03B683B617B68013B7B603B69092B2D
:1021C0001FD93B68002B0CDA3B692E4AA2FB032384
:1021D000DB085B42F97A7A68F868FFF7D9FF786123
:1021E0000AE03B69274AA2FB0323DB08F97A7A68F5
:1021F000F868FFF7CDFF78617B69FA681344FB60EC
:1022000025E03B68002B11DA7B68013B7B600DE029
:10221000FB7A1946F868FFF741FFFB680133FB6062
:102220007B6901337B617B68013B7B607B68002BB2
:10223000EEDC3B68002B0ADA2D21F868FFF72EFF51
:1022400002467B6913447B61FB680133FB6039699B
:102250000C4BA3FB0123DA0813469B0013445B00DD
:10226000CA1AD3B23033DBB21946F868FFF716FF4B
:1022700002467B6913447B617B6918461837BD466B
:1022800080BD00BFCDCCCCCC80B588B002AFF860AB
:102290007A601A460B46FB721346BB7200237B61C1
:1022A0007B68013B7B603B6A1B09002B20D03B6AAB
:1022B0001B09BA7AF97A009313467A68F868FFF72F
:1022C000E3FF02467B6913447B617B69FA68134430
:1022D000FB6010E0FB7A1946F868FFF7DFFEFB6849
:1022E0000133FB607B6901337B617B68013B7B6071
:1022F0007B68002BEEDC3B6A03F00F03092B0BD845
:102300003B6ADBB203F00F03DBB23033DBB21946BA
:10231000F868FFF7C3FE19E0BB7A002B0BD03B6ACD
:10232000DBB203F00F03DBB23733DBB21946F868D8
:10233000FFF7B4FE0AE03B6ADBB203F00F03DBB247
:102340005733DBB21946F868FFF7A8FE7B69013303
:102350007B617B6918461837BD4680BD80B58AB061
:1023600002AFF860B9607A603B600023BB61002374
:102370007B61FB68002B00F0FC80FB6800221A7078
:10238000F7E07B681B78252B0BD07A68531C7B60A9
:10239000FB68591CF96012781A707B6901337B6104
:1023A000E7E07B6801331B78252B0BD1FB685A1CB7
:1023B000FA6025221A707B6802337B607B690133E7
:1023C0007B61D6E02023FB770023BB777B6801335A
:1023D0007B607B681B78302B14D13023FB777B68C4
:1023E00001337B600EE0BB7F1A46920013445B0012
:1023F000DAB27B681B781344DBB2303BBB777B6877
:1024000001337B607B681B782F2B03D97B681B789B
:10241000392BE8D9BA7F7B6913441A46BB689342CB
:1024200005D2BB68DAB27B69DBB2D31ABB777B68B3
:102430001B78583B202B00F28E8001A252F823F02B
:1024400011250008572500085725000857250008C2
:10245000572500085725000857250008572500086C
:102460005725000857250008572500084125000872
:10247000C5240008572500085725000857250008DF
:1024800057250008C52400085725000857250008CF
:10249000572500085725000857250008572500082C
:1024A0005725000857250008572500082D25000846
:1024B00057250008DD240008572500085725000887
:1024C000F5240008B87F3B681A1D3A601B68F97F45
:1024D0000246F868FFF75CFEB8613FE0B87F3B68F2
:1024E0001A1D3A601B68F97F0246F868FFF702FE82
:1024F000B86133E0B87F3B681A1D3A601B68F97F0A
:10250000009300230246F868FFF7BEFEB86125E09D
:10251000B87F3B681A1D3A601B68F97F009301235E
:102520000246F868FFF7B0FEB86117E03B681A1D75
:102530003A601B681946F868FFF7BFFDB8610DE007
:102540003B681A1D3A601B68DBB21946F868FFF752
:10255000A5FDB86102E04FF0FF3325E07B68013351
:102560007B60BB69FA681344FB607A69BB691344FA
:102570007B617B681B78002B04D07B69BA689A4228
:102580003FF6FFAE7B69BA689A4203D9FB68002226
:102590001A7008E0FB68013BFB60FB6800221A70C0
:1025A0007B69013B7B617B6918462037BD4680BD56
:1025B00080B584B000AFF860B9607A607B68BA68B3
:1025C0006421F868FFF7CAFE034618461037BD4677
:1025D00080BD0EB480B585B000AF786007F12003F0
:1025E000BB60BA68F9697868FFF7E2FFF860FB68DA
:1025F00018461437BD46BDE8804003B07047000060
:1026000080B400AF184B1B68174A43F001031360F6
:10261000154B5A681449154B13404B60124B1B68FD
:10262000114A23F0847323F4803313600E4B1B682C
:102630000D4A23F4802313600B4B5B680A4A23F492
:10264000FE035360084B1B68074A23F0A053136036
:10265000054B4FF47F029A60034B0022DA6200BF01
:10266000BD4680BC704700BF001002400000FFF074
:1026700080B483B000AF7860134B1B68124A23F418
:1026800080331360104B1B680F4A23F480231360C0
:102690007B68B3F5803F04D07B68B3F5802F07D00B
:1026A0000DE0094B1B68084A43F48033136006E0D1
:1026B000054B1B68044A43F4A023136000BF00BF0E
:1026C0000C37BD4680BC70470010024080B582B018
:1026D00000AF00233B600023FB710023BB7131205E
:1026E00000F028FA0346BB713B6801333B603B684E
:1026F000B3F5A06F02D0BB79002BF0D0312000F0F1
:1027000019FA0346002B02D00123FB7101E00023DC
:10271000FB71FB7918460837BD4680BD80B485B093
:1027200000AF786039600023FB600A4B5B68FB6098
:10273000FB6823F47413FB607A683B681343FA6800
:102740001343FB60034AFB68536000BF1437BD4668
:1027500080BC70470010024080B483B000AF0346D5
:10276000FB71044AFB79136000BF0C37BD4680BC87
:10277000704700BF6000424280B485B000AF78600F
:102780000023FB60094B5B68FB60FB6823F00303DD
:10279000FB60FA687B681343FB60044AFB68536084
:1027A00000BF1437BD4680BC704700BF0010024018
:1027B00080B400AF044B5B68DBB203F00C03DBB208
:1027C0001846BD4680BC70470010024080B485B0FA
:1027D00000AF78600023FB60094B5B68FB60FB681F
:1027E00023F0F003FB60FA687B681343FB60044A44
:1027F000FB68536000BF1437BD4680BC704700BF04
:102800000010024080B485B000AF78600023FB6008
:10281000094B5B68FB60FB6823F4E063FB60FA68CC
:102820007B681343FB60044AFB68536000BF1437A6
:10283000BD4680BC704700BF0010024080B485B028
:1028400000AF78600023FB60094B5B68FB60FB68AE
:1028500023F46053FB607B68DB00FA681343FB6082
:10286000034AFB68536000BF1437BD4680BC704705
:102870000010024080B48BB000AF786000233B6250
:1028800000237B620023FB610023BB6100237B618B
:1028900000233B610023FB600023BB60644B5B684B
:1028A00003F00C033B623B6A082B11D03B6A082BF8
:1028B00064D83B6A002B03D03B6A042B04D05DE054
:1028C0007B685C4A1A605DE07B685A4A1A6059E08E
:1028D000574B5B6803F470137B62554B5B6803F4E2
:1028E0008033FB617B6A9B0C7B627B6A0D2B03D080
:1028F0007B6A02337B6201E006237B62FB69002B6B
:1029000006D17B6A4C4A03FB02F27B681A6039E00D
:10291000474BDB6A03F480337B61454BDB6A03F092
:102920000F0301333B617B69002B09D1414A3B69AD
:10293000B2FBF3F37A6A03FB02F27B681A6021E0D0
:102940003B4BDB6A1B0903F00F030133FB60384B81
:10295000DB6A1B0A03F00F030233BB60354AFB68D6
:10296000B2FBF3F3BA6803FB02F23B69B2FBF3F389
:102970007A6A03FB02F27B681A6003E07B682D4AE7
:102980001A6000BF2A4B5B6803F0F0033B623B6AAE
:102990001B093B62294A3B6A13441B78DBB2BB61CB
:1029A0007B681A68BB69DA407B685A60204B5B68B9
:1029B00003F4E0633B623B6A1B0A3B621F4A3B6ACB
:1029C00013441B78DBB2BB617B685A68BB69DA4091
:1029D0007B689A60164B5B6803F460533B623B6A0A
:1029E000DB0A3B62154A3B6A13441B78DBB2BB61CE
:1029F0007B685A68BB69DA407B68DA600C4B5B68BD
:102A000003F440433B623B6A9B0B3B620C4A3B6ACC
:102A100013441B78DBB2BB617B68DA68BB69B2FB2D
:102A2000F3F27B681A6100BF2C37BD4680BC70474B
:102A30000010024000127A0000093D00440400200A
:102A40005404002080B483B000AF78600B46FB7064
:102A5000FB78002B06D0094B5A6908497B68134361
:102A60004B6106E0054B5A697B68DB430349134021
:102A70004B6100BF0C37BD4680BC70470010024060
:102A800080B483B000AF78600B46FB70FB78002BFE
:102A900006D0094B9A6908497B6813438B6106E0AD
:102AA000054B9A697B68DB43034913408B6100BF88
:102AB0000C37BD4680BC70470010024080B483B024
:102AC00000AF78600B46FB70FB78002B06D0094BFB
:102AD000DA6908497B681343CB6106E0054BDA6984
:102AE0007B68DB4303491340CB6100BF0C37BD4615
:102AF00080BC70470010024080B483B000AF7860A3
:102B00000B46FB70FB78002B06D0094B1A6908496D
:102B10007B6813430B6106E0054B1A697B68DB4356
:102B2000034913400B6100BF0C37BD4680BC7047A2
:102B30000010024080B487B000AF0346FB71002351
:102B4000FB6000237B610023FB74FB795B09DBB234
:102B5000FB60FB68012B03D1124B1B687B6109E012
:102B6000FB68022B03D10F4B1B6A7B6102E00D4B0C
:102B70005B6A7B61FB7903F01F03FB607A69FB688A
:102B800022FA03F303F00103002B02D00123FB74AC
:102B900001E00023FB74FB7C18461C37BD4680BC5B
:102BA000704700BF0010024080B582B000AF114BEB
:102BB0007B60114B3B6007E07A68131D7B603B68CC
:102BC000191D396012681A603B680C4A9342F3D3AE
:102BD0000B480C494FF000028842B8BF40F8042B64
:102BE000FADBFDF7AFFBFFF7BBF900BF0837BD46C7
:102BF00080BD00BFF94200080000002058040020FA
:102C000058040020BC05002080B400AFFEE700009F
:102C100080B485B000AF78600023FB60344BFB606C
:102C20007B689B79002B4FD0314B1A687B681B68FF
:102C3000DB432F4913400B602D4B5A687B681B68A0
:102C4000DB432B4913404B607B681B791A46FB68BA
:102C50001344FB60FB6819687B681A68FB680A43C9
:102C60001A60234B9A687B681B68DB43204913403A
:102C70008B601F4BDA687B681B68DB431C49134081
:102C8000CB607B685B79102B0ED1194B9A687B68FF
:102C90001B68174913438B60154BDA687B681B6808
:102CA00013491343CB601DE0114BFB607B685B79DC
:102CB0001A46FB681344FB60FB6819687B681A6856
:102CC000FB680A431A600DE07B681B791A46FB68B3
:102CD0001344FB60FB6819687B681B68DA43FB6878
:102CE0000A401A6000BF1437BD4680BC704700BF61
:102CF0000004014080B485B000AF78600023FB730E
:102D00000023BB600C4B1B687A681340BB600A4B06
:102D10005A697B681340002B05D0BB68002B02D09A
:102D20000123FB7301E00023FB73FB7B1846143780
:102D3000BD4680BC704700BF0004014080B483B032
:102D400000AF7860034A7B68536100BF0C37BD4613
:102D500080BC70470004014080B584B000AF002300
:102D6000BB720023FB7201233B7300233B800023D3
:102D70007B800023BB800023FB8000233B81012359
:102D80007B733B461846FDF7B1FC00BF1037BD46CC
:102D900080BD000080B586B000AF01214FF000700B
:102DA000FFF78CFE01210420FFF76AFE4FF4006359
:102DB000BB824823FB750323BB7507F11403194637
:102DC0002248FEF7F4F84FF48053BB821823FB75BA
:102DD0000323BB7507F1140319461C48FEF7E7F8F7
:102DE0001B48FDF78FFB0023BB720023BB7301233D
:102DF000FB7300233B7401237B740023BB7400230B
:102E0000FB740023FB7203233B7303237B73202398
:102E10003B8107F1080319460D48FDF797FBFFF7C3
:102E20009BFF012202210A48FDF75BFF14233B713F
:102E300001237B710023BB710123FB713B1D1846ED
:102E400000F068FD00BF1837BD4680BD0008014096
:102E50000064004080B58AB000AFF860B9601346E6
:102E6000FB712F4B1B78DBB2002B01D0002352E00B
:102E7000FB6823F060437B6104233B7600237B7671
:102E8000FB79BB76002387F8273010E097F82730CE
:102E9000BA681A4497F82730127807F128010B44D2
:102EA00003F80D2C97F82730013387F8273097F86F
:102EB0002720FB799A4203D297F82730072BE5D9D0
:102EC00007F1100319461748FDF7FCFC034687F885
:102ED000263097F82630042B01D100231BE0104B3D
:102EE00001221A7000BF97F8263019460D48FDF7E9
:102EF000B9FD0346022BF6D0094B00221A7097F851
:102F0000263019460748FDF7ADFD0346012B0CBFDF
:102F100001230023DBB218462837BD4680BD00BF21
:102F20009D0500200064004080B500AF02210A48E2
:102F3000FDF7F4FE0346002B0CD0084B1B68013351
:102F4000064A1360064A00210348FDF70DFE054BB3
:102F500001221A7000BF80BD00640040A00500205F
:102F6000880500209C05002080B58CB000AF7860FB
:102F700039600023FB620023BB6200237B620023D5
:102F80003B620023FB617B68FB617B681B8A9BB211
:102F9000FB62FA6A4CF6FF731340FB623B68DB8806
:102FA0001A46FB6A1343FB62FB6A9AB27B681A8279
:102FB0007B689B899BB2FB62FA6A4EF6F31313405F
:102FC000FB623B689A883B681B8913439AB23B6853
:102FD0005B8913439BB21A46FB6A1343FB62FB6A8D
:102FE0009AB27B689A817B689B8A9BB2FB62FA6A81
:102FF0004FF6FF431340FB623B689B891A46FB6A0E
:103000001343FB62FB6A9AB27B689A8207F108035A
:103010001846FFF72FFCFB692E4A934202D17B69C9
:10302000BB6201E03B69BB627B689B899BB21BB2C0
:10303000002B0CDABA6A13469B0013449A001A4418
:103040003B681B685B00B2FBF3F37B620BE0BA6A80
:1030500013469B0013449A001A443B681B689B006C
:10306000B2FBF3F37B627B6A1B4AA2FB03235B097F
:103070001B01FB62FB6A1B09642202FB03F37A6AF1
:10308000D31A3B627B689B899BB21BB2002B0CDA84
:103090003B6ADB003233104AA2FB03235B0903F0D7
:1030A0000703FA6A1343FB620BE03B6A1B013233EE
:1030B000094AA2FB03235B0903F00F03FA6A1343D7
:1030C000FB62FB6A9AB27B681A8100BF3037BD464B
:1030D00080BD00BF003801401F85EB5180B483B034
:1030E00000AF78600B46FB70FB78002B08D07B6844
:1030F0009B899BB243F400539AB27B689A8107E0A4
:103100007B689B899BB223F400539AB27B689A81B7
:1031100000BF0C37BD4680BC704780B483B000AFA1
:1031200078600B467B8013467B707B78002B08D041
:103130007B689B8A9AB27B8813439AB27B689A8297
:1031400009E07B689B8A9AB27B88DB439BB2134081
:103150009AB27B689A8200BF0C37BD4680BC70472C
:1031600080B483B000AF78600B467B807B88C3F36C
:1031700008039AB27B689A8000BF0C37BD4680BCBA
:10318000704780B485B000AF78600B467B80002329
:10319000FB737B681B889AB27B8813409BB2002B21
:1031A00002D00123FB7301E00023FB73FB7B184675
:1031B0001437BD4680BC704780B584B000AF0E2385
:1031C000BB720023FB7201233B7300233B8000236F
:1031D0007B800023BB800023FB8000233B810123F5
:1031E0007B733B461846FDF781FA00BF1037BD469A
:1031F00080BD000080B586B000AF01214FF0806037
:10320000FFF75CFC01210920FFF73AFC4FF48053E3
:10321000BB824823FB750323BB7507F114031946D2
:103220002448FDF7C4FE4FF40053BB821823FB75FE
:1032300007F1140319461F48FDF7B9FE1E48FDF7B4
:1032400061F907F108031846FDF712FB0023BB7272
:103250000023BB730123FB7300233B7401237B74A6
:103260000023BB740023FB740023FB7203233B7316
:1032700003237B7320233B8107F1080319460E4883
:10328000FDF764F9FFF798FF012202210A48FDF7D4
:1032900028FD40233B7101237B710023BB71012377
:1032A000FB713B1D184600F035FB00BF1837BD46CB
:1032B00080BD00BF000C01400068004080B58AB0AE
:1032C00000AFF860B9601346FB71314B1B78DBB27D
:1032D000002B01D0002356E0FB68C3F30A033B61D7
:1032E000FB6823F060437B6104233B7600237B76FD
:1032F000FB79BB76002387F8273010E097F827305A
:10330000BA681A4497F82730127807F128010B445D
:1033100003F80D2C97F82730013387F8273097F8FA
:103320002720FB799A4203D297F82730072BE5D95B
:1033300007F1100319461748FDF7C4FA034687F84A
:10334000263097F82630042B01D100231BE0104BC8
:1033500001221A7000BF97F8263019460D48FDF774
:1033600081FB0346022BF6D0094B00221A7097F816
:10337000263019460748FDF775FB0346012B0CBFA5
:1033800001230023DBB218462837BD4680BD00BFAD
:10339000B90500200068004080B500AF0221084850
:1033A000FDF7BCFC0346002B07D0064A0021044869
:1033B000FDF7DAFB044B01221A7000BF80BD00BF8D
:1033C00000680040A4050020B805002080B485B046
:1033D00000AF78600023FB60094B1B68FB60FB6853
:1033E00003F03803FB60FA687B681343FB60044A10
:1033F000FB68136000BF1437BD4680BC704700BF38
:103400000020024080B483B000AF7860084B1B6896
:10341000074A23F010031360054B1A6804497B68C0
:1034200013430B6000BF0C37BD4680BC704700BF24
:103430000020024080B483B000AF78607B681A68D7
:103440004FF6FE7313407A6813607B6800221A609F
:103450007B6800225A607B6800229A607B680022A9
:10346000DA607B68434A934206D1434B5B68424A29
:1034700043F00F03536077E07B68404A934206D1E4
:103480003D4B5B683C4A43F0F00353606CE07B6863
:103490003B4A934206D1384B5B68374A43F470632A
:1034A000536061E07B68374A934206D1324B5B68D8
:1034B000314A43F47043536056E07B68324A93428A
:1034C00006D12D4B5B682C4A43F4702353604BE0CC
:1034D0007B682E4A934206D1274B5B68264A43F409
:1034E0007003536040E07B68294A934206D1224B27
:1034F0005B68214A43F07063536035E07B68254A7E
:10350000934206D1244B5B68234A43F00F03536078
:103510002AE07B68214A934206D11F4B5B681E4A12
:1035200043F0F00353601FE07B681D4A934206D1CD
:10353000194B5B68184A43F47063536014E07B686E
:10354000184A934206D1144B5B68134A43F4704304
:10355000536009E07B68144A934205D10E4B5B68C7
:103560000D4A43F47023536000BF0C37BD4680BC46
:10357000704700BF08000240000002401C000240EB
:103580003000024044000240580002406C000240FB
:103590008000024008040240000402401C04024073
:1035A00030040240440402405804024080B485B014
:1035B00000AF786039600023FB607B681B68FB60AC
:1035C000FB6823F4FF4323F07003FB603B689A68B9
:1035D0003B681B6A1A433B681B691A433B685B697B
:1035E0001A433B689B691A433B68DB691A433B6893
:1035F0005B6A1A433B689B6A1343FA681343FB6098
:103600007B68FA681A603B68DA687B685A603B68D6
:103610001A687B689A603B685A687B68DA6000BF0A
:103620001437BD4680BC704780B483B000AF78606B
:103630000B46FB70FB78002B06D07B681B6843F0C1
:1036400001027B681A6006E07B681A684FF6FE7319
:1036500013407A68136000BF0C37BD4680BC7047CA
:1036600080B485B000AFF860B9601346FB71FB7998
:10367000002B06D0FB681A68BB681A43FB681A6007
:1036800006E0FB681A68BB68DB431A40FB681A60F7
:1036900000BF1437BD4680BC704780B483B000AF14
:1036A00078600B467B807A887B685A6000BF0C3755
:1036B000BD4680BC704780B483B000AF78607B6843
:1036C0005B689BB218460C37BD4680BC7047000053
:1036D00080B485B000AF78600023FB730023BB602B
:1036E0007B6803F08053002B03D00B4B1B68BB603F
:1036F00002E00A4B1B68BB60BA687B681340002B72
:1037000002D00123FB7301E00023FB73FB7B18460F
:103710001437BD4680BC70470004024000000240E0
:1037200080B483B000AF78607B6803F08053002BD7
:1037300003D0064A7B68536002E0054A7B68536009
:1037400000BF0C37BD4680BC704700BF000402407C
:103750000000024080B485B000AFF860B9607A60C4
:10376000FB68DAB27B681A70FB681A127B68013357
:10377000D2B21A70FB681A147B680233D2B21A7084
:10378000FB681A0E7B680333D2B21A707B6804336D
:10379000BA68D2B21A70BB681A127B680533D2B20B
:1037A0001A70BB681A147B680633D2B21A70BB68F1
:1037B0001A0E7B680733D2B21A7000BF1437BD46A9
:1037C00080BC704780B485B000AFF860B9607A60A3
:1037D000FB681B781A46FB6801331B781B021A43EF
:1037E000FB6802331B781B041A43FB6803331B7806
:1037F0001B061A43BB681A60FB6804331B781A4621
:10380000FB6805331B781B021A43FB6806331B78E1
:103810001B041A43FB6807331B781B061A437B689B
:103820001A6000BF1437BD4680BC704780B582B0B7
:1038300000AF78601449786800F000FA0346002B66
:1038400001D101231BE01149786800F0F7F9034624
:10385000002B01D1022312E00D49786800F0EEF947
:103860000346002B01D1032309E00A49786800F0E0
:10387000E5F90346002B01D1042300E0FF2318469D
:103880000837BD4680BD00BFE0410008E4410008A4
:10389000E8410008EC41000880B483B000AF034663
:1038A000FB71FB79013B032B12D801A252F823F0E4
:1038B000C1380008C5380008C9380008CD380008EC
:1038C000064B06E0064B04E0064B02E0064B00E028
:1038D000064B18460C37BD4680BC7047E0410008D7
:1038E000E4410008E8410008EC410008F04100080C
:1038F00080B483B000AF7860054A7B6843F0BF6353
:1039000043F40033D36000BF0C37BD4680BC704722
:1039100000ED00E080B487B000AF786000237B61E9
:1039200000233B610F23FB607B68DB78002B3AD0E0
:10393000274BDB68DB431B0A03F007037B617B69D2
:10394000C3F104033B61FA687B6922FA03F3FB606D
:103950007B685B781A463B6902FA03F37B617B68FC
:103960009B781A46FB6813407A6913437B617B6935
:103970001B017B61174A7B681B787969C9B21344C4
:103980000A4683F800237B681B7803F01F03114964
:103990007A6812785209D2B21046012202FA03F371
:1039A00041F820300FE07B681B7803F01F030949C2
:1039B0007A6812785209D2B2104601229A4000F178
:1039C000200341F8232000BF1C37BD4680BC704750
:1039D00000ED00E000E100E00A22002100F0D0BA92
:1039E000844641EA000313F0030349D1403A23D34C
:1039F0000B6803604B6843608B688360CB68C3606F
:103A00000B6903614B6943618B698361CB69C36156
:103A10000B6A03624B6A43628B6A8362CB6AC3623E
:103A20000B6B03634B6B43638B6B8363CB6BC36326
:103A300040304031403ADBD230320BD30B68036068
:103A40004B6843608B688360CB68C3601030103173
:103A5000103AF3D20C3205D351F8043B40F8043B42
:103A6000043AF9D2043208D0D2071CBF11F8013B46
:103A700000F8013B01D30B8803806046704700BF0C
:103A8000082A13D38B07B1D010F00303AED0C3F1D3
:103A90000403D21ADB071CBF11F8013B00F8013BFD
:103AA000A4D331F8023B20F8023B9FE7043AD9D374
:103AB000013A11F8013B00F8013BF9D20B78037091
:103AC0004B7843708B78837060467047830730B5BE
:103AD00048D0541E002A3FD00346CAB201E0013C40
:103AE0003AD303F8012B9D07F9D1032C2DD9CDB280
:103AF00045EA05250F2C45EA054536D9A4F1100203
:103B000022F00F0C03F1200EE6444FEA121C03F1E1
:103B1000100242E9045542E9025510327245F8D1CB
:103B20000CF1010214F00C0F03EB021204F00F0C65
:103B300013D0ACF1040323F003030433134442F81D
:103B4000045B9342FBD10CF003042CB1CAB21C44B9
:103B500003F8012B9C42FBD130BD64461346002C78
:103B6000F4D1F9E703461446BFE71A46A446E0E756
:103B700011F0FF01034644D0820732D110B504682A
:103B800041EA012E4EEA0E4E8EEA0402A2F1013302
:103B900023EA0203A4F1013222EA0402134313F0E0
:103BA000803F0FD150F8044F84EA0E0CA4F101338A
:103BB000ACF1013223EA040322EA0C02134313F0AE
:103BC000803FEFD0037823B936E010F8013F002B97
:103BD00032D09942F9D110BD8A4211D09A071846C5
:103BE000CCD0184613F8012B002AF5D110467047A7
:103BF0009907184607D0184602780133002AF7D1F2
:103C000070478207F7D10268A2F1013323EA020369
:103C100013F0803F08D150F8042FA2F1013323EABA
:103C2000020313F0803FF6D00378002BE8D010F8A1
:103C3000013F002BFBD17047184610BD80EA010CF4
:103C40001CF0030F37D110F0030C20F0030021F01B
:103C5000030150F8042B08BF51F8043B0ED08CF040
:103C6000030C6FF07F434FEACC0C23FA0CFC51F8A5
:103C7000043B42EA0C0243EA0C0300BFA2F1013C00
:103C80009A4201BF2CEA020C1CF0803F50F8042B32
:103C900051F8043BF2D04FEA02604FEA12220128A9
:103CA00028BFB0EB036F08BF1B0AF4D003F0FF037B
:103CB000000EC01A704710F0030F0AD010F8012B45
:103CC00011F8013B012A28BF9A42F4D0A2EB03006D
:103CD00070474DF8045D50F8042B01F0030521F006
:103CE000030151F8043B022D26D04DD822F07F4528
:103CF000B5EB132FA2F1013C2CEA020C0DD11CF004
:103D0000803C08BF51F8043B0AD185EA0205B5EBB7
:103D1000036F0CD150F8042BE8E74FEA13235BE064
:103D20003CF07F4C54D10B784FEA126554E04FEAD7
:103D3000126503F0FF034FE04FEA0245A2F1013C98
:103D40004FEA15452CEA020CB5EB134F18D11CF0C5
:103D5000803C08BF51F8043B07D185EA0205B5EB6A
:103D6000034F09D150F8042BE6E75FEA0C4C2FD142
:103D70000B884FEA12452FE04FEA03434FEA124502
:103D80004FEA134328E000BF02F0FF05B5EB136FC5
:103D9000A2F1013C2CEA020C0DD11CF0803C08BFC2
:103DA00051F8043B0AD185EA0205B5EB032F0AD18D
:103DB00050F8042BE8E74FEA13630DE012F0FF0F11
:103DC00006D051F8043B4FEA122523F07F4303E06D
:103DD0004FF0000020BC704705F0FF0203F0FF0029
:103DE000012828BF904204BF2D0A1B0AF4D0A2EB81
:103DF000000020BC704700BF30B540EA0104A307B3
:103E000022D1032A20D90B468446194653F8045B75
:103E1000A5F1013424EA050414F0803F15D1043AD9
:103E2000032A19464CF8045BEFD801F1FF3E52B16A
:103E300063461EF8011F541E03F8011B41B12246C0
:103E40009C46002AF4D130BD844601F1FF3EEEE7E6
:103E50006244002CF7D003F8011B9342FBD130BD24
:103E60002DE9F04F81468E46444D70461EF801CB39
:103E700015F80C4014F00804F7D1BCF12D0FE346FF
:103E800053D06FF00048BCF12B0F04BF9EF800B078
:103E900000F1020E1BB1102B4FD01F4604E0BBF106
:103EA000300F55D00A231F460025B8FBF7F62846E9
:103EB00007FB168A07E0864215D329D0012507FBA8
:103EC00000C01EF801BBABF1300CBCF1090F06D9E4
:103ED000ABF1410CBCF1190F08D8ABF1370C6345BD
:103EE0000DDD002DE7DA4FF0FF35EAE7ABF1610CAD
:103EF000BCF1190F03D8ABF1570C6345F1DC002D71
:103F00000BDB04B140420AB195BB1160BDE8F08FF4
:103F1000E245D3DA4FF0FF35D3E72223C9F800306A
:103F20001AB340460EF1FF31EFE79EF800B04FF0B4
:103F30000048012400F1020EACE7BBF1300FACD118
:103F40009EF8000000F0DF00582807D01F46ABE7BE
:103F50009EF8003003F0DF03582B0BD110279EF89A
:103F600001B03B460EF1020E9EE74046BDE8F08FE1
:103F70008046D6E708231F4696E700BFF9410008B0
:103F8000012A10B50AD0242A08D8074C13460A463D
:103F900001462068BDE81040FFF762BF00F006F858
:103FA00016230360002010BD40040020014B186858
:103FB000704700BF400400200D0A2043414E3200EC
:103FC0000D0A2043414E31000D0A5B43414E5D20F6
:103FD00053656E742000000043414E320000000023
:103FE00043414E31000000000D0A3E200000000059
:103FF0000D0A5B4442475D2043414E31206D65739D
:1040000073616765207265636569766564210D0A71
:10401000000000005B4442475D20476F74204E550E
:104020004D42455253206D6573736167650D0A00FB
:104030005B4442475D20476F74204F5045524154C6
:10404000494F4E206D6573736167650D0A0000006E
:104050005B4442475D2043616C63756C6174696EBB
:104060006720726573756C742E2E2E0D0A00000089
:104070000D0A5B43414E5D204572726F723A2064B7
:104080006976206279207A65726F0D0A3E20000001
:104090000D0A5B43414E5D204572726F723A207586
:1040A0006E6B6E6F776E206F700D0A3E2000000001
:1040B0000D0A5B43414E5D20526573756C743A2066
:1040C0000000000020000000203D2000616464002A
:1040D0000D0A6164643A2000202B20007375620091
:1040E0000D0A7375623A2000202D20006D756C005A
:1040F0000D0A6D756C3A2000202A20006469760054
:104100000D0A6572726F723A2064697620627920B6
:104110007A65726F0D0A3E20000000000D0A646986
:10412000763A2000202F20000D0A6572726F723AD5
:1041300020756E6B6E6F776E20636F6D6D616E6450
:104140000D0A3E20000000000D0A6572726F723A7F
:104150002065787065637465642074776F206E7570
:104160006D626572730D0A3E200000000D0A6572D3
:10417000726F723A20756E6B6E6F776E20636F6D23
:104180006D616E642028757365206164642F73759A
:10419000622F6D756C2F646976290D0A3E20000030
:1041A000436F6D6D616E64733A206164642C20739B
:1041B00075622C206D756C2C206469760D0A0000E8
:1041C0003E2000000D0A4572726F72004952512064
:1041D000434E543A20000000256C750D0A00000083
:1041E00061646400737562006D756C0064697600CB
:1041F000756E6B6E6F776E000020202020202020CF
:104200002020282828282820202020202020202086
:104210002020202020202020208810101010101096
:1042200010101010101010101004040404040404E2
:10423000040404101010101010104141414141417C
:10424000010101010101010101010101010101015E
:10425000010101011010101010104242424242426E
:10426000020202020202020202020202020202022E
:1042700002020202101010102000000000000000D6
:10428000000000000000000000000000000000002E
:10429000000000000000000000000000000000001E
:1042A000000000000000000000000000000000000E
:1042B00000000000000000000000000000000000FE
:1042C00000000000000000000000000000000000EE
:1042D00000000000000000000000000000000000DE
:1042E00000000000000000000000000000000000CE
:0942F000000000000000000000C5
:1042F90000A24A04000000000000000001020304BB
:104309000607080900000000000000000000000086
:104319000100000000000000000000000000000093
:104329000000000000000000000000000000000084
:104339000000000000000000000000000000000074
:104349000000000000000000000000000000000064
:104359000000000000000000000000000000000054
:104739001800002000000000010203040102030424
:08474900060708090204060836
:0400000508000000EF
:00000001FF
